:020000040800F2
:10000000D00E002045010008F33E0008B32F000881
:10001000C93B00084D0C00085D46000800000000C8
:100020000000000000000000000000001D4100086A
:100030009D0C0008000000009F4000089941000846
:100040005F0100085F0100085F0100085F01000810
:100050005F0100085F0100085F0100085F01000800
:100060005F0100085F0100085F0100085F010008F0
:100070005F0100085F0100085F0100085F010008E0
:100080005F0100085F0100085F0100085F010008D0
:100090005F0100085F0100085F0100085F010008C0
:1000A0005F0100085F0100085F0100085F010008B0
:1000B0005F0100085F0100085F0100085F010008A0
:1000C0005F0100085F0100085F0100085F01000890
:1000D0005F0100085F0100085F0100085F01000880
:1000E0005F0100085F0100085F0100085F01000870
:1000F0005F0100085F0100085F0100085F01000860
:100100005F0100085F0100085F0100085F0100084F
:100110005F0100085F0100082D4200085F01000830
:100120005F0100085F0100085F0100085F0100082F
:10013000DFF80CD000F034FC004800479362000860
:10014000D00E00200648804706480047FEE7FEE73D
:10015000FEE7FEE7FEE7FEE7FEE7FEE7FEE7FEE777
:1001600029420008310100082DE9F0410024061B56
:10017000254671F1000605DA01240027D0EB0700BF
:1001800067EB0101161E73F1000605DA0027D2EBBA
:100190000702012567EB030300F010FA86460E46BE
:1001A00017469C46AC4204D00025D0EB050E65EB0B
:1001B000010624B10020D2EB000760EB030C70466F
:1001C00031463A466346BDE8F081202A04DB203AF6
:1001D00021FA02F00021704721FA02F3D040C2F167
:1001E0002002914008431946704740EA01039B07EB
:1001F00003D009E008C9121F08C0042AFAD203E09C
:1002000011F8013B00F8013B521EF9D27047D2B2FF
:1002100001E000F8012B491EFBD270470022F6E7EF
:1002200010B513460A4604461946FFF7F0FF20466C
:1002300010BD30B504460020034600E05B1C93422D
:1002400003D2E05CCD5C401BF8D030BDF0B480EA56
:100250000102D40F4200B2EB410F02D2024608461F
:1002600011464A0042D0C30DDDB2C1F3C752AD1AE8
:10027000202D35DAC1F3160141F4000204B15242D7
:10028000C5F1200602FA06F12A411044B3EBD05F13
:1002900023D0C4B1012DA0EBC35009DCF0BC4FF05A
:1002A000004202EAC352DBB200F5000000F0C0B920
:1002B000400000F1807000EBC350A0F1807040EA74
:1002C000D170490009E0490841EAC071A0EBC35070
:1002D00000F50000400800EBC350F0BC00F09FB9EF
:1002E0006142012202EB4101001BF6E7F0BC7047BE
:1002F00081F00041AAE780F00040A7E780EA010210
:1003000010B502F00043400022D04A001FD0010E79
:1003100001EB1261C0F35600C2F3560240F4000034
:1003200042F40002A0FB022000047F39140400D034
:10033000401C50EA124001D44000491EC2B20C06D3
:1003400004EBD010401C4008802A02D003E00020BB
:1003500010BD20F00100002900DA0020184310BD74
:1003600030B480EA010202F0004530F0004221F092
:10037000004013D090B1C30DD40DC2F31601C0F3E9
:100380001600E41A41F4000140F400027D34914269
:1003900001D3641C00E04900002C02DA30BC0020CC
:1003A00070474FF400000023914201D3891A0343A0
:1003B00040084FEA4101F7D151B1914202D14FF0CB
:1003C000004105E002D24FF0010101E06FF00101B0
:1003D00003EBC450284430BC00F021B92DE9FE4F96
:1003E00081EA030404F0004421F0004100944FF03E
:1003F000000B23F0004350EA01045ED052EA0304EC
:100400005BD0C3F30A54C1F30A552C44A4F2F3346D
:100410000194A0FB0254C1F3130141F48011C3F312
:10042000130343F4801301FB024400FB034E840AD0
:10043000970A44EA815447EA8357A4FB0768029568
:100440008D0A05FB07854FEA932C04FB0C54270506
:10045000029D4FEA065847EA1637B5EB08056EEBE2
:10046000070C870E920E47EA811742EA8312A7FB18
:100470000201B6EB0B0164EB00042B0D43EA0C33D5
:100480005E1844EB1C50DA465146E7FB0201C5F307
:1004900013044FEA0B3343EA14534FEA0432019C2E
:1004A00043EA0603A4F10C040294009CCDE900B4D5
:1004B00000F0FBF803B0BDE8F08F00200146F9E73B
:1004C000C10F80EAE0700844CA079623002100F0BB
:1004D000AFB896230022114600F0AAB800F00042FF
:1004E00020F00040C10DC0F3160040F400007F2949
:1004F00001DA00207047962903DCC1F19601C8405B
:1005000001E096398840002AF4D04042704720F03C
:100510000040C10DC0F3160040F400007F2901DA4D
:1005200000207047962903DCC1F19601C84070474E
:1005300096398840704700F0004230F000400AD001
:10054000C10D01F56071C0F3160042EA0151C20805
:1005500040071143704700200146704701F00043F7
:1005600030B421F0004150EA010206D00A0DA2F594
:100570006072C1F31301002A02DC30BC0020704716
:10058000440F44EAC104C100E01830BC00EBC25083
:1005900000F045B8002801DBC0F10040002901DB74
:1005A000C1F1004181427047002801DBC0F10040E9
:1005B000002901DBC1F10041884270472DE9F05F5D
:1005C0000546002092469B468846064681464024C2
:1005D0001BE02846414647462246FFF7F6FD5346B4
:1005E0005A46C01A914110D311461846224600F0CF
:1005F000E9F92D1A67EB01084F4622460120002138
:1006000000F0E0F917EB00094E41201EA4F10104AF
:10061000DFDC484631462A464346BDE8F09F0029C4
:10062000A8BF7047401C490008BF20F00100704778
:1006300010B4B0FA80FC00FA0CF050EA010404BFD8
:1006400010BC704749B1CCF1200421FA04F411FA2E
:100650000CF118BF012121430843A3EB0C01CB1D72
:100660004FEA00614FEA102042BF002010BC7047E3
:1006700000EBC35010440029A4BF10BC7047401CBD
:10068000490008BF20F0010010BC704710B5141ECF
:1006900073F1000408DA401C41F1000192185B413B
:1006A0001A4301D120F0010010BD2DE9F04D924612
:1006B0009B4611B1B1FA81F202E0B0FA80F2203229
:1006C000904600F07FF904460F4640EA0A0041EAEE
:1006D0000B0153465A46084313D0114653EA010012
:1006E00019D0C8F140025046FFF76FFD05460E468F
:1006F00050465946424600F065F9084305D00120AE
:1007000004E020463946BDE8F08D0020054346EA66
:10071000E0762C4337430A986305E40AA0EB08000F
:100720000022FD0A44EA47540A3002D5002001465F
:10073000E9E7010510196941DDE90845001969413A
:10074000BDE8F04DA2E72DE9FE4F804681EA0300A7
:10075000C00F0C46009021F0004123F00045B8EB9B
:100760000200A94105D24046214690461C460B4650
:10077000024623F00040104347D0270DC7F30A007C
:10078000C3F30A510290401A019040286BDAC3F378
:10079000130040F4801B0098924620B10023D2EB56
:1007A000030A63EB0B0B01985946C0F14002504617
:1007B00000F008F906460D4650465946019A00F0E9
:1007C00010F910EB08006141002487EA115284EA15
:1007D000E7731A4340D0009A62B3019A012A4FEAA4
:1007E000075215DC001B61EB02014FF0004202EAE8
:1007F0000752CDE90042001C41F5801132462B46DC
:10080000FFF753FF03B0BDE8F08F40462146F9E7FC
:10081000001B61EB0201001C41F5801300185B41D5
:100820002018A2F5001747EB030140EAD570B6196E
:100830006D4111E06D084FEA360645EAC0754FEA92
:100840000752001B61EB0201001C41F580114908B1
:100850004FEA30000019514132462B4603B0BDE843
:10086000F04FFFF713BF0098012240000023D0EBA8
:10087000020263EBE073009821464FEAE074B8EBA4
:10088000000061EB0401E9E783F000435BE781F0DE
:10089000004158E72DE9F04D81EA030404F0004BD4
:1008A00021F0004514464FF0000A23F0004150EAC1
:1008B000050220D054EA01021DD0C5F30A570246B2
:1008C000C5F31303C1F31300C1F30A5640F48015B6
:1008D00043F48013A7EB0608101BD64608F2FD3838
:1008E00073EB050002D308F1010801E092185B41A7
:1008F000B8F1000F03DA00200146BDE8F08D0020BA
:100900004FF48011064684460EE0171B73EB050773
:1009100005D3121B63EB050306434CEA010C49089F
:100920004FEA300092185B4150EA0107EDD152EADC
:10093000030012D082EA040083EA0501084305D0CF
:10094000101BAB4106D20122002306E000224FF02B
:10095000004302E06FF0010253101AEB06004CEB6B
:10096000085110EB0A0041EB0B01BDE8F04DFFF719
:100970008DBE70B521F0004303430CD0C1F30A557E
:100980000024D5EB040564EB0403D617AD1AB3417C
:1009900002DB0020014670BD201841EB025170BD02
:1009A000064C074D06E0E06840F0010394E80700BC
:1009B00098471034AC42F6D3FFF7BEFB9080000896
:1009C000B0800008202A04DB203A00FA02F100205F
:1009D00070479140C2F1200320FA03F3194390407D
:1009E0007047202A06DBCB17203A41FA02F043EA8F
:1009F000E07306E041FA02F3D040C2F120029140D8
:100A00000843194670472DE9F04D00231A461B1A7A
:100A10008A4103DB00200146BDE8F08DC1F30A5294
:100A2000C1F3130141F480154FF0000BD10702D13F
:100A300000186D41521E0027044640F2FF1138464F
:100A400001EB620A3E468046024600204FF48011C8
:100A5000FFF7BBFBC2197141BB1846EB0100B4EBB9
:100A6000030C75EB000C04D3E41A65EB0005174684
:100A70000E46241908F101006D4180463428E3DD5B
:100A8000F91946EB0600091BA84103D24FF0FF32CB
:100A9000134601E0002213461BEB070046EB0A5108
:100AA000BDE8F04DFFF7F2BD70B5044600252068A3
:100AB000806800F0010018B32068806820F0010011
:100AC0002168886000F010FE054613E000F00CFE7F
:100AD000401B02280ED92068806800F0010048B150
:100AE000A06A40F01000A062E06A40F00100E062FD
:100AF000012070BD2068806800F001000028E5D169
:100B00000020F6E770B52B4A2B492C4802F0FCFA7E
:100B10002B4991F900104FF4B47201FB02F0FFF77A
:100B2000CFFC05462348016826480068FFF7E0FB34
:100B300006462946FFF7DCFB04462349FFF734FD50
:100B400006D21F480078401C40B21D4908701EE0C4
:100B50001B4991F900104FF4B47201FB02F0FFF74A
:100B6000AFFC05461348016816480068FFF7C0FB54
:100B700006462946FFF7BCFB04461449FFF70AFD69
:100B800005D20F480078401E40B20D4908700C494C
:100B900091F900104FF4B47201FB02F0FFF790FCE2
:100BA0000446044801682046FFF750FB05490860E9
:100BB00070BD00003C000020380000203400002000
:100BC0001E0000204000002000003443000034C319
:100BD00010B51848007843B21748026817480168F2
:100BE000174803F0FEF91648006A80F000442046DA
:100BF000FFF774FC134908600F4801680F4800684C
:100C0000FFF776FB04464FF07E51FFF7C3FC10D28E
:100C10000948016809480068FFF76AFB04460A4969
:100C2000FFF7C2FC05D200231A461946184603F006
:100C30005FF910BD1A000020400000205000002085
:100C4000080800202C000020000080BF00BFFEE745
:100C500010B50A480068401C08490860084890F927
:100C60000000052190FBF1F201FB120028B905A05C
:100C700003F054FD00200449087010BD140000204A
:100C80001D000020310000001800002010B500F009
:100C900007F8FFF79DFF03F0E3FC10BD704700006D
:100CA0002DE9F0474848007843B248480268484870
:100CB0000168484803F095F94748007801282ED18B
:100CC000464AD2F89C10D068FFF7C0FA80464348E5
:100CD000D0F82C114046FFF7B9FA04463F48D0F847
:100CE000BC112046FFF7B2FA07463D49FFF738FB33
:100CF00006464FF08041FFF701FB05463348016887
:100D00002846FFF7A3FA314908603249086AFFF71D
:100D1000E5FB3449086000203349086035E02E487F
:100D20000078022831D12D48006980F000492B4815
:100D3000D0F8A0104846FFF789FA80462748D0F837
:100D400030114046FFF782FA07462448D0F8C01118
:100D50003846FFF7CDFA06462149FFF701FB054665
:100D60004FF08041FFF7CAFA044618480168204650
:100D7000FFF76CFA154908601649086AFFF7AEFBE1
:100D80001949086000201749086010480168104898
:100D90000068FFF7ADFA04464FF07E51FFF7FAFB0B
:100DA00010D20A4801680A480068FFF7A1FA044611
:100DB0000E49FFF7F9FB05D200231A4619461846DB
:100DC00003F096F8BDE8F0871A00002048000020E4
:100DD0005400002030080020100000205808002097
:100DE000AB279F442400002028000020000080BF83
:100DF00072B600BFFEE7000038B5024600230020AF
:100E0000009000BF92F82400012801D1022038BDD3
:100E1000012082F8240000BF4868072812D2106819
:100E2000406B0C79641E04EB84051F24AC40A04386
:100E30000D796D1E05EB85050C68AC4020431468E8
:100E4000606327E048680D2812D21068006B0C79A7
:100E5000E41F04EB84051F24AC40A0430D79ED1F73
:100E600005EB85050C68AC4020431468206311E055
:100E70001068C06A0C790D3C04EB84051F24AC405B
:100E8000A0430D790D3D05EB85050C68AC40204372
:100E90001468E06208680A2812D31068C0680C78E9
:100EA0000A3C04EB44050724AC40A0430D780A3DFE
:100EB00005EB45058C68AC4020431468E0600FE00A
:100EC000106800690C7804EB44050724AC40A0438B
:100ED0000D7805EB45058C68AC4020431468206113
:100EE0000868102802D00868112827D1174C10680C
:100EF000A0421ED11068806800F40000F0B91068AC
:100F0000806840F400001468A0600868102815D1BB
:100F10000F4800680F4CB0FBF4F000EB800040007D
:100F2000009002E00098401E009000980028F9D13F
:100F300004E0906A40F020009062012300BF00208E
:100F400082F8240000BF184661E700000024014039
:100F50000C00002040420F002DE9F041044600271C
:100F600000250026A84614B90120BDE8F081A0683C
:100F700010B1207D00B100BFA06A30B90020E0624E
:100F800084F82400204600F097F82046FFF78CFDF7
:100F90000746A06A00F01000002873D1002F7ED110
:100FA000A06A20F4885040F00200A0623F4AD4E9D1
:100FB0000001904208D1E069B0F5402F02D14FF412
:100FC000002002E0E06900E0E0690143207B41EAA3
:100FD00040000643A068B0F5807F02D0A0680128D9
:100FE00002D14FF4807000E000200543207D0128ED
:100FF00011D1207B38B9A069401E4FF4006141EA4D
:101000004030054307E0A06A40F02000A062E06A9B
:1010100040F00100E0622068406820F46940284305
:101020002168486020688068214908403043216871
:101030008860A068B0F5807F02D0A068012802D146
:101040004FF4807000E00020B0F5807F03D1208A4B
:10105000401E4FEA00582068C06A20F4700040EA41
:1010600008002168C8622068806812490840B042C0
:1010700009D10020E062A06A20F0020040F00100E7
:10108000A06211E00BE0A06A20F0020040F0100026
:10109000A062E06A40F00100E062012704E0A06A7B
:1010A00040F01000A062012738465EE7003C014096
:1010B000FDF7E1FFFE0E1FFF10B586B004460020CD
:1010C00002900390049005901E492068884236D112
:1010D00000BF1D48806940F400701B4988610846C4
:1010E000806900F40070019000BF00BF00BF084697
:1010F000806940F0100088610846806900F01000A7
:10110000019000BF00BF00BF0846806940F00800A2
:1011100088610846806900F00800019000BF00BFA8
:10112000012002900320039002A9084800F02EF944
:1011300003200290039002A9054800F027F906B0A9
:1011400010BD0000002401400010024000100140CA
:10115000000C014070B504460CB9012070BD94F834
:10116000200010B9204600F0AFF82068006840F079
:1011700001002168086000F0B7FA05460DE000F0B4
:10118000B3FA401B0A2808D9606A40F40030606254
:10119000052084F820000120E0E72068406800F086
:1011A00001000028EBD02068006820F002002168D0
:1011B000086000F099FA05460DE000F095FA401B32
:1011C0000A2808D9606A40F400306062052084F87B
:1011D00020000120C2E72068406800F002000028DB
:1011E000EBD1207E012806D12068006840F0800005
:1011F0002168086005E02068006820F08000216810
:101200000860607E012806D12068006840F0400038
:101210002168086005E02068006820F0400021682F
:101220000860A07E012806D12068006840F02000F8
:101230002168086005E02068006820F0200021682F
:101240000860E07E012806D12068006820F01000C8
:101250002168086005E02068006840F010002168FF
:101260000860207F012806D12068006840F008004F
:101270002168086005E02068006820F00800216807
:101280000860607F012806D12068006840F00400F3
:101290002168086005E02068006820F004002168EB
:1012A0000860D4E9020108432169084361690843E1
:1012B0006168491E08432168C861002060620120FE
:1012C00084F82000002049E710B586B004460020CD
:1012D00002900390049005901E492068884237D1FF
:1012E00000BF1D48C06940F000701B49C861084636
:1012F000C06900F00070019000BF00BF00BF084649
:10130000806940F0200088610846806900F0200074
:10131000019000BF00BF01200290002003900490C4
:1013200002A90E4800F032F8022002900390032038
:10133000059002A9094800F029F800BF084948684B
:1013400020F4C04040F0E06040F4C040486000BF7E
:1013500006B010BD006400400010024000140140BF
:101360000000014070B5044600F0BEF9064625466F
:10137000681C10B104480078054400BF00F0B4F9BF
:10138000801BA842FAD370BD080000202DE9F84761
:10139000024600239C467BE14FF0010808FA03F463
:1013A000D1F8008008EA0400A0427DD1DFF8F4A261
:1013B000D1F80480A8EB0A09D0453AD014DCB8F182
:1013C000030F50D009DCB8F1000F31D0B8F1010F94
:1013D0001CD0B8F1020F49D120E0B8F1110F18D09C
:1013E000B8F1120F42D11EE0B9F5881F25D006DCF6
:1013F000B9F5803F20D0B9F5801F37D11AE0B9F593
:10140000001F18D0B9F5041F30D117E0D1F80CC077
:101410002DE0D1F80C8008F1040C28E0D1F80C8004
:1014200008F1080C23E0D1F80C8008F10C0C1EE048
:1014300000BF00BF00BF00BF00BF00BFD1F80880E1
:10144000B8F1000F02D14FF0040C0BE0D1F8088086
:10145000B8F1010F03D14FF0080C146102E04FF016
:10146000080C546103E04FF0000C00E000BF00BF27
:10147000FF2801D8904601E002F104084646FF2803
:1014800002D84FEA830803E0A3F108084FEA88086E
:101490004746D6F800804FF00F0909FA07F928EA05
:1014A00009080CFA07F900E07AE048EA0908C6F8EA
:1014B0000080D1F8048008F08058B8F1805F6FD1C7
:1014C00000BFDFF8E481D8F8188048F00108DFF8A1
:1014D000D891C9F81880C846D8F8188008F00108D3
:1014E000CDF8008000BF00BF4FEAB9384FEA93093A
:1014F00058F829504FEA83784FEA18794FF00F08CF
:1015000008FA09F825EA0805DFF8A081424502D16A
:101510004FF0000824E0DFF89881424502D14FF0F7
:1015200001081DE0DFF88C81424502D14FF002082E
:1015300016E0DFF88481424502D14FF003080FE046
:10154000DFF87881424502D14FF0040808E0DFF867
:101550007081424502D14FF0050801E04FF00608C6
:101560004FEA83794FEA197908FA09F848EA05053C
:10157000DFF850814FEA930948F82950D1F80480E8
:1015800008F48018B8F5801F0BD1DFF83C81D8F83B
:10159000008048EA0008DFF83091C9F800800AE0CE
:1015A00075E0DFF82481D8F8008028EA0008DFF829
:1015B0001891C9F80080D1F8048008F40018B8F533
:1015C000001F0ED1DFF8008108F10408D8F8008070
:1015D00048EA0008DFF8F09009F10409C9F8008032
:1015E0000DE0DFF8E48008F10408D8F8008028EA6C
:1015F0000008DFF8D49009F10409C9F80080D1F897
:10160000048008F40038B8F5003F0ED1DFF8B88048
:10161000A8F10408D8F8008048EA0008DFF8A8908C
:10162000A9F10409C9F800800DE0DFF89C80A8F159
:101630000408D8F8008028EA0008DFF88C90A9F1A7
:101640000409C9F80080D1F8048008F48038B8F59E
:10165000803F0ED1DFF87080A8F10808D8F800802C
:1016600048EA0008DFF86090A9F10809C9F800808D
:101670000DE0DFF85480A8F10808D8F8008028EAC7
:101680000008DFF84490A9F10809C9F800805B1C44
:10169000D1F8008028FA03F8B8F1000F7FF47CAE8F
:1016A000BDE8F8870000111000100240000801405A
:1016B000000C0140001001400014014000180140DE
:1016C000001C0140080001400804014002469368E4
:1016D0000B400BB1012000E0002070470AB101610E
:1016E00001E00B0403617047014800687047000087
:1016F00000000020034800680349097808440149B4
:1017000008607047000000200800002010B508485D
:10171000006840F0100006490860032000F0A8F8B7
:101720000F2000F007F800F02BF8002010BD00009B
:101730000020024070B504460E4800784FF47A71DC
:10174000B1FBF0F00C490968B1FBF0F5284600F058
:101750002BFE08B1012070BD102C07D200222146BB
:10176000501E00F047F80548046001E00120F2E750
:101770000020F0E7080000200C00002004000020FA
:1017800008B500BF1148806940F001000F49886129
:101790000846806900F00100009000BF00BF00BF54
:1017A0000846C06940F08050C8610846C06900F032
:1017B0008050009000BF00BF00BF0549486820F07E
:1017C000E06040F00070486000BF08BD00100240BB
:1017D0000000014001460846002809DB00F01F0315
:1017E00001229A4043099B0003F1E023C3F8002142
:1017F00000BF70472DE9F05F80460D461646002772
:1018000002F0A8FF074639462A46334601F0070092
:10181000C0F1070ABAF1040F02D94FF0040A01E03F
:10182000C0F1070AD14600F1040ABAF1070F02D24B
:101830004FF0000A01E0A0F1030AD4464FF0010A7C
:101840000AFA09FAAAF1010A0AEA020A0AFA0CFAE1
:101850004FF0010B0BFA0CFBABF1010B0BEA030B86
:101860004AEA0B042146404602F07CFFBDE8F09FA7
:1018700000BF00F00702064B19684FF6FF0319403E
:10188000044B0B4343EA0221014B196000BF704730
:101890000CED00E00000FA0530B585B0044614B93F
:1018A000012005B030BD94F8A90228B9002084F8C1
:1018B000A802204600F096F8032084F8A9022068C8
:1018C00002F0BFFE142204F110016846FEF78DFC01
:1018D00094E80F0002F0A3FE20B1022084F8A902D0
:1018E0000120DEE70021206802F0B5FE00252AE095
:1018F000012105EB850204F1280000EBC2004170D4
:1019000005EB850104F1280000F83150002105EBBA
:10191000850200EBC200C17005EB850204F12800CE
:1019200000EBC200016105EB850204F1280000EB29
:10193000C200416105EB850204F1280000EBC20002
:101940008161681CC5B26068A842D1D800252AE030
:10195000002105EB850204F5B47000EBC200417074
:1019600005EB850104F5B47000F83150002105EB5A
:10197000850200EBC200C17005EB850204F5B4706E
:1019800000EBC200016105EB850204F5B47000EBC9
:10199000C200416105EB850204F5B47000EBC200A2
:1019A0008161681CC5B26068A842D1D8142204F1D4
:1019B00010016846FEF719FC94E80F0002F036FEAD
:1019C00020B1022084F8A90201206AE7002084F8EF
:1019D0002400012084F8A902206802F024FE0020DF
:1019E0005FE7000008B5094A016891420DD100BFC8
:1019F0000749C96941F40001054AD1611146C96925
:101A000001F40001009100BF00BF08BD005C004070
:101A100000100240F8B5044600260025207800F0AA
:101A2000010000286BD000274348C06900F08050B7
:101A300070B900BF4048C06940F080503E49C8615D
:101A40000846C06900F08050009000BF00BF012729
:101A50003A48006800F48070B0B93848006840F433
:101A6000807036490860FFF73FFE064606E0FFF744
:101A70003BFE801B642801D90320F8BD2F48006875
:101A800000F480700028F2D02B48006A00F4407502
:101A90002DB3A08800F44070A84220D02648006AE8
:101AA00020F4407501202649086000200860224883
:101AB000056205F0010090B1FFF716FE064608E04A
:101AC000FFF712FE801B41F28831884201D90320C2
:101AD000D3E71948006A00F002000028F0D0164849
:101AE000006A20F440706168084313490862012FBE
:101AF00004D10846C06920F08050C86100BF20783A
:101B000000F00200022807D10B48406820F4404052
:101B1000A168084308494860207800F010001028A8
:101B200007D10548406820F48000616908430249F4
:101B300048600020A1E70000001002400070004053
:101B40004004424270B504460D460CB9012070BDF8
:101B50005A48006800F00700A8420ED257480068B3
:101B600020F007002843554908600846006800F047
:101B70000700A84201D00120E9E7207800F0020028
:101B800002281DD1207800F00400042805D14C481B
:101B9000406840F4E0604A494860207800F008005E
:101BA000082805D14648406840F4605044494860E0
:101BB0004348406820F0F000A1680843404948606D
:101BC000207800F0010078B36068012806D13C4815
:101BD000006800F4003090B90120B8E7606802287E
:101BE00006D13748006800F0007040B90120AEE728
:101BF0003348006800F0020008B90120A7E7304828
:101C0000406820F00300616808432D494860FFF7F1
:101C10006BFD064609E0FFF767FD801B41F2883146
:101C2000884202D9032092E707E02548406800F087
:101C30000C006168B0EB810FEDD12048006800F026
:101C40000700A8420ED91D48006820F0070028436D
:101C50001A4908600846006800F00700A84201D051
:101C6000012074E7207800F00400042807D114480C
:101C7000406820F4E060E16808431149486020783A
:101C800000F00800082808D10D48406820F4605092
:101C9000216940EAC1000A49486000F03FF808495C
:101CA0004968C1F30311074A515CC84006490860FE
:101CB00006480068FFF73EFD002048E7002002408C
:101CC00000100240367300080C00002004000020C1
:101CD00001480068704700000C00002000B5FFF7C5
:101CE000F7FF04494968C1F30221034A515CC84027
:101CF00000BD0000001002404673000800B5FFF769
:101D0000E7FF04494968C1F3C221034A515CC84056
:101D100000BD0000001002404673000870B50021AD
:101D20000022002400230020134D696801F00C05F7
:101D3000F5B1042D02D0082D19D101E00F4819E0AA
:101D40000F4DC1F38346AB5D01F4803555B10A4DAB
:101D50006D68C5F340450B4E725D084D5D43B5FBA4
:101D6000F2F402E0084D03FB05F4204602E000BF58
:101D7000024800BF00BF70BD0010024000127A0090
:101D8000247300083473000800093D00F8B50446C8
:101D90000CB90120F8BD207800F00100002878D0AF
:101DA000F848406800F00C0004280CD0F548406862
:101DB00000F00C00082811D1F248406800F480308F
:101DC000B0F5803F0AD1EF48006800F400300028E9
:101DD0005FD0606800285CD10120DBE700BF60684D
:101DE000B0F5803F06D1E748006840F48030E5490F
:101DF000086028E0606858B9E248006820F4803044
:101E0000E04908600846006820F4802008601AE075
:101E10006068B0F5A02F0BD1DA48006840F480204C
:101E2000D84908600846006840F4803008600AE03D
:101E3000D448006820F48030D24908600846006821
:101E400020F48020086000BF606888B1FFF74CFC78
:101E5000054606E0FFF748FC401B642801D9032033
:101E600098E7C848006800F400300028F2D010E07D
:101E7000FFF73AFC054606E0FFF736FC401B6428F6
:101E800001D9032086E7BF48006800F4003000282D
:101E9000F2D1207800F00200022857D1B9484068FA
:101EA00000F00C0050B1B748406800F00C00082862
:101EB00018D1B448406800F4803098B9B14800683F
:101EC00000F0020020B12069012801D0012061E763
:101ED000AC48006820F0F800616940EAC100A949F7
:101EE000086033E02069E8B10120A7490860FFF7E6
:101EF000FBFB054606E0FFF7F7FB401B022801D974
:101F0000032047E79F48006800F002000028F2D055
:101F10009C48006820F0F800616940EAC1009949D6
:101F2000086013E0002098490860FFF7DDFB0546D4
:101F300006E0FFF7D9FB401B022801D9032029E75F
:101F40009048006800F002000028F2D1207800F0EC
:101F5000080008282DD1A069B8B101208B4908607C
:101F6000FFF7C2FB054606E0FFF7BEFB401B022859
:101F700001D903200EE78348406A00F002000028E0
:101F8000F2D0012002F08CF813E000207F490860B5
:101F9000FFF7AAFB054606E0FFF7A6FB401B022859
:101FA00001D90320F6E67748406A00F002000028D5
:101FB000F2D1207800F00400042873D10027714882
:101FC000C06900F0805070B900BF6E48C06940F031
:101FD00080506C49C8610846C06900F0805000908C
:101FE00000BF00BF01276A48006800F48070B0B9E4
:101FF0006748006840F4807065490860FFF774FB2B
:10200000054606E0FFF770FB401B642801D903205A
:10201000C0E65F48006800F480700028F2D000BF7E
:10202000E068012806D15748006A40F00100554990
:10203000086227E0E06858B95248006A20F00100C1
:10204000504908620846006A20F00400086219E05E
:10205000E06805280BD14B48006A40F0040049496C
:1020600008620846006A40F0010008620AE045483C
:10207000006A20F00100434908620846006A20F027
:102080000400086200BFE068A0B1FFF72DFB054621
:1020900009E0FFF729FB401B41F28831884202D951
:1020A000032077E622E03748006A00F002000028AB
:1020B000EFD012E0FFF718FB054608E0FFF714FB2E
:1020C000401B41F28831884201D9032062E62D4845
:1020D000006A00F002000028F0D1012F05D1294844
:1020E000C06920F080502749C86100BFE069C8B3CB
:1020F0002448406800F00C00082860D0E0690228FD
:1021000048D1002020490866FFF7EEFA054606E0B0
:10211000FFF7EAFA401B022801D903203AE61948E2
:10212000006800F000700028F2D1206AB0F5803F0E
:1021300007D11448406820F40030A16808431149D1
:102140004860D4E9080108430E49496821F4741134
:1021500008430C49486001200B490866FFF7C4FAA0
:10216000054607E03DE0FFF7BFFA401B022801D912
:1021700003200FE60348006800F000700028F2D04A
:102180002FE0000000100240000042428004424262
:1021900000700040002014490866FFF7A5FA0546C4
:1021A00006E0FFF7A1FA401B022801D90320F1E560
:1021B0000E48006800F000700028F2D111E0E069DC
:1021C000012800D1E6E50948466806F48031206A16
:1021D000814204D106F47011606A814201D001206D
:1021E000D8E50020D6E50000000042420010024081
:1021F00010B504460CB9012010BD606A38B960689A
:10220000B0F5827F00D105E00021E16102E000210C
:10221000216161610021A16294F8510028B9002078
:1022200084F85000204600F043F8022084F8510062
:102230002068006820F0400021680860A08800F451
:102240008270218901F404410843A18901F40061ED
:102250000843217C01F002010843217D01F00101C6
:102260000843218B01F400710843217F01F03801FC
:1022700008432021095D01F080010843218D01F40C
:1022800000510843216808600421A06901EA104058
:10229000216848602068C06920F400602168C86136
:1022A00000206065012084F851000020A4E70000B0
:1022B00010B586B00446002002900390049005906B
:1022C0003449206888422ED100BF3348806940F4E9
:1022D0008050314988610846806900F4805001903F
:1022E00000BF00BF00BF0846806940F0040088615D
:1022F0000846806900F00400019000BF00BFB020D4
:102300000290022003900320059002A92348FFF7C2
:102310003DF84020029000200390049002A91F483D
:10232000FFF734F833E01E49206888422FD100BF00
:102330001948C06940F480401749C8610846C0691F
:1023400000F48040019000BF00BF00BF08468069D4
:1023500040F0080088610846806900F0080001909C
:1023600000BF00BF4FF420400290022003900320E2
:10237000059002A90B48FFF709F84FF4804002903E
:1023800000200390049002A90648FEF7FFFF06B064
:1023900010BD000000300140001002400008014064
:1023A00000380040000C014070B504462546681E08
:1023B000B0F1807F01D301200FE0681E4FF0E021D3
:1023C00048610F214FF0FF3002F0CCF900204FF0B0
:1023D000E021886107200861002070BD70477047C8
:1023E00030B502460B4600BF92F83C00012801D1EF
:1023F000022030BD012082F83C0000BF022082F89C
:102400003D00106844681068816824F07004186802
:10241000044310684460144D1068A84213D0134D53
:102420001068A8420FD01068B0F1804F0BD0104D4B
:102430001068A84207D00F4D1068A84203D00E4D77
:102440001068A84205D121F0800158680143106846
:102450008160012082F83D0000BF002082F83C002E
:1024600000BF00BFC5E70000002C01400034014060
:102470000004004000080040000C004010B5044675
:102480000CB9012010BD94F83D0028B9002084F853
:102490003C00204600F026F8022084F83D00211D73
:1024A000206801F0CBFE012084F8460000BF84F8CC
:1024B0003E0001213F20015540200155412001559A
:1024C00000BF00BF012084F8420043200155442092
:1024D00001554520015500BF012084F83D00002032
:1024E000D0E7000038B504460D492068884215D170
:1024F00000BF0C48C06940F010000A49C861084696
:10250000C06900F01000009000BF00BF002211461B
:102510003620FFF76FF93620FFF75CF938BD000071
:1025200000100040001002402DE9F04104460D4625
:1025300014B90120BDE8F08194F83D0028B90020CD
:1025400084F83C00204600F051F8022084F83D0059
:102550002068806844F20701884321688860211D53
:10256000206801F06BFE2068D0F80880206886693A
:102570002068076A286840EA080840F2033086436A
:10258000A969A86840EA0120064340F60C4086434A
:102590004FF2F0008643E969E86840EA012006430B
:1025A00028690001296A40EA0130064327F0220722
:1025B0006969686840EA011007432068C0F808802C
:1025C0002068866120680762012084F8460084F84C
:1025D0003E0001213F200155012084F842004320A4
:1025E0000155012084F83D000020A3E710B586B016
:1025F0000446002002900390049005906D492068E5
:1026000088422FD100BF6C48806940F400606A495D
:1026100088610846806900F40060019000BF00BF37
:1026200000BF0846806940F0400088610846806924
:1026300000F04000019000BF00BF4FF42060029006
:1026400000200390049002A95C48FEF79FFE00BFA3
:102650005B49486820F0C00040F0E06040F0C000F6
:102660004860A4E02068B0F1804F45D100BF5248D7
:10267000C06940F001005049C8610846C06900F0D7
:102680000100019000BF00BF00BF0846806940F014
:10269000040088610846806900F00400019000BFD2
:1026A00000BF00BF0846806940F008008861084606
:1026B000806900F00800019000BF00BF4FF40040A7
:1026C000029000200390049002A93E48FEF75EFEAF
:1026D0000820029000200390049002A93A48FEF7D7
:1026E00055FE00BF3649486820F4407040F0E06075
:1026F00040F4807048605AE03449206888422ED106
:1027000000BF2D48C06940F002002B49C86108464F
:10271000C06900F00200019000BF00BF00BF084682
:10272000806940F0080088610846806900F0080070
:10273000019000BF00BF3020029000200390049061
:1027400002A92148FEF722FE00BF1D49486820F477
:10275000406040F0E06040F40060486027E01C49C1
:102760002068884223D100BF1348806940F400509C
:10277000114988610846806900F40050019000BF4B
:1027800000BF00BF0846806940F01000886108461D
:10279000806900F01000019000BF00BFC0200290CF
:1027A00000200390049002A90A48FEF7EFFD06B04E
:1027B00010BD0000002C0140001002400018014034
:1027C0000000014000080140000C014000040040EE
:1027D0000034014000100140704710B504462068E5
:1027E0000069C0F34000D8B12068C068C0F3400061
:1027F000B0B16FF0020021680861012020772068E5
:10280000806900F0030018B12046FFF7E5FF05E0FE
:10281000204600F003F9204600F0E2F9002020777E
:1028200020680069C0F38000D8B12068C068C0F398
:102830008000B0B16FF004002168086102202077A9
:102840002068806900F4407018B12046FFF7C4FF8B
:1028500005E0204600F0E2F8204600F0C1F9002033
:10286000207720680069C0F3C000D8B12068C06834
:10287000C0F3C000B0B16FF0080021680861042007
:1028800020772068C06900F0030018B12046FFF7E8
:10289000A3FF05E0204600F0C1F8204600F0A0F9B3
:1028A0000020207720680069C0F30010D8B12068AC
:1028B000C068C0F30010B0B16FF01000216808616B
:1028C000082020772068C06900F4407018B12046C5
:1028D000FFF782FF05E0204600F0A0F8204600F058
:1028E0007FF9002020772068006900F0010058B1CE
:1028F0002068C06800F0010030B16FF0010021686D
:102900000861204600F06EF920680069C0F3C0102D
:1029100058B12068C068C0F3C01030B16FF08000BB
:10292000216808612046FFF759FD20680069C0F35F
:10293000801058B12068C068C0F3801030B16FF0CB
:10294000400021680861204600F05EF920680069B7
:10295000C0F3401058B12068C068C0F3401030B1D7
:102960006FF02000216808612046FFF738FD10BD98
:1029700010B586B0044600200290039004900590A4
:102980002049206888421FD100BF1F48806940F05D
:1029900020001D4988610846806900F020000190F0
:1029A00000BF00BF8814029002200390059002A986
:1029B0001648FEF7EBFC00BF1549486840F0E060A0
:1029C00040F4805048601AE012492068884216D1CD
:1029D00000BF0D48806940F004000B49886108463B
:1029E000806900F00400019000BF00BF0F2002903A
:1029F00002200390059002A90748FEF7C7FC06B025
:102A000010BD00000008004000100240001401400A
:102A100000000140000C00400008014070472DE913
:102A2000F04104460D461646002700BF94F83C00CE
:102A3000012802D10220BDE8F081012084F83C0089
:102A400000BF36B1042E1BD0082E31D00C2E5ED123
:102A500045E02946206801F03FFC2068806940F08D
:102A60000800216888612068806920F004002168DE
:102A7000886120688069296908432168886148E085
:102A80002946206801F060FC2068806940F40060FD
:102A9000216888612068806920F4806021688861ED
:102AA00020688069296940EA01202168886130E056
:102AB0002946206801F086FC2068C06940F00800C3
:102AC0002168C8612068C06920F004002168C861DD
:102AD0002068C069296908432168C86119E029464E
:102AE000206801F0ABFC2068C06940F400602168F8
:102AF000C8612068C06920F480602168C8612068CE
:102B0000C069296940EA01202168C86101E0012704
:102B100000BF00BF00BF002084F83C0000BF384663
:102B200089E710B504460CB9012010BD94F83D00AA
:102B300028B9002084F83C00204600F025F8022047
:102B400084F83D00211D206801F078FB012084F805
:102B5000460000BF84F83E0001213F20015540207F
:102B600001554120015500BF00BF012084F84200FB
:102B700043200155442001554520015500BF012047
:102B800084F83D000020D0E708B5124A0168914260
:102B90000DD100BF1049C96941F004010E4AD1614D
:102BA0001146C96901F00401009100BF11E00B4A10
:102BB000016891420DD100BF0749C96941F0080180
:102BC000054AD1611146C96901F00801009100BFB1
:102BD00000BF08BD0008004000100240000C00408B
:102BE0007047000010B5044606492068096888420D
:102BF00007D1FDF787FF01F0F9F8FEF747F8FEF778
:102C000027F810BD20030020704710B504460CB90A
:102C1000012010BDA06900B100E000BF94F84100A0
:102C200028B9002084F84000204600F029F824202C
:102C300084F841002068C06820F400502168C86012
:102C4000204601F025FC2068006920F490402168AE
:102C500008612068406920F02A00216848612068E6
:102C6000C06840F400502168C860002060642020E3
:102C700084F8410084F842000020606300BFC8E788
:102C800010B586B004460020029003900490059091
:102C90009149206888422FD100BF9048C06940F414
:102CA00000208E49C8610846C06900F400200190E8
:102CB00000BF00BF00BF0846806940F01000886177
:102CC0000846806900F01000019000BF00BF0815A1
:102CD0000290022003900320059002A98048FEF78D
:102CE00055FB4FF40060029000200390049002A96D
:102CF0007B48FEF74BFBECE07A49206888423BD1E9
:102D000000BF7648C06940F480107449C861084625
:102D1000C06900F48010019000BF00BF00BF0846EA
:102D2000806940F0100088610846806900F010005A
:102D3000019000BF00BF00BF0846806940F020003E
:102D400088610846806900F02000019000BF00BF44
:102D500088140290022003900320059002A9604885
:102D6000FEF714FB0420029000200390049002A9B7
:102D70005D48FEF70BFBACE05C49206888422FD130
:102D800000BF5648806940F4804054498861084635
:102D9000806900F48040019000BF00BF00BF08467A
:102DA000806940F0040088610846806900F00400F2
:102DB000019000BF00BF481502900220039003203D
:102DC000059002A94A48FEF7E1FA4FF480600290AC
:102DD00000200390049002A94548FEF7D7FA78E056
:102DE00044492068884236D100BF3C48C06940F45D
:102DF00000303A49C8610846C06900F400300190CB
:102E000000BF00BF00BF0846806940F02000886115
:102E10000846806900F02000019000BF00BF20201C
:102E20000290022003900320059002A92E48FEF78D
:102E3000ADFA4020029000200390049002A92A4895
:102E4000FEF7A4FA00BF2C49486840F0E06040F06B
:102E5000080048603DE029492068884239D100BF18
:102E60001E48C06940F480201C49C8610846C069FA
:102E700000F48020019000BF00BF00BF08468069B9
:102E800040F0200088610846806900F02000019031
:102E900000BF00BF88150290022003900320059018
:102EA00002A91148FEF772FA4FF400700290002058
:102EB0000390049002A90C48FEF768FA00BF0E497F
:102EC000486820F0300040F0E06040F0300048609A
:102ED00000BF06B010BD0000004C004000100240D2
:102EE0000010014000500040001401400038014033
:102EF000000801400044004000000140004800403C
:102F00002DE9F84F04460E46174699464FF0000A41
:102F100094F8410020284AD106B117B90120BDE834
:102F2000F88F00206064212084F84100FEF7DCFB6C
:102F30008246A784E784A068B0F5805F04D1206949
:102F400010B90025B04602E035464FF000081BE0FE
:102F50005346002280212046CDF8009001F016FB58
:102F600008B10320DBE745B9B8F80000C0F308005A
:102F70002168486008F1020803E028782168486069
:102F80006D1CE08C401EE084E08C0028E0D15346AC
:102F9000002240212046CDF8009001F0F7FA08B158
:102FA0000320BCE7202084F841000020B7E702207E
:102FB000B5E700BFFEE7000010B501F085F801F0AD
:102FC0009FF8012240210448FEF788FB012280215E
:102FD0000148FEF783FB10BD000C014070B50446AC
:102FE00001F08EF8002240211048FEF777FB002503
:102FF00018E0E20980210D48FEF770FB6006040E20
:10300000052001F0E1FF012240210848FEF766FBA0
:10301000052001F0D9FF002240210448FEF75EFBA5
:10302000681CC5B2082DE4DB70BD0000000C014037
:1030300010B501F065F8012280210C48FEF74EFB27
:10304000012240210948FEF749FB042001F0BCFFA2
:10305000002280210548FEF741FB042001F0B4FF67
:10306000002240210148FEF739FB10BD000C014051
:1030700010B501F045F8002240210C48FEF72EFB68
:10308000002280210948FEF729FB042001F09CFF63
:10309000012240210548FEF721FB0122802103483F
:1030A000FEF71CFB042001F08FFF10BD000C014057
:1030B00010B5002401F016F8012280211148FEF716
:1030C0000DFB012001F080FF012240210D48FEF799
:1030D00005FB012001F078FF07E0601CC4B2FA2C68
:1030E00003DDFFF7C5FF012010BD80210548FEF775
:1030F000EDFA0028F1D1002240210248FEF7EEFA55
:103100000020F1E7000C01402DE9F04F99B0044692
:103110000D4616464FF07E574FF000084FF000095D
:103120004FF0000A12A813A918AB0EAACDE900109F
:1031300014A916A802F002F918B1012019B0BDE8CF
:10314000F08FBDF84C0000F4807000287ED00E98FF
:10315000FDF7B6F983464FF09D41FDF701F90746AB
:103160000F98FDF7ADF983464FF09D41FDF7F8F854
:1031700080461098FDF7A4F983464FF09D41FDF776
:10318000EFF881461198FDF79BF983464FF09D417A
:10319000FDF7E6F8824639464FF08040FDF7AEF87D
:1031A00049460590FDF7AAF8414607904FF0404088
:1031B000FDF7A4F851460590FDF7A0F80690079991
:1031C000FDF744F88346FDF7B6F9CDE9080101F0B3
:1031D000C1FB4FF06632544BCDE90A01FDF7FEF812
:1031E000CDE90C01FDF7BAF9206049464FF0804067
:1031F000FDF784F849460290FDF780F841460490B7
:103200004FF04040FDF77AF841460290FDF776F81E
:1032100003900499FDF76CF883464FF07E51FDF75B
:1032200015F80590FDF787F9CDE9080139464FF00B
:103230008040FDF763F841460390FDF75FF849468B
:1032400004904FF08040FDF759F800E068E05146E7
:103250000390FDF753F883460499FCF7F7FF0590B8
:10326000FDF769F9CDE90601DDE9082301F0BAFDB2
:103270004FF066322C4BCDE90A01FDF7AFF8CDE9EE
:103280000C01FDF76BF9286051465046FDF736F802
:10329000494604904846FDF731F8414603904046C0
:1032A000FDF72CF8394601903846FDF727F80090D5
:1032B0000199FCF7CBFF02900399FDF719F88346BB
:1032C0000499FDF715F80590FDF735F9CDE90801EA
:1032D00051463846FDF712F8494604904046FDF73E
:1032E0000DF803900499FCF7B1FF4FF08041059071
:1032F000FDF704F88346FDF71EF9CDE90601DDE987
:10330000082301F06FFD4FF06632074BCDE90A014B
:10331000FDF764F8CDE90C01FDF720F9306001E01C
:1033200002200BE7002009E766A64C402DE9F0419A
:1033300005460E4617469846FFF77AFE002141EAF9
:103340004501C8B2FFF74AFEFFF7B2FE20B1FFF712
:103350008FFE0120BDE8F0813046FFF73FFEFFF70A
:10336000A7FE00240CE018F80400FFF737FEFFF773
:103370009FFE18B1FFF77CFE0120EBE7601CC4B292
:10338000BC42F0DBFFF774FE0020E3E72DE9FC41CF
:103390000024FFF711FE684603F0CCF8002851D155
:1033A000782003F05FFEC4B214B10120BDE8FC81B7
:1033B000782002F0ADFFC4B20CB10220F6E7642021
:1033C00003F002FEC4B20CB10320EFE701F0AAFF44
:1033D000C4B20CB10420E9E71B4D284602F032FFCD
:1033E0000646E81C02F02EFF46EAC00086B2A81D81
:1033F00002F028FF46EA801086B200BF3746384602
:1034000002F0ECF9C4B20CB10520CFE740F2731022
:1034100001F030FEC4B20CB10620C7E7642002F010
:103420000DF9C4B20CB10720C0E703F0C3FE044697
:103430000CB10820BAE7012003F0C2FCC4B20CB101
:103440000920B3E70020B1E7720000200EB500208C
:103450000090019002901248124908600021114822
:103460008160017301754FF46021C16100200D4935
:10347000486001210B480161FDF76EFD08B1FDF7C1
:10348000B7FC0820009001200190002002906946BE
:103490000448FDF7B1FC08B1FDF7AAFC0EBD000021
:1034A00000240140B000002010B50B480B49086013
:1034B00010204860002109488160C16001614161BC
:1034C000017641768176C17601774177FDF742FE3C
:1034D00008B1FDF78DFC10BD00640040E000002045
:1034E00000B585B00020019002900390049000BFC9
:1034F0006448806940F040006249886108468069FC
:1035000000F04000009000BF00BF00BF0846806987
:1035100040F0800088610846806900F080000090DB
:1035200000BF00BF00BF0846806940F010008861FE
:103530000846806900F01000009000BF00BF00BF87
:103540000846806940F0040088610846806900F000
:103550000400009000BF00BF00BF0846806940F033
:10356000080088610846806900F00800009000BFEC
:1035700000BF00BF0846806940F02000886108460F
:10358000806900F02000009000BF00BF00BF084627
:10359000806940F4807088610846806900F480701A
:1035A000009000BF00BF002274213748FEF796F854
:1035B000012208213448FEF791F800223F213348C8
:1035C000FEF78CF800224FF4FE413148FEF786F8F2
:1035D000002218212F48FEF781F8042001900120D5
:1035E0000290022003900320049001A92648FDF7D1
:1035F000CDFE0820019001200290002003900320BE
:10360000049001A92048FDF7C1FE7020019001201F
:103610000290002003900220049001A91A48FDF7AF
:10362000B5FE3F200190012002900020039002206F
:10363000049001A91548FDF7A9FE4FF4F860019028
:1036400000200290039001A91048FDF79FFE4FF45F
:10365000FE4001900120029000200390022004907F
:1036600001A90B48FDF792FE18200190012002905D
:10367000002003900220049001A90648FDF786FE71
:1036800005B000BD0010024000180140001C0140C0
:10369000002001400014014010B50E480E4908609A
:1036A0004FF48270486000210B488160C160016165
:1036B00041614FF4802181612821C16100210162B3
:1036C000416281620A21C162FEF792FD08B1FDF7F5
:1036D0008FFB10BD003001400801002010B50E48DE
:1036E0000E4908604FF48270486000210B488160E9
:1036F000C160016141614FF4007181610021C161CC
:103700000162416281620A21C162FEF771FD08B166
:10371000FDF76EFB10BD0000003800406001002086
:1037200000B58BB0242102A8FCF778FD00200090A2
:103730000190184818490860002048600021164888
:10374000816044F61F61C1600021016141618161B6
:103750000320029000200390012004900020059097
:103760000690079001200890002009900A9002A975
:103770000948FEF7D9FE08B1FDF73AFB002000909A
:10378000019069460448FEF72BFE08B1FDF730FBB7
:103790000BB000BD002C0140B801002000B58BB07B
:1037A000242102A8FCF73AFD0020009001904FF080
:1037B000804017490860002048600021144881605B
:1037C00044F61F61C1600021016181610320029004
:1037D000002003900120049000200590069007909F
:1037E00001200890002009900A9002A90848FEF7DD
:1037F0009BFE08B1FDF7FCFA00200090019069469D
:103800000348FEF7EDFD08B1FDF7F2FA0BB000BD7D
:103810000002002000B58BB0242102A8FCF7FEFCBA
:103820000020009001901848184908600020486066
:1038300000211648816044F61F61C16000210161CA
:103840008161032002900020039001200490002059
:1038500005900690079001200890002009900A909A
:1038600002A90A48FEF760FE08B1FDF7C1FA002080
:103870000090019069460548FEF7B2FD08B1FDF7DA
:10388000B7FA0BB000BD0000000400404802002061
:1038900000B589B00020079008901C216846FCF70D
:1038A000BDFC1848184908600020486000211648EF
:1038B00081604FF6FF71C160002101618161FFF7F6
:1038C00030F908B1FDF794FA00200790089007A995
:1038D0000D48FEF785FD08B1FDF78AFA60200090DB
:1038E0000020019002900490002269460648FFF7EC
:1038F00096F808B1FDF77CFA0348FFF739F809B0EC
:1039000000BD0000000800409002002000B589B012
:103910000020079008901C216846FCF77FFC244893
:10392000244908604720486000212248816042F213
:103930000F71C160002101618161FFF7F2F808B1E8
:10394000FDF756FA00200790089007A91948FEF7DE
:1039500047FD08B1FDF74CFA60200090002001906F
:1039600002900490002269461248FFF758F808B107
:10397000FDF73EFA042269460E48FFF750F808B1F9
:10398000FDF736FA082269460A48FFF748F808B1F9
:10399000FDF72EFA0C2269460648FFF740F808B1F9
:1039A000FDF726FA0348FEF7E3FF09B000BD00006B
:1039B000000C0040D80200201CB5002000900190AF
:1039C0000E480F4908604720486000210C4881607C
:1039D00042F20F71C16000218161FEF74FFD08B115
:1039E000FDF706FA00200090019069460448FEF7B2
:1039F000F7FC08B1FDF7FCF91CBD00000010004009
:103A00002003002000B58BB0242102A8FCF706FC9F
:103A10000020009001901848184908600020486074
:103A200000211648816044F61F61C16000210161D8
:103A300041618161032002900020039001200490E5
:103A40000020059006900790012008900020099022
:103A50000A9002A90948FEF767FD08B1FDF7C8F909
:103A600000200090019069460448FEF7B9FC08B1B7
:103A7000FDF7BEF90BB000BD003401406803002023
:103A800010B50B480B4908604FF4E1304860002145
:103A900008488160C16001610C21416100218161A0
:103AA000C161FFF7B2F808B1FDF7A2F910BD00003F
:103AB000004C0040B003002010B50B480B490860D3
:103AC0004FF4E1304860002108488160C160016125
:103AD0000C21416100218161C161FFF796F808B1B5
:103AE000FDF786F910BD000000500040F8030020EB
:103AF00010B50B480B4908604FF4E13048600021D5
:103B000008488160C16001610C214161002181612F
:103B1000C161FFF77AF808B1FDF76AF910BD00003E
:103B2000003801404004002010B50B480B490860E4
:103B30004FF4E1304860002108488160C1600161B4
:103B40000C21416100218161C161FFF75EF808B17C
:103B5000FDF74EF910BD000000440040880400202D
:103B600010B50B480B4908604FF4E1304860002164
:103B700008488160C16001610C21416100218161BF
:103B8000C161FFF742F808B1FDF732F910BD00003E
:103B900000480040D004002010B5094809490860D9
:103BA0000820486002210748816000218161C161CD
:103BB0000162FDF771FE08B1FDF71AF910BD0000B2
:103BC000005C00401805002000BFFEE770B500242F
:103BD0001A48C26841691A48007843B217486830E9
:103BE00000F0FFF91548D0F8884000212046FCF786
:103BF000DBFC10D22046FCF78AFC124909684863B6
:103C0000002210211048FDF769FD012220210E48F5
:103C1000FDF764FD11E084F000452846FCF777FCD1
:103C2000084909684863012210210748FDF756FD3D
:103C3000002220210448FDF751FD70BD58080020E6
:103C40001A000020D80200200010014070B50024A6
:103C50001C48D0F89C20D0F8A4101B48007843B230
:103C60001848F83000F0BDF91648D0F81841002186
:103C70002046FCF799FC11D22046FCF748FC13497A
:103C800009688863012251021148FDF727FD0022CF
:103C90004FF480710E48FDF721FD12E084F00045DD
:103CA0002846FCF734FC09490968886300224FF470
:103CB00000710748FDF712FD012211020448FDF7CB
:103CC0000DFD70BD580800201A000020D802002009
:103CD0000010014070B500241C48D0F82C21D0F809
:103CE00034111B48007843B21A4800F07AF917489B
:103CF000D0F8A84100212046FCF756FC11D22046FE
:103D0000FCF705FC14490968C86300224FF4806180
:103D10001248FDF7E3FC0122D1021048FDF7DEFC5A
:103D200012E084F000452846FCF7F1FB0A490968D7
:103D3000C863012291020948FDF7D0FC00224FF42C
:103D400000610648FDF7CAFC70BD0000580800205D
:103D50001A000020E0090020D802002000200140C5
:103D600070B500241C48D0F8BC21D0F8C4111B4801
:103D7000007843B21A4800F034F91748D0F83842B6
:103D800000212046FCF710FC11D22046FCF7BFFBB7
:103D9000144909680864012251031348FDF79EFC89
:103DA00000224FF480411048FDF798FC12E084F0A7
:103DB00000452846FCF7ABFB0A4909680864002265
:103DC0004FF400510848FDF789FC01229103064891
:103DD000FDF784FC70BD0000580800201A00002088
:103DE000700A0020D8020020002001407FB53A4828
:103DF0000068406A00B2ADF8080038480068406AC0
:103E000000B2ADF80A0036480068406A00B2ADF86A
:103E10000C0034480068406A00B2ADF80E002E482D
:103E20000068C06A00B2ADF800002C480068C06AA3
:103E300000B2ADF802002A480068C06A00B2ADF8CE
:103E4000040028480068C06A00B2ADF806000025EA
:103E500000243DE03DF9140000EBD07102AA32F8D5
:103E60001420A2EB61010DB204EBC4011E4A02EB67
:103E70000111B1F908103DF9142001FB02F000EB2B
:103E8000D07105EB610104EBC402174B03EB021286
:103E9000516004EBC4011A4602EB01114868FCF7BB
:103EA0000FFB06461149FCF75BFA04EBC4010E4A0E
:103EB00002EB0111086104EBC400114601EB001094
:103EC000406804EBC40102EB01110860601C44B2BD
:103ED000042CBFDB7FBD0000B801002000020020E1
:103EE000480200206803002058080020E5F29F3EA9
:103EF000704700BFFEE770B50646002415E004F1E8
:103F0000B001C8B200F0FEFB002000F0FBFB102067
:103F100000F0F8FB002504E0304600F0F9FB681CD7
:103F2000C5B2802DF8DB601CC4B2082CE7DB70BD85
:103F300010B56420FDF716FAAE2000F0E3FB202058
:103F400000F0E0FB102000F0DDFBB02000F0DAFB19
:103F5000C82000F0D7FB002000F0D4FB102000F0B8
:103F6000D1FB402000F0CEFB812000F0CBFBFF20F6
:103F700000F0C8FBA12000F0C5FBA62000F0C2FBAA
:103F8000A82000F0BFFB3F2000F0BCFBA42000F005
:103F9000B9FBD32000F0B6FB002000F0B3FBD52026
:103FA00000F0B0FBF02000F0ADFBD92000F0AAFB40
:103FB000222000F0A7FBDA2000F0A4FB122000F082
:103FC000A1FBDB2000F09EFB202000F09BFB8D205E
:103FD00000F098FB142000F095FBAF2000F092FB5E
:103FE00010BD2DE9F04104460D4616461F46002F30
:103FF00051D0E068206131462846FCF779F9E0604D
:104000002168E068FCF77AF92062D4E90301FCF743
:104010006FF98046A168FCF771F9E0616168E068BA
:10402000FCF76CF980466169FCF710F96061A069E2
:1040300080F0004840466169FCF7B6FA03D8A069F1
:1040400080F0004007E0D4E90501FCF7ADFA01D8A3
:10405000A06900E0606960616169206AFCF7F6F8B8
:104060008046E169FCF7F2F82062606A80F000485F
:104070004046216AFCF798FA03D8606A80F0004055
:1040800007E0D4E90801FCF78FFA01D8606A00E084
:10409000206A206201E000202062BDE8F0817047C4
:1040A00008B508490968C9084FF47A72B1FBF2F102
:1040B0004143009100BF00BF00994A1E00920029B1
:1040C000F9D108BD0C0000201FB540200090012050
:1040D00001900220039069460148FDF757F91FBD82
:1040E000000C01401FB580200090002001900220AC
:1040F000039069460148FDF749F91FBD000C0140D6
:104100001FB5802000900120019002200390694695
:104110000148FDF73BF91FBD000C0140704700004E
:1041200070B50446002619492069FCF73DFA04D30E
:1041300017492069FCF72EFA01D2002070BD132523
:1041400013E0681E04F1180151F8201004F1180062
:1041500040F82510681E04F1180252F8201030466D
:10416000FCF774F80646681EC5B2002DE9DC20692C
:10417000A06130462169FCF769F8064605493046DA
:10418000FCF7EEF8E0600020D8E7000000008C4368
:1041900000008CC30000A04110B5FDF7ABFA10BDC4
:1041A00000B595B028210BA8FCF738F8142106A813
:1041B000FCF734F818216846FCF730F801200B9022
:1041C00000040C9000200D9001200F90022012900E
:1041D000C10313914FF4E01114910BA8FDF7D6FD24
:1041E00008B1FCF705FE0F20069002200790002082
:1041F00008904FF48060099000200A90022106A8E0
:10420000FDF7A0FC08B1FCF7F3FD122000904FF47D
:1042100000400290002005906846FDF7FBFB08B1C6
:10422000FCF7E6FD15B000BD7047000010B5024870
:10423000FEF7D3FA10BD00002003002010B502687D
:10424000204B98420ED0204B98420BD0B0F1804FBB
:1042500008D01E4B984205D01D4B984202D01D4BF2
:10426000984203D122F070024B681A43154B9842D2
:104270000ED0154B98420BD0B0F1804F08D0134BA5
:10428000984205D0124B984202D0124B984203D16B
:1042900022F44072CB681A4322F080034C6943EA4F
:1042A000040202608B68C3620B688362054B98420C
:1042B00002D0054B984201D10B690363012343618E
:1042C00010BD0000002C01400034014000040040FB
:1042D00000080040000C004030B5026A056A25F075
:1042E000010505624368846924F0700424F0030426
:1042F0000D682C4322F002028D682A43104DA8421B
:1043000000D103E00F4DA84206D100BF22F0080201
:10431000CD682A4322F00402094DA84202D0094D7B
:10432000A84207D123F4807323F400734D692B4313
:104330008D692B43436084614D684563026230BDE3
:10434000002C01400034014030B5026A056A25F0B6
:10435000100505624368846924F4E04424F4407441
:104360000D6844EA052422F020028D6842EA051215
:10437000124DA84200D103E0114DA84207D100BF61
:1043800022F08002CD6842EA051222F040020B4D75
:10439000A84202D00A4DA84209D123F4806323F435
:1043A00000634D6943EA85038D6943EA85034360F1
:1043B00084614D688563026230BD0000002C0140BD
:1043C0000034014030B5026A056A25F48075056243
:1043D0004368C46924F0700424F003040D682C437E
:1043E00022F400728D6842EA0522124DA84200D1E3
:1043F00003E0114DA84207D100BF22F40062CD684E
:1044000042EA052222F480620A4DA84202D00A4DF7
:10441000A84209D123F4805323F400534D6943EAA1
:1044200005138D6943EA05134360C4614D68C56394
:10443000026230BD002C01400034014030B5036AF7
:10444000056A25F4805505624468C26922F4E04299
:1044500022F440720D6842EA052223F400538D686D
:1044600043EA0533084DA84202D0084DA84204D1C2
:1044700024F480444D6944EA85144460C2614D6867
:104480000564036230BD0000002C0140003401408F
:1044900070B504462168096921F44051E26811436E
:1044A000226811612269A1681143626941EA02052B
:1044B0002168C96841F20C62914329432268D160A6
:1044C0002168496921F44071A26911432268516150
:1044D0002D4A2168914202D1FDF710FC01E0FDF761
:1044E000FDFB00EBC00101EB001162689200B1FB23
:1044F000F2F100EBC00202EB001263689B00B2FB1A
:10450000F3F26423B2FBF3F202EBC20303EB0212F9
:10451000A1EB8201322202EB01116422B1FBF2F124
:1045200001F0F00100EBC00202EB001263689B0097
:10453000B2FBF3F26423B2FBF3F201EB021200EBE5
:10454000C00101EB001163689B00B1FBF3F100EBCC
:10455000C00303EB00136668B600B3FBF6F36426F2
:10456000B3FBF6F303EBC30606EB0313A1EB8301E6
:10457000322303EB01116423B1FBF3F101F00F01CE
:1045800011442268916070BD003801402DE9F0416E
:1045900004460D4617469846069E34E0701C88B3C4
:1045A0002EB1FDF7A1F8A0EB0800B0422BD900BF57
:1045B00000BF21680C3151E8001F21F4D070216840
:1045C0000C3141E80002002AF3D100BF00BF00BF58
:1045D0002168143151E8001F21F0010021681431D5
:1045E00041E80002002AF3D100BF202084F84100F6
:1045F00084F8420000BF002084F8400000BF032080
:10460000BDE8F081FFE7206800682840A84201D19A
:10461000012000E00020B842C0D00020F0E710B533
:104620000446002010BD01460020704710B5044626
:10463000012024F8400F00202080A0802082403CF0
:1046400010BD01464FF43F42B1F840009043A1F83D
:1046500040000020704702460020704700BFFEE780
:1046600010B524490968244A1268891A234A126835
:104670008818FBF725FF224948611E4909681E4A30
:10468000126811441D4A1268881AFBF719FF1C4969
:10469000C1F8A40017490968174A12681144174A5B
:1046A00012688818FBF70CFF1549C1F8340111494D
:1046B0000968114A1268891A104A1268881AFBF7A9
:1046C000FFFE0F49C1F8C401002408E004EBC40157
:1046D0000B4A02EB0110FFF723FD601C44B2042CCF
:1046E000F4DBFFF773FAFFF7B1FAFFF7F3FAFFF71E
:1046F00037FB10BD24000020280000202C000020E3
:104700005808002010B504462046FEF767FC10BD8F
:1047100010B504462046FEF761FC10BD014A02496F
:1047200000F0B2B8F55B0008A8000020490050EA8C
:10473000C12018BF04204A0D18BF40F0010040F20C
:10474000FF72B2EB515F08BF40F00200012808BFC2
:104750000520704702480068C0F30220704700003F
:104760000CED00E010B5002804DB0A07130E054A23
:10477000135406E00A07140E034A00F00F031B1F30
:10478000D45410BD00E400E018ED00E02DE9F04144
:104790004F1E00EBC7010446D1E9000115461E4635
:1047A00037F006020DD02A463346FBF717FE7F1E70
:1047B00004EBC703D3E90023FBF7C5FF37F006027C
:1047C000F1D1022F25D0042F13D0062F18BFBDE83A
:1047D000F0812A463346FBF701FED4E90A23FBF7B2
:1047E000B2FF2A463346FBF7F9FDD4E90823FBF76D
:1047F000AAFF2A463346FBF7F1FDD4E90623FBF76F
:10480000A2FF2A463346FBF7E9FDD4E90423FBF770
:104810009AFF2A463346FBF7E1FDD4E90223FBF772
:1048200092FF2A463346FBF7D9FDD4E90023BDE8C1
:10483000F041FBF788BF0122FCF79BB8FBF783BF71
:104840000022134610461146FCF724B8024A002005
:104850001107FCF78EB8000001FDFFFF02E008C859
:10486000121F08C1002AFAD170477047002001E0EA
:1048700001C1121F002AFBD17047000001490860E6
:1048800070470000AC0000202DE9F04116460F46AD
:104890000446002503E03946B047641C6D1C2078AF
:1048A0000028F8D12846BDE8F08100002DE9FE4F30
:1048B00006460F460025684601F0AAF9002442E0AA
:1048C00056F8240057F82410A0EB010ABAF1000FA3
:1048D00001DB514601E0CAF100010846FBF7F0FD9B
:1048E00083464FF08F41FBF73BFD80465DF8240087
:1048F0000021FBF74FFE16D05DF824104046FBF771
:104900002FFD82464FF07E51FBF7F2FC814629F0E5
:10491000004A0F48416A5046FBF746FE12D201207A
:10492000A04005430EE00A48C1694046FBF732FE4D
:1049300005D30748016A4046FBF736FE02D2012044
:10494000A0400543641C032CBADB2846BDE8FE8F5B
:104950007C7300082DE9F04D8D4F21F0004A86B0A0
:1049600005460C46BA452ADBAAEB070028430AD0C5
:104970008848824501DC1AD1CDB106B02846BDE891
:10498000F04DFFF758BF844A844B2846FBF726FDBD
:1049900007460E46824A834B28462146FBF71EFDFA
:1049A00006B03A463346BDE8F04DFBF7CCBE0120D9
:1049B000FFF764FF06B0BDE8F04DFFF741BF7A484E
:1049C000824542DABAF1795F0BDA2846FFF7AEFE8C
:1049D000042808BFFFF73AFF284606B02146BDE885
:1049E000F08D2A460B461046FBF7F8FC834602463C
:1049F0006E480E460B4606217844FFF7C7FE5A461E
:104A00003346FBF7EBFC804669488A465A463346F4
:104A100004217844FFF7BAFE5A463346FBF7DEFC22
:104A200000223B46FBF78FFE02460B4640465146AE
:104A3000FBF730FF2A462346FBF7D0FC06B02A4698
:104A40002346BDE8F04DFBF77EBE284624F000412A
:104A500000223D463B46FBF71AFF4FF0FF32FBF7C3
:104A600088FF0646024653480F460B460621784407
:104A7000FFF78CFE32463B46FBF7B0FCCDE9000168
:104A80004D4832463B4604217844FFF77FFE3246CC
:104A90003B46FBF7A3FC00222B46FBF754FE834664
:104AA00002913046394602F017FC804643480D46D5
:104AB000504517DCDDE900015A46029BFBF7EAFE90
:104AC00042462B46FBF78AFC42462B46FBF73BFE51
:104AD0000122FBF74EFF304A304BFBF7D5FE304A40
:104AE000304B4CE04FF0000A52460B464046FBF775
:104AF0002AFECDE9031052462B4610461946FBF715
:104B00006DFC32463B46FBF7C2FEDDE90332FBF7A4
:104B1000C1FE06460F46DDE900015A46029BFBF73F
:104B2000B9FE83460091012230463946FBF721FF4A
:104B3000194A1A4BFBF7ABFE06460F4601224046C8
:104B40002946FBF716FF5A46009BFBF747FC324607
:104B50003B46FBF799FE06460F4601225046294682
:104B6000FBF707FF0E4DDFF858802A464346FBF758
:104B70008EFE32463B46FBF78AFE2A464346FBF74B
:104B800086FE002CD8BF81F0004106B0BDE8F08D54
:104B90000000F03F0000F07F075C143326A6913C34
:104BA000182D4454FB21F93F0000E03FA4350000DC
:104BB000BA3500002E350000443500003333EF3F96
:104BC000FB21E93F2DE9F84F04460D4621F0004056
:104BD00000917349814211DC7249884201DC06D19F
:104BE0002CB120462946BDE8F84FFFF724BE6E4899
:104BF000002DCCBF6D496E49BDE8F88F6D498142EB
:104C000011DD6D498142D8BF4FF0FF366DDD204682
:104C10002946FFF78BFD042808BFFFF717FE204643
:104C20002946BDE8F88F6549654F25F0004581426A
:104C300033DD6449814219DD002632464FF080435E
:104C400020462946FBF77FFD80468A460122204602
:104C50002946FBF78EFE00223B46FBF715FE424637
:104C60005346FBF717FE04460D463EE001260022A0
:104C7000BA463B4620462946FBF765FD80460F466F
:104C80000022534620462946FBF7FEFD42463B469E
:104C9000FBF700FE04460D4627E04B4981421BDD31
:104CA000DFF828A102260022534620462946FBF7BA
:104CB00095FB00223B46FBF746FD80460F4600224F
:104CC000534620462946FBF7DFFD42463B46FBF7AD
:104CD000E1FD04460D4608E0032622462B4600204F
:104CE0003B49FBF7D7FD04460D4622462B461046AE
:104CF0001946FBF773FB8B46824602460B46FBF7D1
:104D00006DFB07460246334888460B460621784429
:104D1000FFF73CFD52465B46FBF760FB82462E48A0
:104D20008B463A46434605217844FFF72FFD3A4625
:104D30004346FBF753FB02460B46002E50465946AE
:104D40000CDAFBF700FD22462B46FBF747FB01B0D0
:104D500022462B46BDE8F04FFBF799BDFBF7F3FC6D
:104D600022462B46FBF73AFB1C4A7A4402EBC60369
:104D7000D3E90023FBF788FD22462B46FBF784FD91
:104D8000174A7A4402EBC603D3E90023FBF77FFD01
:104D9000009A002AB8BF81F00041BDE8F88F0000FA
:104DA000000010440000F07F182D4454FB21F93F0F
:104DB000FB21F9BF0000DC3F0000203E0000F33F74
:104DC0000000F03F0000E63F008003400000F83F95
:104DD0000000F0BF4633000004330000A2320000A0
:104DE0006A3200002DE9F04D9446CCF1000423F026
:104DF00000464CEA0404524F46EAD4749A46884668
:104E000021F00042BC4206D8454240EA050442EA8D
:104E1000D474BC4204D9BDE8F04D6246FFF70EBD24
:104E2000AAF14055A5F17F6555EA0C040BD0022488
:104E300004EAAA74434DDFF810E144EAD87452EA58
:104E4000000B04D00CE0BDE8F04DFFF7BBBE002C1A
:104E500014BF012CBDE8F08D022C30D0032C32D0D1
:104E600056EA0C0B0AD0BE4220D1BA4209D126F034
:104E7000804622F080423346114617E000291ADBB3
:104E800025E0DFF8C8B0FB44002C04BFDBE90001DB
:104E9000BDE8F08D012C02BFDBE9000181F000418B
:104EA000BDE8F08D022C0AD0032C0CD0BA4212D1EE
:104EB000B8F1000F0BDA23482549BDE8F08D2846EC
:104EC0002449BDE8F08D28467146BDE8F08D1D48A7
:104ED0002149BDE8F08D921B12153C2AC4BF194828
:104EE0001D490EDCBAF1000FBEBF12F13C0F0020CD
:104EF000014606DB6246FBF7CDFC21F00041FFF7DF
:104F000061FE002C08BFBDE8F08D012C04BF81F0CC
:104F10000041BDE8F08D114A114B022C07D0FBF780
:104F2000B3FC2A46BDE8F04D0A4BFBF7ADBCFBF7DE
:104F3000ABFC2A46BDE8F04D064BFBF7A8BC0000D1
:104F40000000F07F182D4454FB2109C0FE31000001
:104F5000FB21F9BFFB210940FB21F93F075C14331A
:104F600026A6A13C2DE9F0410446E07800F0C006F9
:104F7000E07800F03F05607800F0010098B1EF1094
:104F80002846E91705EB5171C910A5EBC101491C71
:104F900001F0FF080B48006820B10A48414602684A
:104FA0003846904700BF607800F0080030B10548EF
:104FB000406818B1B011034A516888470020BDE825
:104FC000F0810000C00A002071B50098B0F5617F43
:104FD00013D9002404E04FF46170FFF7F5FF641C5F
:104FE0004FF461710098B0FBF1F0A042F3D8009843
:104FF000B0FBF1F201FB120000904FF0E020846959
:105000004821009801FB1046002E08DB00BF4FF03E
:10501000E0208569A5420CDAB542F8DA09E00548D6
:10502000064400BF4FF0E0208569A542FADDB54295
:10503000F8DC78BD4019010038B5044664B1202081
:105040008DF8000028208DF8010030208DF8020036
:1050500038208DF8030004E0A32204216846FBF702
:10506000D6F86A46042140F69E2002F063F801F06B
:105070004BFC38BD3EB5044602208DF80000CA2026
:105080008DF80100E3208DF8020009208DF803005F
:105090006A460421682002F04DF8A3208DF8000034
:1050A00004F0400048B1C0208DF80100C8208DF800
:1050B0000200C2208DF8030006E0A3208DF8010055
:1050C0008DF802008DF8030004F4C07048B1C420CC
:1050D0008DF80400CC208DF80500C6208DF8060060
:1050E00006E0A3208DF804008DF805008DF8060079
:1050F000A3208DF807008DF808008DF809006A4696
:105100000A2140F6A72002F015F804F0030018B1B8
:1051100020208DF8000002E0D8208DF800006A46BB
:10512000012140F6B62002F005F804F0200018B185
:10513000012000F0ADF802E0002000F0A9F804F42E
:10514000C07008B304F4807060B1B2208DF8000024
:105150008B208DF80100B6208DF802009B208DF881
:1051600003000BE0B0208DF8000080208DF80100D6
:10517000B4208DF8020090208DF803006A460421C7
:1051800040F6A22001F0D6FF04F0010020B3F82081
:105190008DF800006A4601214FF40B6001F0CAFF50
:1051A000FA21072000F02EFC072000F0F5FB01207B
:1051B00000F015FC642000F0F5FC4FF4FA7000F0EC
:1051C00004FDC821304800F0A5FB282000F0BEFBFC
:1051D0000A2000F0CEFB08E0D8208DF800006A46D7
:1051E00001214FF40B6001F0A5FF04F0020018B19B
:1051F000D9208DF8000002E0D8208DF800006A4622
:10520000012140F23D7001F095FF04F0040018B157
:10521000012000F069F802E0002000F065F804F0D9
:10522000100018B10120FFF707FF02E00020FFF790
:1052300003FF44F008001549488101F065FB002098
:105240001249887304F0400018B10846807B801D25
:10525000887304F4C07020B10C48807B801D0B491A
:10526000887304F0140020B10848807B103007498F
:10527000887304F0030020B10448807B001D0349BB
:10528000887300203EBD000009E3CA02C00A002066
:105290003EB504466CB10EA1D1E900208968CDE984
:1052A000002002916A4609214FF4976001F042FF05
:1052B0003EBD0AA2D2E900109268CDE90102009138
:1052C0006A4609214FF4976001F034FFF0E70000CF
:1052D000B8AAB38DB4980D355D000000B8AAAAAA8B
:1052E000B088C3C5C700000038B5044664B1C0200B
:1052F0008DF80000C2208DF80100C4208DF8020056
:10530000C6208DF8030004E08B2204216846FAF7DA
:105310007EFF6A46042140F6982001F00BFF01F061
:10532000F3FA38BD10B5C8234FF48062024940F645
:10533000F63001F07DF910BDA47300082DE9F04F9F
:105340008DB00746884615469946DDE9166B002460
:10535000002030806B49887B5A4605A901F034FA59
:1053600018B1601E0DB0BDE8F08F6648807A00F07D
:105370001400002867D09DF8140000069DF8151051
:1053800040EA01409DF8161040EA01209DF81710F0
:10539000084328609DF8180000069DF8191040EA9F
:1053A00001409DF81A1040EA01209DF81B100843A7
:1053B00068609DF81C0000069DF81D1040EA014041
:1053C0009DF81E1040EA01209DF81F100843A860B8
:1053D0009DF8200000069DF8211040EA01409DF84C
:1053E000221040EA01209DF823100843E86004F1F0
:1053F0001000C4B22868001401906868001402907C
:10540000A86800140390E8680014049001984043D1
:10541000029901FB0100039901FB0100049901FBC2
:10542000010ABAF1706F02DBBAF1885F05DD01F0A5
:105430006BFA00203080401E94E7B6F9000040F47B
:105440008070308000BF2F48807A00F0400020B389
:1054500005A9601C085C095D40EA012000B2A8F8BB
:10546000000005A9E01C095C05AAA01C105C41EA2B
:10547000002000B2A8F8020005A9601D095C201DEB
:10548000105C41EA002000B2A8F80400A01DC4B2DC
:10549000B6F9000040F0080030801A48408900F456
:1054A000C07008B305A9601C085C095D40EA0120D2
:1054B00000B2388005A9E01C095C05AAA01C105C9C
:1054C00041EA002000B2788005A9601D095C201D1A
:1054D000105C41EA002000B2B880A01DC4B2B6F949
:1054E000000040F0700030800648807A00F0030031
:1054F00018B105A90819FFF735FD484600F079FBFA
:1055000000202FE7C00A002070B588B0064601A829
:1055100000F05CFFBDF804000021C90341EA5045DA
:10552000C40300BF4448007A00F0030056F820008E
:1055300005904148007A00F0040010B105984042FF
:1055400005903D48007AC0F3C10056F8200006904F
:105550003948007A00F0200010B1069840420690C9
:105560003548007AC0F3811056F820000790324881
:10557000008900F4807010B10798404207900598A8
:10558000C117A0FB042301FB043100FB05108100BF
:1055900041EA927005900698C117A0FB042301FB15
:1055A000043100FB0510810041EA927006900798D3
:1055B000C117A0FB042301FB043100FB051081008F
:1055C00041EA927007900598000E8DF80800059842
:1055D000000C8DF809000598000A8DF80A0005985E
:1055E000C0B28DF80B000698000E8DF80C000698DE
:1055F000000C8DF80D000698000A8DF80E00069834
:10560000C0B28DF80F000798000E8DF810000798B3
:10561000000C8DF811000798000A8DF81200079809
:10562000C0B28DF8130002AA0C214FF4257001F0CE
:1056300081FD08B070BD0000C00A002030B585B003
:10564000044616A207CA02AB07C3C82C03DD4FF0FD
:10565000FF3005B030BDC82090FBF4F0401E85B28D
:10566000280A8DF80000E8B28DF801006A46022190
:1056700040F2162001F05EFD10B14FF0FF30E8E778
:1056800002AA0C2140F6C12001F054FD10B14FF0E8
:10569000FF30DEE7044884810020DAE7FEF2ABC485
:1056A000AAF1DFDFBBAFDFDFC00A00201FB5044671
:1056B0004848007A00F0030054F820000190454863
:1056C000007A00F0040010B1019840420190414876
:1056D000007AC0F3C10054F8200002903D48007ADF
:1056E00000F0200010B10298404202903948007A40
:1056F000C0F3811054F8200003903648008900F46C
:10570000807010B10398404203903349019880FBA8
:105710000101800F40EA810001902F49029880FB2F
:105720000110820042EA917002902B49039880FB9D
:105730000110820042EA917003900198000E8DF8EA
:1057400000000198000C8DF801000198000A8DF806
:1057500002000198C0B28DF803006A4604214FF49C
:10576000747001F0E7FC18B14FF0FF3004B010BDC9
:105770000298000E8DF800000298000C8DF80100D0
:105780000298000A8DF802000298C0B28DF803005A
:105790006A4604214FF4757001F0CCFC10B14FF053
:1057A000FF30E3E70398000E8DF800000398000C2B
:1057B0008DF801000398000A8DF802000398C0B22A
:1057C0008DF803006A4604214FF4767001F0B2FCB4
:1057D000CCE70000C00A002009E3CA0210B586B079
:1057E000044647A00068039046A00068029046A0C7
:1057F0000068019045A00068009004F0030003A930
:10580000085C8DF8140003A8C4F3C101405C8DF856
:10581000150003A8C4F38111405C8DF8160004F054
:10582000030002A9085C8DF8100002A8C4F3C101AE
:10583000405C8DF8110002A8C4F38111405C8DF822
:10584000120005AA032140F2264001F073FC18B1B2
:105850004FF0FF3006B010BD04AA032140F22A40E9
:1058600001F068FC10B14FF0FF30F3E701980590AC
:105870000098049004F0040058B19DF8140040F022
:1058800001008DF814009DF8100040F001008DF823
:10589000100004F0200058B19DF8150040F0010000
:1058A0008DF815009DF8110040F001008DF81100F1
:1058B00004F4807058B19DF8160040F001008DF896
:1058C00016009DF8120040F001008DF8120005AAA4
:1058D00003214FF4886001F02DFC10B14FF0FF3030
:1058E000B8E704AA032140F2314001F023FC10B1D3
:1058F0004FF0FF30AEE7064804810020AAE7000021
:105900004CCD6C000CC92C0036567600264666003D
:10591000C00A0020F8B505460E464FF47A7095FB94
:10592000F0F000FB06F4200E8DF80000200C8DF83E
:105930000100200A8DF80200E0B28DF803006A46EB
:1059400004214FF4AE7001F0F5FBF8BD38B5044604
:10595000052094FBF0F084B220128DF80000E0B234
:105960008DF801006A4602214FF4AD7001F0E2FBB0
:1059700038BD38B50446052094FBF0F084B22012FF
:105980008DF80000E0B28DF801006A4602214FF464
:10599000AC7001F0CFFB38BD38B504460020009054
:1059A00004F0010020B19DF8000040F030000090AC
:1059B00004F0020020B19DF8000040F00C000090BF
:1059C00004F0040020B19DF8000040F003000090B6
:1059D0006A4601214FF4A47001F0ACFB38BD38B524
:1059E0000446012C01DA012402E0042C00DD042429
:1059F000601EC0B200906A46012140F24F1001F0D3
:105A000099FB38BD2DE9FC4706460F4606F0070016
:105A100010B1B7F5C86F03DD4FF0FF30BDE8FC876C
:105A20003846FAF756FD81465949FAF799FC8046FF
:105A3000684600F0A5FC9DF80000022806D0042866
:105A400016D0082826D0102848D135E04FF08D41D7
:105A50004046FAF753FC8146FAF759FD84B24D49A6
:105A60004046FAF74BFC8146FAF751FD85B238E023
:105A70004FF08C414046FAF741FC8146FAF747FD6A
:105A800084B245494046FAF739FC8146FAF73FFDB2
:105A900085B226E04FF08B414046FAF72FFC814655
:105AA000FAF735FD84B23D494046FAF727FC8146B6
:105AB000FAF72DFD85B214E04FF08A414046FAF71F
:105AC0001DFC8146FAF723FD84B235494046FAF7BA
:105AD00015FC8146FAF71BFD85B202E04FF0FF305E
