:020000040800F2
:10000000400F002049010008B3410008B734000840
:10001000893E00081D070008F9490008000000009B
:10002000000000000000000000000000B9440008CB
:10003000A907000800000000394400083545000801
:100040006301000863010008630100086301000800
:1000500063010008630100086301000863010008F0
:10006000630100086301000863010008210700081C
:1000700063010008630100086301000863010008D0
:1000800063010008630100086D04000863010008B3
:1000900063010008630100086301000863010008B0
:1000A00063010008630100086301000863010008A0
:1000B0006301000863010008630100086301000890
:1000C0006301000863010008630100086301000880
:1000D0006301000863010008630100086301000870
:1000E0006301000863010008630100086301000860
:1000F0006301000863010008630100086301000850
:10010000630100086301000863010008630100083F
:100110006301000863010008C94500086301000885
:10012000630100086301000863010008630100081F
:10013000DFF810D000F088F900480047D14B0008E4
:10014000AFF30080400F0020064880470648004774
:10015000FEE7FEE7FEE7FEE7FEE7FEE7FEE7FEE777
:10016000FEE7FEE7C54500083101000840EA01034B
:100170009B0703D009E008C9121F08C0042AFAD25D
:1001800003E011F8013B00F8013B521EF9D2704721
:10019000D2B201E000F8012B491EFBD270470022C9
:1001A000F6E710B513460A4604461946FFF7F0FF76
:1001B000204610BDF0B480EA0102D40F4200B2EB39
:1001C000410F02D20246084611464A0042D0C30DF2
:1001D000DDB2C1F3C752AD1A202D35DAC1F31601D5
:1001E00041F4000204B15242C5F1200602FA06F1C0
:1001F0002A411044B3EBD05F23D0C4B1012DA0EB52
:10020000C35009DCF0BC4FF0004202EAC352DBB23B
:1002100000F5000000F0E9B8400000F1807000EB4C
:10022000C350A0F1807040EAD170490009E049084C
:1002300041EAC071A0EBC35000F50000400800EB9C
:10024000C350F0BC00F0C8B86142012202EB41018A
:10025000001BF6E7F0BC704781F00041AAE780F090
:100260000040A7E780EA010210B502F00043400019
:1002700022D04A001FD0010E01EB1261C0F35600DC
:10028000C2F3560240F4000042F40002A0FB022038
:1002900000047F39140400D0401C50EA124001D4FD
:1002A0004000491EC2B20C0604EBD010401C4008AE
:1002B000802A02D003E0002010BD20F001000029B8
:1002C00000DA0020184310BD30B480EA010202F0C9
:1002D000004530F0004221F0004013D090B1C30D32
:1002E000D40DC2F31601C0F31600E41A41F4000164
:1002F00040F400027D34914201D3641C00E04900C7
:10030000002C02DA30BC002070474FF400000023BC
:10031000914201D3891A034340084FEA4101F7D1C2
:1003200051B1914202D14FF0004105E002D24FF0AD
:10033000010101E06FF0010103EBC450284430BC1F
:1003400000F04AB8C10F80EAE0700844CA0796235B
:10035000002100F04AB800F0004220F00040C10D3A
:10036000C0F3160040F400007F2901DA0020704736
:10037000962903DCC1F19601C84001E09639884016
:10038000002AF4D04042704720F00040C10DC0F375
:10039000160040F400007F2901DA002070479629FA
:1003A00003DCC1F19601C840704796398840704718
:1003B000002801DBC0F10040002901DBC1F1004150
:1003C00081427047002801DBC0F10040002901DBB9
:1003D000C1F10041884270470029A8BF7047401C06
:1003E000490008BF20F00100704710B4B0FA80FC4B
:1003F00000FA0CF050EA010404BF10BC704749B188
:10040000CCF1200421FA04F411FA0CF118BF0121F7
:1004100021430843A3EB0C01CB1D4FEA00614FEAD7
:10042000102042BF002010BC704700EBC3501044A6
:100430000029A4BF10BC7047401C490008BF20F031
:10044000010010BC70470000064C074D06E0E06854
:1004500040F0010394E8070098471034AC42F6D30B
:10046000FFF76AFE785500089855000810B5024855
:1004700000F08BFB10BD00006C00002070B504463E
:1004800000252068806800F0010018B320688068AB
:1004900020F001002168886001F01CFB054613E094
:1004A00001F018FB401B02280ED92068806800F07C
:1004B000010048B1A06A40F01000A062E06A40F07C
:1004C0000100E062012070BD2068806800F001003A
:1004D0000028E5D10020F6E770B505466C6AA06AF1
:1004E00000F05000E0B9A06A40F40070A0622068FB
:1004F000806800F46020B0F5602F0DD1207B58B9E2
:10050000A06A20F48070A062A06A00F4805018B93C
:10051000A06A40F00100A062204600F033FB03E037
:10052000206A016B2846884770BD70B505466C6A25
:10053000A06A40F04000A062E06A40F00400E0627F
:10054000204600F021FB70BD70B50446656A284660
:1005500000F019FB70BD000038B5044600250020EE
:1005600000902068806800F0010078BB20688068F7
:1005700040F0010021688860194800681949B0FB03
:10058000F1F0009002E00098401E009000980028D2
:10059000F9D101F09FFA054619E001F09BFA401BE2
:1005A000022814D92068806800F0010078B9A06A98
:1005B00040F01000A062E06A40F00100E06200BF7D
:1005C000002084F8240000BF012038BD05E0206829
:1005D000806800F001000028DFD00020F5E700006F
:1005E0000C00002040420F0070B5284991F900101E
:1005F0004FF4B47201FB02F0FFF7A4FE0546244855
:10060000016A24480068FFF727FE06462946FFF7DF
:1006100023FE04462049FFF7D5FE06D21B4800788A
:10062000401C40B2194908701EE0184991F90010A9
:100630004FF4B47201FB02F0FFF784FE0546144844
:10064000016A14480068FFF707FE06462946FFF7CF
:1006500003FE04461149FFF7ABFE05D20B480078B4
:10066000401E40B209490870084991F900104FF442
:10067000B47201FB02F0FFF765FE04460448016A0C
:100680002046FFF797FD0349086070BD1E0000205B
:10069000C00A00203400002000003443000034C3AE
:1006A00010B51848007843B2174802681748016827
:1006B000174803F063FE1648006A80F000442046A5
:1006C000FFF749FE134908600F4801680F480068AA
:1006D000FFF7C2FD04464FF07E51FFF769FE10D2CE
:1006E0000948016809480068FFF7B6FD04460A4951
:1006F000FFF768FE05D200231A461946184603F094
:1007000057FD10BD1A0000203400002044000020D6
:10071000080800202C000020000080BF00BFFEE77A
:1007200010B5024800F0AAFD10BD00009C0000209A
:1007300030B590F840500124AC40C56B6C60046843
:1007400063604468102C04D10468A2600468E1600E
:1007500003E00468A1600468E26030BD10B50A4897
:100760000068401C08490860084890F9000005210D
:1007700090FBF1F201FB120028B905A004F09EF9EC
:1007800000200449087010BD140000201D00002046
:10079000310000001800002010B500F007F8FFF746
:1007A0007FFF04F02BF910BD704700002DE9F047E2
:1007B0004848007843B248480268484801684848B9
:1007C00003F0DCFD4748007801282ED1464AD2F8D4
:1007D0009C10D068FFF7EEFC80464348D0F82C11FF
:1007E0004046FFF7E7FC04463F48D0F8BC112046DE
:1007F000FFF7E0FC07463D49FFF766FD06464FF070
:100800008041FFF72FFD0546334801682846FFF772
:10081000D1FC314908603249086AFFF79CFD344930
:10082000086000203349086035E02E48007802282F
:1008300031D12D48006980F000492B48D0F8A01034
:100840004846FFF7B7FC80462748D0F830114046AD
:10085000FFF7B0FC07462448D0F8C0113846FFF730
:10086000FBFC06462149FFF72FFD05464FF080416E
:10087000FFF7F8FC0446184801682046FFF79AFC89
:10088000154908601649086AFFF765FD19490860AF
:100890000020174908601048016810480068FFF7F9
:1008A000DBFC04464FF07E51FFF782FD10D20A4870
:1008B00001680A480068FFF7CFFC04460E49FFF7BD
:1008C00081FD05D200231A461946184603F070FC34
:1008D000BDE8F0871A0000203C00002048000020FE
:1008E000300800201000002058080020AB279F444B
:1008F0002400002028000020000080BF72B600BF46
:10090000FEE70000F8B5044600260020009000BF76
:1009100094F82400012801D10220F8BD012084F8B8
:10092000240000BF2046FFF7A9FD06462046FFF73A
:1009300013FE0646002E69D1A06A20F4885040F0CC
:100940000200A062022001F05BFA34490968B1FBA1
:10095000F0F04000009002E00098401E00900098E7
:100960000028F9D12068806840F00800216888607C
:1009700001F0B0F8054616E001F0ACF8401B0A287B
:1009800011D92068806800F0080060B1A06A20F0EA
:10099000020040F01000A06200BF002084F8240094
:1009A00000BF0120B9E72068806800F00800002837
:1009B000E2D12068806840F004002168886001F07E
:1009C00089F8054616E001F085F8401B0A2811D980
:1009D0002068806800F0040060B1A06A20F0020086
:1009E00040F01000A06200BF002084F8240000BF87
:1009F000012092E72068806800F004000028E2D11E
:100A0000A06A20F0020040F00100A06200BF0020B8
:100A100084F8240000BF30467FE700000C0000206F
:100A20007047000038B5024600230020009000BF48
:100A300092F82400012801D1022038BD012082F85B
:100A4000240000BF4868072812D21068406B0C7958
:100A5000641E04EB84051F24AC40A0430D796D1E79
:100A600005EB85050C68AC4020431468606327E003
:100A700048680D2812D21068006B0C79E41F04EB53
:100A800084051F24AC40A0430D79ED1F05EB8505BF
:100A90000C68AC4020431468206311E01068C06A01
:100AA0000C790D3C04EB84051F24AC40A0430D7968
:100AB0000D3D05EB85050C68AC4020431468E062F1
:100AC00008680A2812D31068C0680C780A3C04EB46
:100AD00044050724AC40A0430D780A3D05EB4505CD
:100AE0008C68AC4020431468E0600FE01068006937
:100AF0000C7804EB44050724AC40A0430D7805EBCB
:100B000045058C68AC4020431468206108681028B3
:100B100002D00868112827D1174C1068A0421ED1B6
:100B20001068806800F40000F0B91068806840F434
:100B300000001468A0600868102815D10F480068EC
:100B40000F4CB0FBF4F000EB80004000009002E09E
:100B50000098401E009000980028F9D104E0906AA7
:100B600040F020009062012300BF002082F82400A2
:100B700000BF184661E70000002401400C0000207F
:100B800040420F0070477047704770B504462068B8
:100B900005682068466806F0200020282DD105F061
:100BA0000200022829D1A06A00F0100018B9A06A3A
:100BB00040F40070A0622068806800F46020B0F506
:100BC000602F13D1207B88B92068406820F0200076
:100BD00021684860A06A20F48070A062A06A00F4D6
:100BE000805018B9A06A40F00100A0622046FFF7CB
:100BF000C9FF6FF012002168086006F080008028AD
:100C000039D105F00400042835D1A06A00F01000A5
:100C100018B9A06A40F40050A0622068806800F40F
:100C2000E040B0F5E04F0DD02068406800F48060EF
:100C3000D0B92068806800F46020B0F5602F13D12F
:100C4000207B88B92068406820F0800021684860D7
:100C5000A06A20F48050A062A06A00F4807018B9E5
:100C6000A06A40F00100A0622046FFF7D9FE6FF0B5
:100C70000C002168086006F0400040280DD105F006
:100C8000010050B1A06A40F48030A062204600F01C
:100C9000B5F86FF001002168086070BD2DE9F041E2
:100CA0000446002700250026A84614B90120BDE807
:100CB000F081A06810B1207D00B100BFA06A30B9FA
:100CC0000020E06284F82400204600F099F82046D5
:100CD000FFF7D4FB0746A06A00F01000002873D18C
:100CE000002F7ED1A06A20F4885040F00200A0625C
:100CF0003F4AD4E90001904208D1E069B0F5402FA5
:100D000002D14FF4002002E0E06900E0E069014315
:100D1000207B41EA40000643A068B0F5807F02D006
:100D2000A068012802D14FF4807000E00020054344
:100D3000207D012811D1207B38B9A069401E4FF4D5
:100D4000006141EA4030054307E0A06A40F020001E
:100D5000A062E06A40F00100E0622068406820F490
:100D6000694028432168486020688068214908401C
:100D7000304321688860A068B0F5807F02D0A06809
:100D8000012802D14FF4807000E00020B0F5807F90
:100D900003D1208A401E4FEA00582068C06A20F420
:100DA000700040EA08002168C86220688068124923
:100DB0000840B04209D10020E062A06A20F00200A1
:100DC00040F00100A06211E00BE0A06A20F00200F8
:100DD00040F01000A062E06A40F00100E0620127EC
:100DE00004E0A06A40F01000A062012738465EE7E8
:100DF000003C0140FDF7E1FFFE0E1FFF70470000C1
:100E000010B586B00446002002900390049005902F
:100E10003049206888425AD100BF2F48806940F489
:100E200000702D4988610846806900F400700190C7
:100E300000BF00BF00BF0846806940F01000886115
:100E40000846806900F01000019000BF00BF00BF9D
:100E50000846806940F0080088610846806900F013
:100E60000800019000BF00BF3F20029003200390C4
:100E700002A91A4800F076FC03200290039002A910
:100E8000174800F06FFC17481749086000204860B9
:100E90000021154881608021C160490001618900FD
:100EA0004161202181610021C16100F0B3FB08B1E3
:100EB000FFF724FD00BF0C482062446200BF0022FF
:100EC0000221122000F08CFE122000F079FE06B004
:100ED00010BD00000024014000100240001001403D
:100EE000000C0140080002409C0000202DE9F04168
:100EF00004460D461646002757492068884203D00D
:100F000056492068884205D15348001D006800F406
:100F1000702000E0002000287ED100BF94F824005B
:100F2000012802D10220BDE8F081012084F82400CC
:100F300000BF2046FFF710FB0746002F6DD1A06AC7
:100F400040F60161884340F48070A0624349206804
:100F5000884209D14048001D006800F4702008B99B
:100F6000012002E0002000E0012078B1A06A20F416
:100F70008010A0622068406800F4806000B3A06A1E
:100F800020F4005040F48050A06219E0A06A40F4C0
:100F90008010A06230492068884203D02F49206821
:100FA000884205D12C48001D006800F4806000E0F4
:100FB000002028B1A06A20F4005040F48050A062C4
:100FC000A06A00F4805020B1E06A20F00600E062E0
:100FD00001E00020E06200BF002084F8240000BF90
:100FE0001F48216A88621F48216AC8621E48216A18
:100FF00008636FF00200216808602068806840F490
:10100000807021688860226802F14C0133462A46CC
:10101000206A00F045FB01E01AE014E020688068D7
:1010200000F46020B0F5602F06D12068806840F49D
:10103000A000216888600CE02068806840F480107F
:101040002168886005E000BF002084F8240000E0EB
:101050000127384667E700000024014000280140CE
:10106000D9040008490500082B05000870B504469E
:101070000CB9012070BD94F8200010B9204600F092
:10108000AFF82068006840F001002168086000F0B7
:1010900021FD05460DE000F01DFD401B0A2808D982
:1010A000606A40F400306062052084F8200001206E
:1010B000E0E72068406800F001000028EBD02068DD
:1010C000006820F002002168086000F003FD05467A
:1010D0000DE000F0FFFC401B0A2808D9606A40F4CC
:1010E00000306062052084F820000120C2E72068FB
:1010F000406800F002000028EBD1207E012806D1D4
:101100002068006840F080002168086005E02068E1
:10111000006820F0800021680860607E012806D108
:101120002068006840F040002168086005E0206801
:10113000006820F0400021680860A07E012806D1E8
:101140002068006840F020002168086005E0206801
:10115000006820F0200021680860E07E012806D1A8
:101160002068006820F010002168086005E0206811
:10117000006840F0100021680860207F012806D137
:101180002068006840F008002168086005E02068D9
:10119000006820F0080021680860607F012806D1FF
:1011A0002068006840F004002168086005E02068BD
:1011B000006820F0040021680860D4E902010843B7
:1011C00021690843616908436168491E0843216831
:1011D000C86100206062012084F82000002049E7F7
:1011E00010B586B00446002002900390049005904C
:1011F0001E492068884237D100BF1D48C06940F0B1
:1012000000701B49C8610846C06900F00070019079
:1012100000BF00BF00BF0846806940F02000886121
:101220000846806900F02000019000BF00BF012047
:10123000029000200390049002A90E4800F092FA58
:101240000220029003900320059002A9094800F0B3
:1012500089FA00BF0849486820F4C04040F0E060C7
:1012600040F4C040486000BF06B010BD00640040BC
:1012700000100240001401400000014070B5044617
:10128000E06B05682068066894F8401004208840E8
:101290002840002875D006F004000028FAD0206805
:1012A000006800F0200028B92068006820F00400E1
:1012B00021680860D5492068884254D9D3497839D3
:1012C0002068884201D1042049E0D049643920686F
:1012D000884201D1402042E0CC4950392068884200
:1012E00001D100153BE0C9493C392068884202D150
:1012F0004FF4804033E0C54928392068884202D144
:101300004FF480202BE0C14914392068884202D173
:101310004FF4800023E0BD492068884201D1C00419
:101320001DE0BB492068884201D1042017E0B8497C
:1013300014312068884201D1402010E0B44928319E
:101340002068884201D1001509E0B1493C3120688C
:10135000884202D14FF4804001E04FF48020AC4934
:10136000091F086054E0A94978392068884201D1F2
:1013700004204AE0A54964392068884202D140200F
:1013800043E04CE0A14950392068884201D1001562
:101390003BE09E493C392068884202D14FF48040AE
:1013A00033E09A4928392068884202D14FF48020DE
:1013B0002BE0964914392068884202D14FF480000E
:1013C00023E092492068884201D1C0041DE0904981
:1013D0002068884201D1042017E08D49143120682B
:1013E000884201D1402010E0894928312068884294
:1013F00001D1001509E086493C312068884202D1BC
:101400004FF4804001E04FF48020804980394860EB
:10141000E06A002802D02046E16A8847F4E094F8A8
:101420004010022088402840002871D006F00200B9
:101430000028FAD02068006800F0200040B9206839
:10144000006820F00A0021680860012084F821006B
:101450006E492068884254D96C497839206888429E
:1014600001D1022049E0694964392068884201D1EC
:10147000202042E0654950392068884201D140155A
:101480003BE062493C392068884202D14FF4005069
:1014900033E05E4928392068884202D14FF4003099
:1014A0002BE05A4914392068884202D14FF40010C9
:1014B00023E056492068884201D180041DE0544948
:1014C0002068884201D1022017E051491431206878
:1014D000884201D1202010E04D49283120688842FF
:1014E00001D1401509E04A493C312068884202D1C7
:1014F0004FF4005001E04FF400304549091F0860E7
:1015000054E0424978392068884202D102204AE0FA
:1015100057E03E4964392068884201D1202042E0EA
:101520003A4950392068884201D140153BE037499B
:101530003C392068884202D14FF4005033E03349EF
:1015400028392068884202D14FF400302BE02F491F
:1015500014392068884202D14FF4001023E02B494F
:101560002068884201D180041DE029492068884212
:1015700001D1022017E0264914312068884201D1A8
:10158000202010E0224928312068884201D14015EE
:1015900009E01F493C312068884202D14FF40050D5
:1015A00001E04FF4003019498039486000BF002045
:1015B00084F8200000BFA06A30B32046A16A8847A3
:1015C00022E094F84010082088402840E0B106F05E
:1015D0000800C8B12068006820F00E00216808608B
:1015E00094F8401001208840E16B48600120A0631E
:1015F00084F8210000BF002084F8200000BF206B89
:1016000010B12046216B884770BD00008000024069
:10161000080402400146002209B9012070471E4B10
:10162000086898420BD21D4B0868C01A1423B0FBFF
:10163000F3F08000086419480838C8630AE0164BC4
:101640000868C01A1423B0FBF3F080000864124845
:101650000838C863022081F821000868026843F650
:10166000F0708243D1E901031843CB6818430B693A
:1016700018434B6918438B691843CB6918430243DD
:101680000868026000208863012081F821000020A2
:1016900081F8200000BFC1E70804024008000240B2
:1016A0002DE9F04104460D4616461F464FF000084E
:1016B00000BF94F82000012802D10220BDE8F0818B
:1016C000012084F8200000BF94F8210001282CD1CB
:1016D000022084F821000020A0632068006820F028
:1016E0000100216808603B46324629462046FFF744
:1016F0001FF8E06A30B12068006840F00E002168F1
:1017000008600BE02068006820F004002168086091
:101710002068006840F00A002168086020680068BE
:1017200040F001002168086006E000BF002084F856
:10173000200000BF4FF002084046BFE770B50446E6
:1017400000F0C8F906462546681C10B10448007828
:10175000054400BF00F0BEF9801BA842FAD370BD5B
:10176000080000202DE9F847024600239C467BE153
:101770004FF0010808FA03F4D1F8008008EA0400E9
:10178000A0427DD1DFF8F4A2D1F80480A8EB0A09C9
:10179000D0453AD014DCB8F1030F50D009DCB8F1D1
:1017A000000F31D0B8F1010F1CD0B8F1020F49D1B0
:1017B00020E0B8F1110F18D0B8F1120F42D11EE09D
:1017C000B9F5881F25D006DCB9F5803F20D0B9F5E2
:1017D000801F37D11AE0B9F5001F18D0B9F5041FE2
:1017E00030D117E0D1F80CC02DE0D1F80C8008F111
:1017F000040C28E0D1F80C8008F1080C23E0D1F8A3
:101800000C8008F10C0C1EE000BF00BF00BF00BF41
:1018100000BF00BFD1F80880B8F1000F02D14FF02F
:10182000040C0BE0D1F80880B8F1010F03D14FF0A0
:10183000080C146102E04FF0080C546103E04FF013
:10184000000C00E000BF00BFFF2801D8904601E077
:1018500002F104084646FF2802D84FEA830803E055
:10186000A3F108084FEA88084746D6F800804FF0F1
:101870000F0909FA07F928EA09080CFA07F900E044
:101880007AE048EA0908C6F80080D1F8048008F038
:101890008058B8F1805F6FD100BFDFF8E481D8F8DD
:1018A000188048F00108DFF8D891C9F81880C846B8
:1018B000D8F8188008F00108CDF8008000BF00BFFC
:1018C0004FEAB9384FEA930958F829504FEA83781C
:1018D0004FEA18794FF00F0808FA09F825EA0805C9
:1018E000DFF8A081424502D14FF0000824E0DFF884
:1018F0009881424502D14FF001081DE0DFF88C814C
:10190000424502D14FF0020816E0DFF884814245DB
:1019100002D14FF003080FE0DFF87881424502D191
:101920004FF0040808E0DFF87081424502D14FF023
:10193000050801E04FF006084FEA83794FEA19796C
:1019400008FA09F848EA0505DFF850814FEA9309DB
:1019500048F82950D1F8048008F48018B8F5801FA1
:101960000BD1DFF83C81D8F8008048EA0008DFF8A6
:101970003091C9F800800AE075E0DFF82481D8F8DA
:10198000008028EA0008DFF81891C9F80080D1F833
:10199000048008F40018B8F5001F0ED1DFF80081AC
:1019A00008F10408D8F8008048EA0008DFF8F09051
:1019B00009F10409C9F800800DE0DFF8E48008F1BE
:1019C0000408D8F8008028EA0008DFF8D49009F16C
:1019D0000409C9F80080D1F8048008F40038B8F58B
:1019E000003F0ED1DFF8B880A8F10408D8F80080D5
:1019F00048EA0008DFF8A890A9F10409C9F80080B6
:101A00000DE0DFF89C80A8F10408D8F8008028EAEF
:101A10000008DFF88C90A9F10409C9F80080D1F81A
:101A2000048008F48038B8F5803F0ED1DFF870806C
:101A3000A8F10808D8F8008048EA0008DFF86090AC
:101A4000A9F10809C9F800800DE0DFF85480A8F179
:101A50000808D8F8008028EA0008DFF84490A9F1C7
:101A60000809C9F800805B1CD1F8008028FA03F847
:101A7000B8F1000F7FF47CAEBDE8F88700001110CC
:101A80000010024000080140000C0140001001401D
:101A90000014014000180140001C014008000140F2
:101AA00008040140024693680B400BB1012000E09E
:101AB0000020704710B5C26821EA020302EA01045F
:101AC00043EA0443036110BD0AB1016101E00B0464
:101AD0000361704701480068704700000000002063
:101AE00003480068034909780844014908607047C1
:101AF000000000200800002010B50848006840F0F1
:101B0000100006490860032000F0A8F80F2000F03C
:101B100007F800F02BF8002010BD00000020024064
:101B200070B504460E4800784FF47A71B1FBF0F0BE
:101B30000C490968B1FBF0F5284600F0B7FE08B182
:101B4000012070BD102C07D200222146501E00F04B
:101B500047F80548046001E00120F2E70020F0E7C3
:101B6000080000200C0000200400002008B500BF81
:101B70001148806940F001000F498861084680697A
:101B800000F00100009000BF00BF00BF0846C06920
:101B900040F08050C8610846C06900F08050009055
:101BA00000BF00BF00BF0549486820F0E06040F07A
:101BB0000070486000BF08BD0010024000000140F6
:101BC00001460846002809DB00F01F0301229A4065
:101BD00043099B0003F1E023C3F8002100BF7047D5
:101BE0002DE9F05F80460D461646002702F06EFF95
:101BF000074639462A46334601F00700C0F1070A76
:101C0000BAF1040F02D94FF0040A01E0C0F1070A4B
:101C1000D14600F1040ABAF1070F02D24FF0000AD0
:101C200001E0A0F1030AD4464FF0010A0AFA09FACA
:101C3000AAF1010A0AEA020A0AFA0CFA4FF0010BA9
:101C40000BFA0CFBABF1010B0BEA030B4AEA0B049A
:101C50002146404602F042FFBDE8F09F00BF00F081
:101C60000702064B19684FF6FF031940044B0B435C
:101C700043EA0221014B196000BF70470CED00E000
:101C80000000FA0530B585B0044614B9012005B04E
:101C900030BD94F8A90228B9002084F8A802204693
:101CA00000F096F8032084F8A902206802F097FE5D
:101CB000142204F110016846FEF758FA94E80F0068
:101CC00002F07BFE20B1022084F8A9020120DEE7A9
:101CD0000021206802F08DFE00252AE0012105EB9D
:101CE000850204F1280000EBC200417005EB85017C
:101CF00004F1280000F83150002105EB850200EBCB
:101D0000C200C17005EB850204F1280000EBC2009F
:101D1000016105EB850204F1280000EBC20041617E
:101D200005EB850204F1280000EBC2008161681C0C
:101D3000C5B26068A842D1D800252AE0002105EB91
:101D4000850204F5B47000EBC200417005EB85011B
:101D500004F5B47000F83150002105EB850200EB6A
:101D6000C200C17005EB850204F5B47000EBC2003F
:101D7000016105EB850204F5B47000EBC20041611E
:101D800005EB850204F5B47000EBC2008161681CAC
:101D9000C5B26068A842D1D8142204F11001684687
:101DA000FEF7E4F994E80F0002F00EFE20B10220E5
:101DB00084F8A90201206AE7002084F824000120A9
:101DC00084F8A902206802F0FCFD00205FE7000013
:101DD00008B5094A016891420DD100BF0749C96998
:101DE00041F40001054AD1611146C96901F40001BD
:101DF000009100BF00BF08BD005C00400010024021
:101E00002DE9F04706464FF0000800250027002482
:101E1000A146042E37D004DC012E3CD0022E6CD11A
:101E200060E0082E33D0102E67D136484468006831
:101E300000F0807008B33448C4F38341475C04F475
:101E4000803078B12F484068C0F340402F4911F8E6
:101E5000008004F4803040B12D48B0FBF8F000FB66
:101E600007F502E02B4807FB00F52648406800F420
:101E70008000B0F5800F01D1A94603E0680003217E
:101E8000B0FBF1F93AE000F0CBF9814636E000F022
:101E9000C7F9814632E01B48046A04F44070B0F58B
:101EA000807F05D104F0020010B14FF4004918E022
:101EB00004F44070B0F5007F07D11248406A00F08A
:101EC000020010B149F640490BE004F44070B0F54F
:101ED000407F06D10B48006800F4003008B14FF293
:101EE00024490BE000F08CF906494968C1F38131BF
:101EF000491C4900B0FBF1F900E000BF00BF4846B3
:101F0000BDE8F08700100240964C0008A64C00087F
:101F100000127A0000093D00F8B5044600260025AD
:101F2000207800F0010000286BD000274348C069EA
:101F300000F0805070B900BF4048C06940F0805048
:101F40003E49C8610846C06900F08050009000BF5B
:101F500000BF01273A48006800F48070B0B93848E3
:101F6000006840F4807036490860FFF7B3FD06460C
:101F700006E0FFF7AFFD801B642801D90320F8BD00
:101F80002F48006800F480700028F2D02B48006AC7
:101F900000F440752DB3A08800F44070A84220D012
:101FA0002648006A20F44075012026490860002078
:101FB00008602248056205F0010090B1FFF78AFD34
:101FC000064608E0FFF786FD801B41F28831884213
:101FD00001D90320D3E71948006A00F00200002865
:101FE000F0D01648006A20F4407061680843134935
:101FF0000862012F04D10846C06920F08050C861F2
:1020000000BF207800F00200022807D10B4840688A
:1020100020F44040A168084308494860207800F057
:102020001000102807D10548406820F4800061693D
:102030000843024948600020A1E700000010024068
:10204000007000404004424270B504460D460CB991
:10205000012070BD5A48006800F00700A8420ED267
:102060005748006820F00700284355490860084693
:10207000006800F00700A84201D00120E9E72078BD
:1020800000F0020002281DD1207800F0040004288E
:1020900005D14C48406840F4E0604A4948602078E7
:1020A00000F00800082805D14648406840F4605018
:1020B000444948604348406820F0F000A168084364
:1020C00040494860207800F0010078B3606801283A
:1020D00006D13C48006800F4003090B90120B8E710
:1020E0006068022806D13748006800F0007040B9E7
:1020F0000120AEE73348006800F0020008B9012073
:10210000A7E73048406820F00300616808432D4984
:102110004860FFF7DFFC064609E0FFF7DBFC801BA9
:1021200041F28831884202D9032092E707E025482E
:10213000406800F00C006168B0EB810FEDD12048E1
:10214000006800F00700A8420ED91D48006820F082
:10215000070028431A4908600846006800F0070095
:10216000A84201D0012074E7207800F00400042880
:1021700007D11448406820F4E060E1680843114941
:102180004860207800F00800082808D10D48406811
:1021900020F46050216940EAC1000A49486000F01B
:1021A0003FF808494968C1F30311074A515CC84028
:1021B0000649086006480068FFF7B2FC002048E7BF
:1021C0000020024000100240A84C00080C00002033
:1021D0000400002001480068704700000C00002047
:1021E00000B5FFF7F7FF04494968C1F30221034A2C
:1021F000515CC84000BD000000100240B84C00080F
:1022000000B5FFF7E7FF04494968C1F3C221034A5B
:10221000515CC84000BD000000100240B84C0008EE
:1022200070B500210022002400230020134D6968AE
:1022300001F00C05F5B1042D02D0082D19D101E0F3
:102240000F4819E00F4DC1F38346AB5D01F48035B3
:1022500055B10A4D6D68C5F340450B4E725D084D92
:102260005D43B5FBF2F402E0084D03FB05F42046A4
:1022700002E000BF024800BF00BF70BD0010024076
:1022800000127A00844C0008944C000800093D00BC
:10229000F8B504460CB90120F8BD207800F0010023
:1022A000002878D0F848406800F00C0004280CD0D2
:1022B000F548406800F00C00082811D1F248406849
:1022C00000F48030B0F5803F0AD1EF48006800F498
:1022D000003000285FD0606800285CD10120DBE777
:1022E00000BF6068B0F5803F06D1E748006840F461
:1022F0008030E549086028E0606858B9E248006825
:1023000020F48030E04908600846006820F480200E
:1023100008601AE06068B0F5A02F0BD1DA480068B9
:1023200040F48020D84908600846006840F48030B6
:1023300008600AE0D448006820F48030D249086080
:102340000846006820F48020086000BF606888B1FB
:10235000FFF7C0FB054606E0FFF7BCFB401B642807
:1023600001D9032098E7C848006800F4003000282D
:10237000F2D010E0FFF7AEFB054606E0FFF7AAFB40
:10238000401B642801D9032086E7BF48006800F499
:1023900000300028F2D1207800F00200022857D146
:1023A000B948406800F00C0050B1B748406800F0F0
:1023B0000C00082818D1B448406800F4803098B95F
:1023C000B148006800F0020020B12069012801D066
:1023D000012061E7AC48006820F0F800616940EA3C
:1023E000C100A949086033E02069E8B10120A7498C
:1023F0000860FFF76FFB054606E0FFF76BFB401B2D
:10240000022801D9032047E79F48006800F0020036
:102410000028F2D09C48006820F0F800616940EA8A
:10242000C1009949086013E0002098490860FFF74F
:1024300051FB054606E0FFF74DFB401B022801D982
:10244000032029E79048006800F002000028F2D13C
:10245000207800F0080008282DD1A069B8B101202B
:102460008B490860FFF736FB054606E0FFF732FBB5
:10247000401B022801D903200EE78348406A00F080
:1024800002000028F2D0012001F0D8FF13E0002064
:102490007F490860FFF71EFB054606E0FFF71AFBC1
:1024A000401B022801D90320F6E67748406A00F075
:1024B00002000028F2D1207800F00400042873D133
:1024C00000277148C06900F0805070B900BF6E48A5
:1024D000C06940F080506C49C8610846C06900F08E
:1024E0008050009000BF00BF01276A48006800F4D8
:1024F0008070B0B96748006840F480706549086032
:10250000FFF7E8FA054606E0FFF7E4FA401B642807
:1025100001D90320C0E65F48006800F480700028FD
:10252000F2D000BFE068012806D15748006A40F0A9
:1025300001005549086227E0E06858B95248006A2E
:1025400020F00100504908620846006A20F00400AB
:10255000086219E0E06805280BD14B48006A40F09A
:102560000400494908620846006A40F00100086218
:102570000AE04548006A20F0010043490862084625
:10258000006A20F00400086200BFE068A0B1FFF715
:10259000A1FA054609E0FFF79DFA401B41F2883198
:1025A000884202D9032077E622E03748006A00F02B
:1025B00002000028EFD012E0FFF78CFA054608E091
:1025C000FFF788FA401B41F28831884201D9032085
:1025D00062E62D48006A00F002000028F0D1012FC9
:1025E00005D12948C06920F080502749C86100BF43
:1025F000E069C8B32448406800F00C00082860D0A7
:10260000E069022848D1002020490866FFF762FAF5
:10261000054606E0FFF75EFA401B022801D90320B9
:102620003AE61948006800F000700028F2D1206AEC
:10263000B0F5803F07D11448406820F40030A1680D
:10264000084311494860D4E9080108430E49496824
:1026500021F4741108430C49486001200B490866B5
:10266000FFF738FA054607E03DE0FFF733FA401B75
:10267000022801D903200FE60348006800F000702B
:102680000028F2D02FE0000000100240000042427B
:102690008004424200700040002014490866FFF7A1
:1026A00019FA054606E0FFF715FA401B022801D982
:1026B0000320F1E50E48006800F000700028F2D118
:1026C00011E0E069012800D1E6E50948466806F412
:1026D0008031206A814204D106F47011606A81421F
:1026E00001D00120D8E50020D6E5000000004242DC
:1026F0000010024010B504460CB9012010BD606AFC
:1027000038B96068B0F5827F00D105E00021E16151
:1027100002E00021216161610021A16294F8510071
:1027200028B9002084F85000204600F043F8022029
:1027300084F851002068006820F04000216808609B
:10274000A08800F48270218901F404410843A18922
:1027500001F400610843217C01F002010843217D5E
:1027600001F001010843218B01F400710843217F2E
:1027700001F0380108432021095D01F08001084380
:10278000218D01F400510843216808600421A069EB
:1027900001EA1040216848602068C06920F40060A8
:1027A0002168C86100206065012084F85100002084
:1027B000A4E7000010B586B0044600200290039004
:1027C000049005903449206888422ED100BF3348D8
:1027D000806940F48050314988610846806900F47E
:1027E0008050019000BF00BF00BF0846806940F0E4
:1027F000040088610846806900F00400019000BF71
:1028000000BFB0200290022003900320059002A98F
:102810002348FEF7A7FF4020029000200390049079
:1028200002A91F48FEF79EFF33E01E492068884238
:102830002FD100BF1948C06940F480401749C861D2
:102840000846C06900F48040019000BF00BF00BF8F
:102850000846806940F0080088610846806900F0F9
:102860000800019000BF00BF4FF4204002900220FA
:1028700003900320059002A90B48FEF773FF4FF465
:102880008040029000200390049002A90648FEF7C1
:1028900069FF06B010BD000000300140001002408A
:1028A0000008014000380040000C014070B50446AB
:1028B0002546681EB0F1807F01D301200FE0681E1D
:1028C0004FF0E02148610F214FF0FF3002F006F990
:1028D00000204FF0E021886107200861002070BDD2
:1028E0007047704730B502460B4600BF92F83C0077
:1028F000012801D1022030BD012082F83C0000BF38
:10290000022082F83D00106844681068816824F055
:1029100070041868044310684460144D1068A8429D
:1029200013D0134D1068A8420FD01068B0F1804F3B
:102930000BD0104D1068A84207D00F4D1068A84268
:1029400003D00E4D1068A84205D121F080015868CF
:10295000014310688160012082F83D0000BF002023
:1029600082F83C0000BF00BFC5E70000002C01401A
:10297000003401400004004000080040000C00400A
:1029800010B504460CB9012010BD94F83D0028B9DB
:10299000002084F83C00204600F026F8022084F84D
:1029A0003D00211D206801F017FE012084F846003B
:1029B00000BF84F83E0001213F2001554020015511
:1029C0004120015500BF00BF012084F84200432090
:1029D0000155442001554520015500BF012084F8D0
:1029E0003D000020D0E7000038B504460D492068BE
:1029F000884215D100BF0C48C06940F010000A4958
:102A0000C8610846C06900F01000009000BF00BF18
:102A1000002211463620FFF7E3F83620FFF7D0F802
:102A200038BD000000100040001002402DE9F041C8
:102A300004460D4614B90120BDE8F08194F83D002C
:102A400028B9002084F83C00204600F051F802200C
:102A500084F83D002068806844F2070188432168BB
:102A60008860211D206801F0B7FD2068D0F808803B
:102A7000206886692068076A286840EA080840F2EA
:102A800003308643A969A86840EA0120064340F65E
:102A90000C4086434FF2F0008643E969E86840EA5B
:102AA0000120064328690001296A40EA01300643F3
:102AB00027F022076969686840EA01100743206827
:102AC000C0F808802068866120680762012084F8C9
:102AD000460084F83E0001213F200155012084F882
:102AE000420043200155012084F83D000020A3E767
:102AF00010B586B004460020029003900490059023
:102B00006D49206888422FD100BF6C48806940F42D
:102B100000606A4988610846806900F4006001909D
:102B200000BF00BF00BF0846806940F040008861D8
:102B30000846806900F04000019000BF00BF4FF4DC
:102B40002060029000200390049002A95C48FEF7E8
:102B500009FE00BF5B49486820F0C00040F0E0601B
:102B600040F0C0004860A4E02068B0F1804F45D13B
:102B700000BF5248C06940F001005049C861084692
:102B8000C06900F00100019000BF00BF00BF08460F
:102B9000806940F0040088610846806900F0040004
:102BA000019000BF00BF00BF0846806940F00800E8
:102BB00088610846806900F00800019000BF00BFEE
:102BC0004FF40040029000200390049002A93E4878
:102BD000FEF7C8FD0820029000200390049002A98F
:102BE0003A48FEF7BFFD00BF3649486820F4407000
:102BF00040F0E06040F4807048605AE0344920685A
:102C000088422ED100BF2D48C06940F002002B49F8
:102C1000C8610846C06900F00200019000BF00BF13
:102C200000BF0846806940F0080088610846806956
:102C300000F00800019000BF00BF3020029000208B
:102C40000390049002A92148FEF78CFD00BF1D49A6
:102C5000486820F4406040F0E06040F40060486064
:102C600027E01C492068884223D100BF13488069AF
:102C700040F40050114988610846806900F4005012
:102C8000019000BF00BF00BF0846806940F01000FF
:102C900088610846806900F01000019000BF00BF05
:102CA000C020029000200390049002A90A48FEF779
:102CB00059FD06B010BD0000002C0140001002407C
:102CC000001801400000014000080140000C0140D4
:102CD000000400400034014000100140704710B56E
:102CE000044620680069C0F34000D8B12068C0687D
:102CF000C0F34000B0B16FF002002168086101200C
:102D000020772068806900F0030018B12046FFF7A3
:102D1000E5FF05E0204600F003F9204600F0E2F967
:102D20000020207720680069C0F38000D8B12068B7
:102D3000C068C0F38000B0B16FF004002168086182
:102D4000022020772068806900F4407018B1204686
:102D5000FFF7C4FF05E0204600F0E2F8204600F04F
:102D6000C1F90020207720680069C0F3C000D8B105
:102D70002068C068C0F3C000B0B16FF008002168DF
:102D80000861042020772068C06900F0030018B1B2
:102D90002046FFF7A3FF05E0204600F0C1F82046DB
:102DA00000F0A0F90020207720680069C0F300102F
:102DB000D8B12068C068C0F30010B0B16FF0100047
:102DC00021680861082020772068C06900F44070FD
:102DD00018B12046FFF782FF05E0204600F0A0F87A
:102DE000204600F07FF9002020772068006900F07D
:102DF000010058B12068C06800F0010030B16FF0E8
:102E0000010021680861204600F06EF92068006921
:102E1000C0F3C01058B12068C068C0F3C01030B112
:102E20006FF08000216808612046FFF759FD206897
:102E30000069C0F3801058B12068C068C0F38010EA
:102E400030B16FF0400021680861204600F05EF963
:102E500020680069C0F3401058B12068C068C0F312
:102E6000401030B16FF02000216808612046FFF764
:102E700038FD10BD10B586B00446002002900390C6
:102E8000049005902049206888421FD100BF1F4848
:102E9000806940F020001D4988610846806900F083
:102EA0002000019000BF00BF881402900220039010
:102EB000059002A91648FEF755FC00BF1549486861
:102EC00040F0E06040F4805048601AE01249206809
:102ED000884216D100BF0D48806940F004000B49BC
:102EE00088610846806900F00400019000BF00BFBF
:102EF0000F20029002200390059002A90748FEF7D8
:102F000031FC06B010BD0000000800400010024077
:102F10000014014000000140000C00400008014086
:102F200070472DE9F04104460D461646002700BFC4
:102F300094F83C00012802D10220BDE8F081012074
:102F400084F83C0000BF36B1042E1BD0082E31D0CF
:102F50000C2E5ED145E02946206801F08BFB2068ED
:102F6000806940F00800216888612068806920F04D
:102F70000400216888612068806929690843216804
:102F8000886148E02946206801F0ACFB2068806930
:102F900040F40060216888612068806920F48060C6
:102FA0002168886120688069296940EA01202168D8
:102FB000886130E02946206801F0D2FB2068C069B2
:102FC00040F008002168C8612068C06920F0040052
:102FD0002168C8612068C069296908432168C861FF
:102FE00019E02946206801F0F7FB2068C06940F429
:102FF00000602168C8612068C06920F48060216891
:10300000C8612068C069296940EA01202168C86157
:1030100001E0012700BF00BF00BF002084F83C0092
:1030200000BF384689E710B504460CB9012010BD31
:1030300094F83D0028B9002084F83C00204600F0B8
:1030400025F8022084F83D00211D206801F0C4FA13
:10305000012084F8460000BF84F83E0001213F2093
:103060000155402001554120015500BF00BF0120FE
:1030700084F8420043200155442001554520015564
:1030800000BF012084F83D000020D0E708B5124AB7
:10309000016891420DD100BF1049C96941F0040196
:1030A0000E4AD1611146C96901F00401009100BFC7
:1030B00011E00B4A016891420DD100BF0749C9696F
:1030C00041F00801054AD1611146C96901F00801C2
:1030D000009100BF00BF08BD000800400010024082
:1030E000000C00407047000010B5044606492068F7
:1030F0000968884207D1FDF777FA00F0D7FFFDF79E
:103100004BFBFDF72BFB10BD20030020704710B5D3
:1031100004460CB9012010BDA06900B100E000BF59
:1031200094F8410028B9002084F84000204600F0BF
:1031300029F8242084F841002068C06820F4005059
:103140002168C860204601F071FB2068006920F406
:103150009040216808612068406920F02A002168B9
:1031600048612068C06840F400502168C8600020B1
:103170006064202084F8410084F8420000206063ED
:1031800000BFC8E710B586B0044600200290039047
:10319000049005909149206888422FD100BF904843
:1031A000C06940F400208E49C8610846C06900F437
:1031B0000020019000BF00BF00BF0846806940F0BA
:1031C000100088610846806900F01000019000BF7F
:1031D00000BF08150290022003900320059002A969
:1031E0008048FEF7BFFA4FF4006002900020039081
:1031F000049002A97B48FEF7B5FAECE07A49206812
:1032000088423BD100BF7648C06940F480107449C1
:10321000C8610846C06900F48010019000BF00BF7B
:1032200000BF0846806940F0100088610846806948
:1032300000F01000019000BF00BF00BF0846806989
:1032400040F0200088610846806900F0200001906D
:1032500000BF00BF88140290022003900320059055
:1032600002A96048FEF77EFA042002900020039035
:10327000049002A95D48FEF775FAACE05C4920684D
:1032800088422FD100BF5648806940F4804054499D
:1032900088610846806900F48040019000BF00BF4B
:1032A00000BF0846806940F00400886108468069D4
:1032B00000F00400019000BF00BF481502900220FA
:1032C00003900320059002A94A48FEF74BFA4FF4F9
:1032D0008060029000200390049002A94548FEF708
:1032E00041FA78E044492068884236D100BF3C4822
:1032F000C06940F400303A49C8610846C06900F42A
:103300000030019000BF00BF00BF0846806940F058
:10331000200088610846806900F02000019000BF0D
:1033200000BF20200290022003900320059002A9F4
:103330002E48FEF717FA40200290002003900490D8
:1033400002A92A48FEF70EFA00BF2C49486840F04F
:10335000E06040F0080048603DE02949206888426C
:1033600039D100BF1E48C06940F480201C49C861A3
:103370000846C06900F48020019000BF00BF00BF74
:103380000846806940F0200088610846806900F0A6
:103390002000019000BF00BF88150290022003901A
:1033A0000320059002A91148FEF7DCF94FF40070E4
:1033B000029000200390049002A90C48FEF7D2F975
:1033C00000BF0E49486820F0300040F0E06040F057
:1033D0003000486000BF06B010BD0000004C004047
:1033E0000010024000100140005000400014014055
:1033F0000038014000080140004400400000014046
:10340000004800402DE9F84F04460E4617469946FD
:103410004FF0000A94F8410020284AD106B117B9AC
:103420000120BDE8F88F00206064212084F841006D
:10343000FEF750FB8246A784E784A068B0F5805F62
:1034400004D1206910B90025B04602E035464FF09E
:1034500000081BE05346002280212046CDF8009052
:1034600001F062FA08B10320DBE745B9B8F80000C3
:10347000C0F308002168486008F1020803E02878DA
:10348000216848606D1CE08C401EE084E08C0028C0
:10349000E0D15346002240212046CDF8009001F0B3
:1034A00043FA08B10320BCE7202084F84100002043
:1034B000B7E70220B5E700BFFEE7000010B500F057
:1034C000D1FF00F0EBFF012240210448FEF7FCFA97
:1034D000012280210148FEF7F7FA10BD000C0140DF
:1034E00070B5044600F0DAFF002240211048FEF7D4
:1034F000EBFA002518E0E20980210D48FEF7E4FA16
:103500006006040E052001F01DFB01224021084841
:10351000FEF7DAFA052001F015FB002240210448ED
:10352000FEF7D2FA681CC5B2082DE4DB70BD0000BE
:10353000000C014010B500F0B1FF012280210C48C1
:10354000FEF7C2FA012240210948FEF7BDFA042025
:1035500001F0F8FA002280210548FEF7B5FA0420B0
:1035600001F0F0FA002240210148FEF7ADFA10BD4B
:10357000000C014010B500F091FF002240210C48E2
:10358000FEF7A2FA002280210948FEF79DFA0420E6
:1035900001F0D8FA012240210548FEF795FA0122F0
:1035A00080210348FEF790FA042001F0CBFA10BD09
:1035B000000C014010B5002400F062FF01228021C0
:1035C0001148FEF781FA012001F0BCFA01224021E6
:1035D0000D48FEF779FA012001F0B4FA07E0601C0B
:1035E000C4B2FA2C03DDFFF7C5FF012010BD802116
:1035F0000548FEF757FA0028F1D100224021024881
:10360000FEF762FA0020F1E7000C014070B50546B4
:103610000C46FFF78FFF7A20FFF762FFFFF7CAFF24
:103620002846FFF75DFFFFF7C5FF2046FFF758FF6D
:10363000FFF7C0FFFFF79EFF70BD00000EB5002032
:103640000090019002903948394908608115384846
:10365000816001210173002101754FF46021C16176
:10366000002033494860082131480161FDF716FB0D
:1036700008B1FDF743F908200090012001900520D2
:10368000029069462A48FDF7CDF908B1FDF736F9F1
:10369000092000900220019069462548FDF7C2F9F3
:1036A00008B1FDF72BF90A2000900320019069462C
:1036B0001F48FDF7B7F908B1FDF720F90B2000907E
:1036C0000420019069461A48FDF7ACF908B1FDF7EE
:1036D00015F90C2000900520019069461448FDF76B
:1036E000A1F908B1FDF70AF90D200090062001901C
:1036F00069460F48FDF796F908B1FDF7FFF80E206F
:1037000000900720019069460948FDF78BF908B140
:10371000FDF7F4F80F200090082001906946044856
:10372000FDF780F908B1FDF7E9F80EBD002401406E
:103730006C00002010B50B480B4908601020486051
:10374000002109488160C1600161416101764176D3
:103750008176C17601774177FDF788FC08B1FDF7E6
:10376000CDF810BD00640040E000002008B500BFA7
:103770000A48406940F0010008494861084640692C
:1037800000F00100009000BF00BF002211460B2096
:10379000FEF726FA0B20FEF713FA08BD00100240D0
:1037A00000B585B00020019002900390049000BF06
:1037B0006448806940F04000624988610846806939
:1037C00000F04000009000BF00BF00BF08468069C5
:1037D00040F0800088610846806900F08000009019
:1037E00000BF00BF00BF0846806940F0100088613C
:1037F0000846806900F01000009000BF00BF00BFC5
:103800000846806940F0040088610846806900F03D
:103810000400009000BF00BF00BF0846806940F070
:10382000080088610846806900F00800009000BF29
:1038300000BF00BF0846806940F02000886108464C
:10384000806900F02000009000BF00BF00BF084664
:10385000806940F4807088610846806900F4807057
:10386000009000BF00BF002274213748FEF72CF9FA
:10387000012208213448FEF727F900223F2133486E
:10388000FEF722F900224FF4FE413148FEF71CF901
:10389000002218212F48FEF717F90420019001207B
:1038A0000290022003900320049001A92648FDF70E
:1038B00059FF08200190012002900020039003206E
:1038C000049001A92048FDF74DFF702001900120D0
:1038D0000290002003900220049001A91A48FDF7ED
:1038E00041FF3F2001900120029000200390022020
:1038F000049001A91548FDF735FF4FF4F8600190D9
:1039000000200290039001A91048FDF72BFF4FF40F
:10391000FE400190012002900020039002200490BC
:1039200001A90B48FDF71EFF18200190012002900D
:10393000002003900220049001A90648FDF712FF21
:1039400005B000BD0010024000180140001C0140FD
:10395000002001400014014010B50E480E490860D7
:103960004FF48270486000210B488160C1600161A2
:1039700041614FF4802181612821C16100210162F0
:10398000416281620A21C162FEF7B4FE08B1FCF710
:10399000B5FF10BD003001400801002010B50E48F1
:1039A0000E4908604FF48270486000210B48816026
:1039B000C160016141614FF4007181610021C16109
:1039C0000162416281620A21C162FEF793FE08B181
:1039D000FCF794FF10BD000000380040600100209B
:1039E00000B58BB0242102A8FCF7D9FB0020009081
:1039F00001901848184908600020486000211648C6
:103A0000816044F61F61C1600021016141618161F3
:103A100003200290002003900120049000200590D4
:103A20000690079001200890002009900A9002A9B2
:103A30000948FEF7FBFF08B1FCF760FF002000908B
:103A4000019069460448FEF74DFF08B1FCF756FFA8
:103A50000BB000BD002C0140B801002000B58BB0B8
:103A6000242102A8FCF79BFB0020009001904FF05E
:103A70008040174908600020486000211448816098
:103A800044F61F61C1600021016181610320029041
:103A900000200390012004900020059006900790DC
:103AA00001200890002009900A9002A90848FEF71A
:103AB000BDFF08B1FCF722FF00200090019069468D
:103AC0000348FEF70FFF08B1FCF718FF0BB000BD6D
:103AD0000002002000B58BB0242102A8FCF75FFB98
:103AE00000200090019018481849086000204860A4
:103AF00000211648816044F61F61C1600021016108
:103B00008161032002900020039001200490002096
:103B100005900690079001200890002009900A90D7
:103B200002A90A48FEF782FF08B1FCF7E7FE002071
:103B30000090019069460548FEF7D4FE08B1FCF7F5
:103B4000DDFE0BB000BD0000000400404802002074
:103B500000B589B00020079008901C216846FCF74A
:103B60001EFB1848184908600020486000211648CC
:103B700081604FF6FF71C160002101618161FFF733
:103B800052FA08B1FCF7BAFE00200790089007A986
:103B90000D48FEF7A7FE08B1FCF7B0FE60200090CC
:103BA0000020019002900490002269460648FFF729
:103BB000B8F908B1FCF7A2FE0348FFF75BF909B0BA
:103BC00000BD0000000800409002002000B589B050
:103BD0000020079008901C216846FCF7E0FA244872
:103BE000244908604720486000212248816042F251
:103BF0000F71C160002101618161FFF714FA08B102
:103C0000FCF77CFE00200790089007A91948FEF7F2
:103C100069FE08B1FCF772FE602000900020019060
:103C200002900490002269461248FFF77AF908B121
:103C3000FCF764FE042269460E48FFF772F908B1EA
:103C4000FCF75CFE082269460A48FFF76AF908B1EA
:103C5000FCF754FE0C2269460648FFF762F908B1EA
:103C6000FCF74CFE0348FFF705F909B000BD000062
:103C7000000C0040D80200201CB5002000900190EC
:103C80000E480F4908604720486000210C488160B9
:103C900042F20F71C16000218161FEF771FE08B12F
:103CA000FCF72CFE00200090019069460448FEF7C6
:103CB00019FE08B1FCF722FE1CBD000000100040F8
:103CC0002003002000B58BB0242102A8FCF767FA7E
:103CD00000200090019018481849086000204860B2
:103CE00000211648816044F61F61C1600021016116
:103CF0004161816103200290002003900120049023
:103D0000002005900690079001200890002009905F
:103D10000A9002A90948FEF789FE08B1FCF7EEFDFA
:103D200000200090019069460448FEF7DBFD08B1D1
:103D3000FCF7E4FD0BB000BD003401406803002037
:103D400010B50B480B4908604FF4E1304860002182
:103D500008488160C16001610C21416100218161DD
:103D6000C161FFF7D4F908B1FCF7C8FD10BD000030
:103D7000004C0040B003002010B50B480B49086010
:103D80004FF4E1304860002108488160C160016162
:103D90000C21416100218161C161FFF7B8F908B1CF
:103DA000FCF7ACFD10BD000000500040F8030020FF
:103DB00010B50B480B4908604FF4E1304860002112
:103DC00008488160C16001610C214161002181616D
:103DD000C161FFF79CF908B1FCF790FD10BD000030
:103DE000003801404004002010B50B480B49086022
:103DF0004FF4E1304860002108488160C1600161F2
:103E00000C21416100218161C161FFF780F908B196
:103E1000FCF774FD10BD0000004400408804002041
:103E200010B50B480B4908604FF4E13048600021A1
:103E300008488160C16001610C21416100218161FC
:103E4000C161FFF764F908B1FCF758FD10BD00002F
:103E500000480040D004002010B509480949086016
:103E60000820486002210748816000218161C1610A
:103E70000162FDF707FF08B1FCF740FD10BD00002F
:103E8000005C00401805002000BFFEE770B500246C
:103E90001A48C26841691A48007843B21748683026
:103EA00000F06CFA1548D0F8884000212046FCF755
:103EB00089FA10D22046FCF767FA1249096848636C
:103EC000002210211048FDF7FFFD012220210E489D
:103ED000FDF7FAFD11E084F000452846FCF754FA9E
:103EE000084909684863012210210748FDF7ECFDE5
:103EF000002220210448FDF7E7FD70BD580800208E
:103F00001A000020D80200200010014070B50024E3
:103F10001C48D0F89C20D0F8A4101B48007843B26D
:103F20001848F83000F02AFA1648D0F81841002155
:103F30002046FCF747FA11D22046FCF725FA134930
:103F400009688863012251021148FDF7BDFD002276
:103F50004FF480710E48FDF7B7FD12E084F0004584
:103F60002846FCF711FA09490968886300224FF4D2
:103F700000710748FDF7A8FD012211020448FDF772
:103F8000A3FD70BD580800201A000020D8020020B0
:103F90000010014070B500241C48D0F82C21D0F846
:103FA00034111B48007843B21A4800F0E7F917486B
:103FB000D0F8A84100212046FCF704FA11D220468F
:103FC000FCF7E2F914490968C86300224FF48061E4
:103FD0001248FDF779FD0122D1021048FDF774FD6A
:103FE00012E084F000452846FCF7CEF90A4909683A
:103FF000C863012291020948FDF766FD00224FF4D3
:1040000000610648FDF760FD70BD00005808002003
:104010001A000020E0090020D80200200020014002
:1040200070B500241C48D0F8BC21D0F8C4111B483E
:10403000007843B21A4800F0A1F91748D0F8384286
:1040400000212046FCF7BEF911D22046FCF79CF96E
:10405000144909680864012251031348FDF734FD2F
:1040600000224FF480411048FDF72EFD12E084F04D
:1040700000452846FCF788F90A49096808640022C7
:104080004FF400510848FDF71FFD01229103064837
:10409000FDF71AFD70BD0000580800201A0000202E
:1040A000700A0020D8020020002001407FB53A4865
:1040B0000068406A00B2ADF8080038480068406AFD
:1040C00000B2ADF80A0036480068406A00B2ADF8A8
:1040D0000C0034480068406A00B2ADF80E002E486B
:1040E0000068C06A00B2ADF800002C480068C06AE1
:1040F00000B2ADF802002A480068C06A00B2ADF80C
:10410000040028480068C06A00B2ADF80600002527
:1041100000243DE03DF9140000EBD07102AA32F812
:104120001420A2EB61010DB204EBC4011E4A02EBA4
:104130000111B1F908103DF9142001FB02F000EB68
:10414000D07105EB610104EBC402174B03EB0212C3
:10415000516004EBC4011A4602EB01114868FCF7F8
:10416000F1F806461149FCF7AFF804EBC4010E4A1A
:1041700002EB0111086104EBC400114601EB0010D1
:10418000406804EBC40102EB01110860601C44B2FA
:10419000042CBFDB7FBD0000B8010020000200201E
:1041A000480200206803002058080020E5F29F3EE6
:1041B000704700BFFEE710B56420FDF7BFFAAE20E0
:1041C00000F06EFC202000F06BFC102000F068FC7A
:1041D000B02000F065FCC82000F062FC002000F078
:1041E0005FFC102000F05CFC402000F059FC8120B6
:1041F00000F056FCFF2000F053FCA12000F050FC22
:10420000A62000F04DFCA82000F04AFC3F2000F062
:1042100047FCA42000F044FCD32000F041FC002027
:1042200000F03EFCD52000F03BFCF02000F038FC14
:10423000D92000F035FC222000F032FCDA2000F01A
:104240002FFC122000F02CFCDB2000F029FC2020A9
:1042500000F026FC8D2000F023FC142000F020FC50
:10426000AF2000F01DFC10BD70B504460D4605F1F1
:10427000B001C8B200F014FC102141EA141000F0A3
:104280000FFC04F00F0141F0010000F009FC70BDCB
:104290002DE9F0470646894617469A464FF0000832
:1042A00000240025BAF1010F03D0BAF1020F5ED14C
:1042B00025E020E0785D203800F0FF087E2E04DD48
:1042C000002609F1010000F0FF0949463046FFF7DA
:1042D000CBFF002409E008EB4801264A02EB41012C
:1042E000085D00F0E4FB601CC4B2062CF3DBB01DDB
:1042F000C6B2681CC5B2785D0028DBD137E032E079
:10430000785D203800F0FF08782E04DD002609F1E2
:10431000010000F0FF0949463046FFF7A5FF0024E1
:1043200007E004EB0811144A505C00F0C0FB601C6D
:10433000C4B2082CF5DB09F10100C1B23046FFF729
:1043400093FF002408E004EB081108310A4A505C8E
:1043500000F0ADFB601CC4B2082CF4DB06F10800D1
:10436000C6B2681CC5B2785D0028C9D100BF00BFC5
:10437000BDE8F087604D0008884F00082DE9F04146
:1043800004460D4616461F46002F51D0E0682061B6
:1043900031462846FBF760FFE0602168E068FBF7E4
:1043A00061FF2062D4E90301FBF756FF8046A16854
:1043B000FBF758FFE0616168E068FBF753FF804658
:1043C0006169FBF7F7FE6061A06980F00048404634
:1043D0006169FBF7F7FF03D8A06980F0004007E0B0
:1043E000D4E90501FBF7EEFF01D8A06900E06069A0
:1043F00060616169206AFBF7DDFE8046E169FBF7D9
:10440000D9FE2062606A80F000484046216AFBF7CE
:10441000D9FF03D8606A80F0004007E0D4E90801C2
:10442000FBF7D0FF01D8606A00E0206A206201E05B
:1044300000202062BDE8F0817047000008B50849FF
:104440000968C9084FF47A72B1FBF2F14143009157
:1044500000BF00BF00994A1E00920029F9D108BD93
:104460000C0000201FB54020009001200190022088
:10447000039069460148FDF775F91FBD000C014026
:104480001FB5802000900020019002200390694613
:104490000148FDF767F91FBD000C01401FB58020E2
:1044A0000090112001900220039069460148FDF719
:1044B00059F91FBD000C01407047000070B504465B
:1044C000002619492069FBF77DFF04D317492069AD
:1044D000FBF76EFF01D2002070BD132513E0681EAC
:1044E00004F1180151F8201004F1180040F82510CB
:1044F000681E04F1180252F820103046FBF75AFEED
:104500000646681EC5B2002DE9DC2069A061304670
:104510002169FBF74FFE064605493046FBF7D4FEFE
:10452000E0600020D8E7000000008C4300008CC34E
:104530000000A04110B5FDF7D3FA10BD00B595B04D
:1045400028210BA8FBF72BFE142106A8FBF727FE5A
:1045500018216846FBF723FE01200B9000040C9005
:1045600000200D9001200F9002201290C1031391A2
:104570004FF4E01114910BA8FDF78AFE08B1FCF787
:10458000BDF90F20069002200790002008904FF4FC
:104590008060099000200A90022106A8FDF754FDD2
:1045A00008B1FCF7ABF9122000904FF400400290E4
:1045B000002005906846FDF7AFFC08B1FCF79EF9B6
:1045C00015B000BD7047000010B50248FEF787FB2C
:1045D00010BD00002003002010B50268204B984257
:1045E0000ED0204B98420BD0B0F1804F08D01E4B1C
:1045F000984205D01D4B984202D01D4B984203D1E2
:1046000022F070024B681A43154B98420ED0154B9E
:1046100098420BD0B0F1804F08D0134B984205D090
:10462000124B984202D0124B984203D122F44072AE
:10463000CB681A4322F080034C6943EA040202600B
:104640008B68C3620B688362054B984202D0054BAE
:10465000984201D10B6903630123436110BD00003F
:10466000002C0140003401400004004000080040DC
:10467000000C004030B5026A056A25F001050562AC
:104680004368846924F0700424F003040D682C430B
:1046900022F002028D682A43104DA84200D103E0A7
:1046A0000F4DA84206D100BF22F00802CD682A4370
:1046B00022F00402094DA84202D0094DA84207D1B8
:1046C00023F4807323F400734D692B438D692B43CE
:1046D000436084614D684563026230BD002C014037
:1046E0000034014030B5026A056A25F01005056204
:1046F0004368846924F4E04424F440740D6844EA77
:10470000052422F020028D6842EA0512124DA842CB
:1047100000D103E0114DA84207D100BF22F0800272
:10472000CD6842EA051222F040020B4DA84202D0A9
:104730000A4DA84209D123F4806323F400634D6934
:1047400043EA85038D6943EA8503436084614D68CC
:104750008563026230BD0000002C0140003401403E
:1047600030B5026A056A25F4807505624368C4693C
:1047700024F0700424F003040D682C4322F400722A
:104780008D6842EA0522124DA84200D103E0114D86
:10479000A84207D100BF22F40062CD6842EA052298
:1047A00022F480620A4DA84202D00A4DA84209D1E3
:1047B00023F4805323F400534D6943EA05138D69B4
:1047C00043EA05134360C4614D68C563026230BDAE
:1047D000002C01400034014030B5036A056A25F41D
:1047E000805505624468C26922F4E04222F44072B6
:1047F0000D6842EA052223F400538D6843EA05332D
:10480000084DA84202D0084DA84204D124F48044A7
:104810004D6944EA85144460C2614D6805640362D1
:1048200030BD0000002C01400034014070B504464A
:104830002168096921F44051E2681143226811613D
:104840002269A1681143626941EA02052168C968C9
:1048500041F20C62914329432268D1602168496981
:1048600021F44071A2691143226851612D4A2168E7
:10487000914202D1FDF7C4FC01E0FDF7B1FC00EB71
:10488000C00101EB001162689200B1FBF2F100EB94
:10489000C00202EB001263689B00B2FBF3F26423D8
:1048A000B2FBF3F202EBC20303EB0212A1EB8201B3
:1048B000322202EB01116422B1FBF2F101F0F001AE
:1048C00000EBC00202EB001263689B00B2FBF3F244
:1048D0006423B2FBF3F201EB021200EBC00101EB27
:1048E000001163689B00B1FBF3F100EBC00303EB25
:1048F00000136668B600B3FBF6F36426B3FBF6F369
:1049000003EBC30606EB0313A1EB8301322303EB96
:1049100001116423B1FBF3F101F00F01114422688E
:10492000916070BD003801402DE9F04104460D460C
:1049300017469846069E34E0701C88B32EB1FDF7EA
:10494000C9F8A0EB0800B0422BD900BF00BF216816
:104950000C3151E8001F21F4D07021680C3141E87E
:104960000002002AF3D100BF00BF00BF216814314C
:1049700051E8001F21F001002168143141E80002D4
:10498000002AF3D100BF202084F8410084F84200BF
:1049900000BF002084F8400000BF0320BDE8F08184
:1049A000FFE7206800682840A84201D1012000E00C
:1049B0000020B842C0D00020F0E710B50446002027
:1049C00010BD01460020704710B50446012024F8B0
:1049D000400F00202080A0802082403C10BD014676
:1049E0004FF43F42B1F840009043A1F8400000204E
:1049F000704702460020704700BFFEE710B524490B
:104A00000968244A1268891A234A12688818FBF731
:104A100099FC224948611E4909681E4A12681144DE
:104A20001D4A1268881AFBF78DFC1C49C1F8A400C6
:104A300017490968174A12681144174A12688818FA
:104A4000FBF780FC1549C1F8340111490968114A86
:104A50001268891A104A1268881AFBF773FC0F490A
:104A6000C1F8C401002408E004EBC4010B4A02EBC6
:104A70000110FFF723FD601C44B2042CF4DBFFF7A8
:104A800005FAFFF743FAFFF785FAFFF7C9FA10BDF9
:104A900024000020280000202C00002058080020BE
:104AA00010B5044621460020FEF7B0FD10BD10B53C
:104AB000044621464020FEF7A9FD10BD014A0249E7
:104AC00000F02FB8B54B00086800002002480068CD
:104AD000C0F30220704700000CED00E010B5002884
:104AE00004DB0A07130E054A135406E00A07140EE6
:104AF000034A00F00F031B1FD45410BD00E400E074
:104B000018ED00E002E008C8121F08C1002AFAD11F
:104B100070477047002001E001C1121F002AFBD13D
:104B200070472DE9F04116460F460446002503E084
:104B30003946B047641C6D1C20780028F8D12846FF
:104B4000BDE8F08171B50098B0F5617F13D90024FC
:104B500004E04FF46170FFF7F5FF641C4FF46171DE
:104B60000098B0FBF1F0A042F3D80098B0FBF1F24E
:104B700001FB120000904FF0E0208469482100986A
:104B800001FB1046002E08DB00BF4FF0E0208569D6
:104B9000A5420CDAB542F8DA09E00548064400BF40
:104BA0004FF0E0208569A542FADDB542F8DC78BD1A
:104BB0004019010013B50C464FF4FA7301226946FF
:104BC0000248FEF71FFC00981CBD000040040020B6
:104BD0001FB500200090019002900390FCF78CFF1D
:104BE000FFF7ACFCFEF7DCFDFEF7C0FDFEF7F8FEBC
:104BF000FEF734FFFEF76EFFFEF7E8FFFFF73CF825
:104C0000FFF760F8FEF796FDFEF7A6FEFEF7C6FE7C
:104C1000FFF796F8FFF7B0F8FFF7CAF8FFF7E4F8E8
:104C2000FFF7FEF8FFF718F9FEF792FFFEF706FD13
:104C3000FEF744FCFFF7BFFA0B48FBF763FE0822C0
:104C400069460948FCF752F90DE004210748FCF7D2
:104C500031FF012306A203210020FFF719FB4FF4C7
:104C6000FA60FCF76BFDF0E76C00002000180140D3
:104C700048656C546563204175746F6D6174696F2C
:104C80006E00000002030405060708090A0B0C0D5C
:104C90000E0F1010010202030405060708090A0B93
:104CA0000C0D0E0F101001020000000000000000AB
:104CB00001020304060708090000000001020304C2
:104CC000000202FAFAAAAAFFFFAAAAFAFA0202004E
:104CD000004272723A7A424B5B526262137766000C
:104CE000203C1CFFFFB0B424243F3FE4E4242420F4
:104CF000020203FFFF0001051D59C1FF7F010101F1
:104D0000000000F8F8484C4F4B4A4848F8F80000BB
:104D1000000000FFFF44444444444444FFFF0000BB
:104D2000202424E4E42424243010FFFF10F0F000B9
:104D3000081C1F0B0C0D4F6E341C0F23607F3F00AF
:104D400080C060F8FF070200FFFFE0703C1C080015
:104D50000000007F7F0406033F7F404040787800DA
:104D60000000000000000000002F0000000007000D
:104D7000070000147F147F1400242A7F2A12006287
:104D80006408132300364955225000000503000033
:104D900000001C224100000041221C000014083EBB
:104DA00008140008083E0808000000A06000000881
:104DB00008080808000060600000002010080402D5
:104DC000003E5149453E0000427F40000042615193
:104DD0004946002141454B31001814127F1000272D
:104DE00045454539003C4A494930000171090503F0
:104DF00000364949493600064949291E0000363621
:104E00000000000056360000000814224100001483
:104E10001414141400004122140800020151090660
:104E200000324959513E007C1211127C007F4949E1
:104E30004936003E41414122007F4141221C007F12
:104E400049494941007F09090901003E4149497A20
:104E5000007F0808087F0000417F4100002040419A
:104E60003F01007F08142241007F40404040007F06
:104E7000020C027F007F0408107F003E4141413E4A
:104E8000007F09090906003E4151215E007F091992
:104E900029460046494949310001017F0101003F8F
:104EA0004040403F001F2040201F003F4038403F0F
:104EB0000063140814630007087008070061514973
:104EC000454300007F41410000552A552A55000006
:104ED00041417F0000040201020400404040404084
:104EE000000001020400002054545478007F48441C
:104EF000443800384444442000384444487F003853
:104F00005454541800087E0901020018A4A4A47C7B
:104F1000007F080404780000447D40000040808445
:104F20007D00007F102844000000417F4000007C8D
:104F300004180478007C0804047800384444443899
:104F400000FC242424180018242418FC007C0804E5
:104F5000040800485454542000043F444020003CBE
:104F60004040207C001C2040201C003C4030403C45
:104F7000004428102844001CA0A0A07C00446454D5
:104F80004C44141414141414000000000000000019
:104F90000000000000000000000000F80000000019
:104FA000000000333000000000100C06100C06005A
:104FB000000000000000000040C07840C0784000C1
:104FC000043F04043F040400007088FC0830000023
:104FD000001820FF211E0000F008F000E01800007B
:104FE00000211C031E211E0000F008887000000034
:104FF0001E2123241927211010160E000000000086
:105000000000000000000000000000E018040200A2
:10501000000000071820400000020418E000000013
:105020000040201807000000404080F08040400011
:105030000202010F01020200000000F00000000067
:105040000101011F0101010000000000000000003B
:1050500080B07000000000000000000000000000B0
:105060000001010101010101000000000000000039
:1050700000303000000000000000000080601804D4
:10508000006018060100000000E010080810E000B1
:10509000000F102020100F00001010F8000000007A
:1050A0000020203F202000000070080808887000C1
:1050B0000030282422213000003008888848300041
:1050C0000018202020110E000000C02010F8000061
:1050D00000070424243F240000F8088888080800FA
:1050E0000019212020110E0000E01088881800000F
:1050F000000F112020110E0000380808C8380800E1
:105100000000003F00000000007088080888700060
:10511000001C222121221C0000E010080810E000E1
:105120000000312222110F00000000C0C00000006A
:10513000000000303000000000000080000000008F
:105140000000806000000000000080402010080087
:105150000001020408102000404040404040400050
:10516000040404040404040000081020408000002B
:105170000020100804020100007048080808F00030
:105180000000003036010000C030C828E810E00000
:105190000718272423140B000000C038E00000008B
:1051A000203C23020227382008F8888888700000F5
:1051B000203F202020110E00C030080808083800C9
:1051C000071820202010080008F808080810E00040
:1051D000203F202020100F0008F88888E8081000E1
:1051E000203F20202320180008F88888E8081000B5
:1051F000203F200003000000C030080808380000ED
:1052000007182020221E020008F808000008F808ED
:10521000203F210101213F20000808F80808000074
:105220000020203F2020000000000808F8080800A7
:10523000C08080807F00000008F888C0281808001F
:10524000203F20012638200008F808000000000058
:10525000203F20202020300008F8F800F8F808004F
:10526000203F003F003F200008F830C00008F80849
:10527000203F200007183F00E01008080810E00059
:105280000F10202020100F0008F808080808F00070
:10529000203F210101010000E01008080810E00093
:1052A0000F18242438504F0008F888888888700028
:1052B000203F2000030C30200070880808083800C8
:1052C0000038202121221C00180808F808081800BE
:1052D0000000203F2000000008F808000008F8083F
:1052E000001F202020201F000878880000C83808F0
:1052F000000007380E010000F80800F80008F80068
:10530000033C0700073C0300081868808068180801
:1053100020302C03032C30200838C800C83808007F
:105320000000203F2000000010080808C8380800CE
:105330002038262120201800000000FE0202020072
:105340000000007F40404000000C30C00000000022
:10535000000000010638C00000020202FE0000004A
:10536000004040407F0000000000040202020400F0
:10537000000000000000000000000000000000002D
:105380008080808080808080000202040000000015
:10539000000000000000000000008080808000000D
:1053A0000019242222223F2008F8008080000000FB
:1053B000003F112020110E000000008080800000BE
:1053C000000E112020201100000000808088F800CD
:1053D000000E112020103F200000808080800000FF
:1053E000001F222222221300008080F08888881863
:1053F0000020203F2020000000008080808080006E
:10540000006B94949493600008F800808080000002
:10541000203F210000203F200080989800000000DD
:105420000020203F2020000000000080989800000D
:1054300000C08080807F000008F80000808080002D
:10544000203F24022D302000000808F80000000052
:105450000020203F2020000080808080808080000D
:10546000203F20003F20003F80800080808000009F
:10547000203F210000203F2000008080808000002D
:10548000001F202020201F0080800080800000005E
:1054900080FFA12020110E0000000080808080008D
:1054A000000E112020A0FF8080808000808080007E
:1054B00020203F21200001000000808080808000AB
:1054C0000033242424241900008080E08080000020
:1054D0000000001F2020000080800000008080006D
:1054E000001F202020103F208080800000808080CE
:1054F00000010E300806010080800080008080805E
:105500000F300C030C300F00008080008080800082
:105510000020312E0E3120008080800000808080AD
:1055200080818E701806010000808080808080005D
:105530000021302C2221300000000000807C02027B
:1055400000000000003F404000000000FF0000009D
:1055500000000000FF0000000002027C800000004C
:105560000040403F00000000000601010202040468
:105570000000000000000000985500080000002016
:105580006C000000044B0008045600086C0000206A
:10559000D40E0000144B00080000000010000000B2
:1055A000010000000024F4000100000000000000E1
:1055B00000000100000000000000000000000000EA
:1055C00000000000000000000000000000000000DB
:1055D00000000000000000000000000000000000CB
:1055E00000000000000000000000000000000000BB
:1055F00000000000000000000000000000000000AB
:0456000000000000A6
:0400000508000131BD
:00000001FF
