:020000040800F2
:100000001810002045010008254D00083F3C00085D
:1000100055490008510D0008715500080000000006
:1000200000000000000000000000000089500008EF
:10003000310E000800000000095000088B50000835
:100040005F0100085F0100085F0100085F01000810
:100050005F0100085F0100085F0100085F01000800
:100060005F0100085F0100085F010008550D0008EE
:100070005F0100085F0100085F0100085F010008E0
:100080005F0100085F010008A90A00085F0100087D
:100090005F0100085F0100085F0100085F010008C0
:1000A0005F0100085F0100085F0100085F010008B0
:1000B0005F0100085F0100085F0100085F010008A0
:1000C0005F0100085F0100085F0100085F01000890
:1000D0005F0100085F0100085F0100085F01000880
:1000E0005F0100085F0100085F0100085F01000870
:1000F0005F0100085F0100085F0100085F01000860
:100100005F0100085F0100085F0100085F0100084F
:100110005F0100085F0100081D5100085F01000831
:100120005F0100085F0100085F0100085F0100082F
:10013000DFF80CD000F034FC00480047B57100082F
:10014000181000200648804706480047FEE7FEE7F3
:10015000FEE7FEE7FEE7FEE7FEE7FEE7FEE7FEE777
:100160001B510008310100082DE9F0410024061B55
:10017000254671F1000605DA01240027D0EB0700BF
:1001800067EB0101161E73F1000605DA0027D2EBBA
:100190000702012567EB030300F010FA86460E46BE
:1001A00017469C46AC4204D00025D0EB050E65EB0B
:1001B000010624B10020D2EB000760EB030C70466F
:1001C00031463A466346BDE8F081202A04DB203AF6
:1001D00021FA02F00021704721FA02F3D040C2F167
:1001E0002002914008431946704740EA01039B07EB
:1001F00003D009E008C9121F08C0042AFAD203E09C
:1002000011F8013B00F8013B521EF9D27047D2B2FF
:1002100001E000F8012B491EFBD270470022F6E7EF
:1002200010B513460A4604461946FFF7F0FF20466C
:1002300010BD30B504460020034600E05B1C93422D
:1002400003D2E05CCD5C401BF8D030BDF0B480EA56
:100250000102D40F4200B2EB410F02D2024608461F
:1002600011464A0042D0C30DDDB2C1F3C752AD1AE8
:10027000202D35DAC1F3160141F4000204B15242D7
:10028000C5F1200602FA06F12A411044B3EBD05F13
:1002900023D0C4B1012DA0EBC35009DCF0BC4FF05A
:1002A000004202EAC352DBB200F5000000F0C0B920
:1002B000400000F1807000EBC350A0F1807040EA74
:1002C000D170490009E0490841EAC071A0EBC35070
:1002D00000F50000400800EBC350F0BC00F09FB9EF
:1002E0006142012202EB4101001BF6E7F0BC7047BE
:1002F00081F00041AAE780F00040A7E780EA010210
:1003000010B502F00043400022D04A001FD0010E79
:1003100001EB1261C0F35600C2F3560240F4000034
:1003200042F40002A0FB022000047F39140400D034
:10033000401C50EA124001D44000491EC2B20C06D3
:1003400004EBD010401C4008802A02D003E00020BB
:1003500010BD20F00100002900DA0020184310BD74
:1003600030B480EA010202F0004530F0004221F092
:10037000004013D090B1C30DD40DC2F31601C0F3E9
:100380001600E41A41F4000140F400027D34914269
:1003900001D3641C00E04900002C02DA30BC0020CC
:1003A00070474FF400000023914201D3891A0343A0
:1003B00040084FEA4101F7D151B1914202D14FF0CB
:1003C000004105E002D24FF0010101E06FF00101B0
:1003D00003EBC450284430BC00F021B92DE9FE4F96
:1003E00081EA030404F0004421F0004100944FF03E
:1003F000000B23F0004350EA01045ED052EA0304EC
:100400005BD0C3F30A54C1F30A552C44A4F2F3346D
:100410000194A0FB0254C1F3130141F48011C3F312
:10042000130343F4801301FB024400FB034E840AD0
:10043000970A44EA815447EA8357A4FB0768029568
:100440008D0A05FB07854FEA932C04FB0C54270506
:10045000029D4FEA065847EA1637B5EB08056EEBE2
:10046000070C870E920E47EA811742EA8312A7FB18
:100470000201B6EB0B0164EB00042B0D43EA0C33D5
:100480005E1844EB1C50DA465146E7FB0201C5F307
:1004900013044FEA0B3343EA14534FEA0432019C2E
:1004A00043EA0603A4F10C040294009CCDE900B4D5
:1004B00000F0FBF803B0BDE8F08F00200146F9E73B
:1004C000C10F80EAE0700844CA079623002100F0BB
:1004D000AFB896230022114600F0AAB800F00042FF
:1004E00020F00040C10DC0F3160040F400007F2949
:1004F00001DA00207047962903DCC1F19601C8405B
:1005000001E096398840002AF4D04042704720F03C
:100510000040C10DC0F3160040F400007F2901DA4D
:1005200000207047962903DCC1F19601C84070474E
:1005300096398840704700F0004230F000400AD001
:10054000C10D01F56071C0F3160042EA0151C20805
:1005500040071143704700200146704701F00043F7
:1005600030B421F0004150EA010206D00A0DA2F594
:100570006072C1F31301002A02DC30BC0020704716
:10058000440F44EAC104C100E01830BC00EBC25083
:1005900000F045B8002801DBC0F10040002901DB74
:1005A000C1F1004181427047002801DBC0F10040E9
:1005B000002901DBC1F10041884270472DE9F05F5D
:1005C0000546002092469B468846064681464024C2
:1005D0001BE02846414647462246FFF7F6FD5346B4
:1005E0005A46C01A914110D311461846224600F0CF
:1005F000E9F92D1A67EB01084F4622460120002138
:1006000000F0E0F917EB00094E41201EA4F10104AF
:10061000DFDC484631462A464346BDE8F09F0029C4
:10062000A8BF7047401C490008BF20F00100704778
:1006300010B4B0FA80FC00FA0CF050EA010404BFD8
:1006400010BC704749B1CCF1200421FA04F411FA2E
:100650000CF118BF012121430843A3EB0C01CB1D72
:100660004FEA00614FEA102042BF002010BC7047E3
:1006700000EBC35010440029A4BF10BC7047401CBD
:10068000490008BF20F0010010BC704710B5141ECF
:1006900073F1000408DA401C41F1000192185B413B
:1006A0001A4301D120F0010010BD2DE9F04D924612
:1006B0009B4611B1B1FA81F202E0B0FA80F2203229
:1006C000904600F07FF904460F4640EA0A0041EAEE
:1006D0000B0153465A46084313D0114653EA010012
:1006E00019D0C8F140025046FFF76FFD05460E468F
:1006F00050465946424600F065F9084305D00120AE
:1007000004E020463946BDE8F08D0020054346EA66
:10071000E0762C4337430A986305E40AA0EB08000F
:100720000022FD0A44EA47540A3002D5002001465F
:10073000E9E7010510196941DDE90845001969413A
:10074000BDE8F04DA2E72DE9FE4F804681EA0300A7
:10075000C00F0C46009021F0004123F00045B8EB9B
:100760000200A94105D24046214690461C460B4650
:10077000024623F00040104347D0270DC7F30A007C
:10078000C3F30A510290401A019040286BDAC3F378
:10079000130040F4801B0098924620B10023D2EB56
:1007A000030A63EB0B0B01985946C0F14002504617
:1007B00000F008F906460D4650465946019A00F0E9
:1007C00010F910EB08006141002487EA115284EA15
:1007D000E7731A4340D0009A62B3019A012A4FEAA4
:1007E000075215DC001B61EB02014FF0004202EAE8
:1007F0000752CDE90042001C41F5801132462B46DC
:10080000FFF753FF03B0BDE8F08F40462146F9E7FC
:10081000001B61EB0201001C41F5801300185B41D5
:100820002018A2F5001747EB030140EAD570B6196E
:100830006D4111E06D084FEA360645EAC0754FEA92
:100840000752001B61EB0201001C41F580114908B1
:100850004FEA30000019514132462B4603B0BDE843
:10086000F04FFFF713BF0098012240000023D0EBA8
:10087000020263EBE073009821464FEAE074B8EBA4
:10088000000061EB0401E9E783F000435BE781F0DE
:10089000004158E72DE9F04D81EA030404F0004BD4
:1008A00021F0004514464FF0000A23F0004150EAC1
:1008B000050220D054EA01021DD0C5F30A570246B2
:1008C000C5F31303C1F31300C1F30A5640F48015B6
:1008D00043F48013A7EB0608101BD64608F2FD3838
:1008E00073EB050002D308F1010801E092185B41A7
:1008F000B8F1000F03DA00200146BDE8F08D0020BA
:100900004FF48011064684460EE0171B73EB050773
:1009100005D3121B63EB050306434CEA010C49089F
:100920004FEA300092185B4150EA0107EDD152EADC
:10093000030012D082EA040083EA0501084305D0CF
:10094000101BAB4106D20122002306E000224FF02B
:10095000004302E06FF0010253101AEB06004CEB6B
:10096000085110EB0A0041EB0B01BDE8F04DFFF719
:100970008DBE70B521F0004303430CD0C1F30A557E
:100980000024D5EB040564EB0403D617AD1AB3417C
:1009900002DB0020014670BD201841EB025170BD02
:1009A000064C074D06E0E06840F0010394E80700BC
:1009B00098471034AC42F6D3FFF7BEFBB898000856
:1009C000D8980008202A04DB203A00FA02F100201F
:1009D00070479140C2F1200320FA03F3194390407D
:1009E0007047202A06DBCB17203A41FA02F043EA8F
:1009F000E07306E041FA02F3D040C2F120029140D8
:100A00000843194670472DE9F04D00231A461B1A7A
:100A10008A4103DB00200146BDE8F08DC1F30A5294
:100A2000C1F3130141F480154FF0000BD10702D13F
:100A300000186D41521E0027044640F2FF1138464F
:100A400001EB620A3E468046024600204FF48011C8
:100A5000FFF7BBFBC2197141BB1846EB0100B4EBB9
:100A6000030C75EB000C04D3E41A65EB0005174684
:100A70000E46241908F101006D4180463428E3DD5B
:100A8000F91946EB0600091BA84103D24FF0FF32CB
:100A9000134601E0002213461BEB070046EB0A5108
:100AA000BDE8F04DFFF7F2BD10B5024800F007FBBE
:100AB00010BD00008800002070B5044600252068A5
:100AC000806800F0010018B32068806820F0010001
:100AD0002168886001F098FA054613E001F094FA65
:100AE000401B02280ED92068806800F0010048B140
:100AF000A06A40F01000A062E06A40F00100E062ED
:100B0000012070BD2068806800F001000028E5D158
:100B10000020F6E770B505466C6AA06A00F0500048
:100B2000E0B9A06A40F40070A0622068806800F418
:100B30006020B0F5602F0DD1207B58B9A06A20F459
:100B40008070A062A06A00F4805018B9A06A40F0DA
:100B50000100A062204600F0AFFA03E0206A016BBA
:100B60002846884770BD70B505466C6AA06A40F09B
:100B70004000A062E06A40F00400E062204600F01D
:100B80009DFA70BD70B50446656A284600F095FA76
:100B900070BD000038B50446002500200090206894
:100BA000806800F0010078BB2068806840F0010098
:100BB00021688860194800681949B0FBF1F000907D
:100BC00002E00098401E009000980028F9D101F042
:100BD0001BFA054619E001F017FA401B022814D948
:100BE0002068806800F0010078B9A06A40F0100029
:100BF000A062E06A40F00100E06200BF002084F8DB
:100C0000240000BF012038BD05E02068806800F0A6
:100C100001000028DFD00020F5E700000C000020D4
:100C200040420F0070B5284A2849294803F0CAF805
:100C3000284909684FF4B47201FB02F0FFF740FC49
:100C400005462148016824480068FFF751FB064625
:100C50002946FFF74DFB04462049FFF7A5FC05D2C6
:100C60001C480068401C1B4908601CE019490968C1
:100C70004FF4B47201FB02F0FFF722FC0546124864
:100C8000016815480068FFF733FB06462946FFF761
:100C90002FFB04461249FFF77DFC04D20D48006883
:100CA000401E0C4908600B4909684FF4B47201FBFF
:100CB00002F0FFF705FC0446034801682046FFF7F1
:100CC000C5FA0549086070BD2C00002028000020EE
:100CD00024000020200000203000002000003443C9
:100CE000000034C310B5154802681548016815485E
:100CF00004F032F91348006A80F000442046FFF700
:100D0000EDFB114908600D4801680D480068FFF7C8
:100D1000EFFA04464FF07E51FFF73CFC0DD2074836
:100D2000016807480068FFF7E3FA04460749FFF740
:100D30003BFC02D200200449086010BD30000020B6
:100D400034000020240800201C000020000080BF88
:100D500000BFFEE710B5024800F02AFD10BD0000FC
:100D6000B800002030B590F840500124AC40C56B6D
:100D70006C60046863604468102C04D10468A2604D
:100D80000468E16003E00468A1600468E26030BDCB
:100D900010B50A480078401C0849087008460078D9
:100DA000052190FBF1F201FB120028B904A004F028
:100DB00045FC00200149087010BD00001000002013
:100DC0003100000070B504460026A06880F00045A0
:100DD00028462168FFF7DEFB22D2A1682068FFF7D2
:100DE000D9FB1DD2132512E0681E04F10C0151F845
:100DF000201004F10C0040F82510681E04F10C02CC
:100E000052F820103046FFF721FA06466D1E002DDD
:100E1000EADC2068E06030462168FFF717FA0646F2
:100E200002493046FFF79CFA70BD00000000A04167
:100E3000704772B600BFFEE7F8B5044600260020F2
:100E4000009000BF94F82400012801D10220F8BDD1
:100E5000012084F8240000BF2046FFF72DFE06463F
:100E60002046FFF797FE0646002E69D1A06A20F4BF
:100E7000885040F00200A062022001F05BFA344981
:100E80000968B1FBF0F04000009002E00098401EBD
:100E9000009000980028F9D12068806840F0080090
:100EA0002168886001F0B0F8054616E001F0ACF862
:100EB000401B0A2811D92068806800F0080060B142
:100EC000A06A20F0020040F01000A06200BF0020E5
:100ED00084F8240000BF0120B9E72068806800F092
:100EE00008000028E2D12068806840F004002168F2
:100EF000886001F089F8054616E001F085F8401B8E
:100F00000A2811D92068806800F0040060B1A06A46
:100F100020F0020040F01000A06200BF002084F822
:100F2000240000BF012092E72068806800F00400E0
:100F30000028E2D1A06A20F0020040F00100A06287
:100F400000BF002084F8240000BF30467FE7000087
:100F50000C0000207047000038B502460023002036
:100F6000009000BF92F82400012801D1022038BD72
:100F7000012082F8240000BF4868072812D21068B8
:100F8000406B0C79641E04EB84051F24AC40A04325
:100F90000D796D1E05EB85050C68AC402043146887
:100FA000606327E048680D2812D21068006B0C7946
:100FB000E41F04EB84051F24AC40A0430D79ED1F12
:100FC00005EB85050C68AC4020431468206311E0F4
:100FD0001068C06A0C790D3C04EB84051F24AC40FA
:100FE000A0430D790D3D05EB85050C68AC40204311
:100FF0001468E06208680A2812D31068C0680C7888
:101000000A3C04EB44050724AC40A0430D780A3D9C
:1010100005EB45058C68AC4020431468E0600FE0A8
:10102000106800690C7804EB44050724AC40A04329
:101030000D7805EB45058C68AC40204314682061B1
:101040000868102802D00868112827D1174C1068AA
:10105000A0421ED11068806800F40000F0B910684A
:10106000806840F400001468A0600868102815D15A
:101070000F4800680F4CB0FBF4F000EB800040001C
:10108000009002E00098401E009000980028F9D1DE
:1010900004E0906A40F020009062012300BF00202D
:1010A00082F8240000BF184661E7000000240140D8
:1010B0000C00002040420F0070477047704770B529
:1010C0000446206805682068466806F0200020284D
:1010D0002DD105F00200022829D1A06A00F01000ED
:1010E00018B9A06A40F40070A0622068806800F41B
:1010F0006020B0F5602F13D1207B88B9206840684C
:1011000020F0200021684860A06A20F48070A0626E
:10111000A06A00F4805018B9A06A40F00100A062F3
:101120002046FFF7C9FF6FF012002168086006F043
:101130008000802839D105F00400042835D1A06A48
:1011400000F0100018B9A06A40F40050A0622068B6
:10115000806800F4E040B0F5E04F0DD020684068B2
:1011600000F48060D0B92068806800F46020B0F599
:10117000602F13D1207B88B92068406820F0800060
:1011800021684860A06A20F48050A062A06A00F440
:10119000807018B9A06A40F00100A0622046FFF7F5
:1011A000D9FE6FF00C002168086006F0400040286E
:1011B0000DD105F0010050B1A06A40F48030A0626A
:1011C000204600F0B5F86FF001002168086070BD9E
:1011D0002DE9F0410446002700250026A84614B951
:1011E0000120BDE8F081A06810B1207D00B100BFF2
:1011F000A06A30B90020E06284F82400204600F0A4
:1012000099F82046FFF758FC0746A06A00F0100046
:10121000002873D1002F7ED1A06A20F4885040F0BE
:101220000200A0623F4AD4E90001904208D1E0697F
:10123000B0F5402F02D14FF4002002E0E06900E059
:10124000E0690143207B41EA40000643A068B0F515
:10125000807F02D0A068012802D14FF4807000E0A6
:1012600000200543207D012811D1207B38B9A069D9
:10127000401E4FF4006141EA4030054307E0A06A98
:1012800040F02000A062E06A40F00100E0622068C7
:10129000406820F4694028432168486020688068DD
:1012A00021490840304321688860A068B0F5807FFC
:1012B00002D0A068012802D14FF4807000E0002025
:1012C000B0F5807F03D1208A401E4FEA0058206885
:1012D000C06A20F4700040EA08002168C8622068F3
:1012E000806812490840B04209D10020E062A06A3B
:1012F00020F0020040F00100A06211E00BE0A06AC3
:1013000020F0020040F01000A062E06A40F001000E
:10131000E062012704E0A06A40F01000A06201270B
:1013200038465EE7003C0140FDF7E1FFFE0E1FFF7F
:101330007047000010B586B004460020029003906C
:10134000049005903049206888425AD100BF2F4848
:10135000806940F400702D4988610846806900F476
:101360000070019000BF00BF00BF0846806940F0D8
:10137000100088610846806900F01000019000BFED
:1013800000BF00BF0846806940F008008861084639
:10139000806900F00800019000BF00BF3F2002906C
:1013A0000320039002A91A4800F076FC0320029063
:1013B000039002A9174800F06FFC1748174908600E
:1013C000002048600021154881608021C1604900EB
:1013D000016189004161202181610021C16100F02A
:1013E000B3FB08B1FFF725FD00BF0C482062446243
:1013F00000BF00220221122000F08CFE122000F01B
:1014000079FE06B010BD000000240140001002402B
:1014100000100140000C014008000240B80000200C
:101420002DE9F04104460D4616460027574920682D
:10143000884203D056492068884205D15348001D90
:10144000006800F4702000E0002000287ED100BF7A
:1014500094F82400012802D10220BDE8F081012087
:1014600084F8240000BF2046FFF794FB0746002FB6
:101470006DD1A06A40F60161884340F48070A0629B
:1014800043492068884209D14048001D006800F4A3
:10149000702008B9012002E0002000E0012078B1AE
:1014A000A06A20F48010A0622068406800F4806088
:1014B00000B3A06A20F4005040F48050A06219E00C
:1014C000A06A40F48010A06230492068884203D0AE
:1014D0002F492068884205D12C48001D006800F47F
:1014E000806000E0002028B1A06A20F4005040F4A1
:1014F0008050A062A06A00F4805020B1E06A20F021
:101500000600E06201E00020E06200BF002084F8F5
:10151000240000BF1F48216A88621F48216AC862F0
:101520001E48216A08636FF0020021680860206885
:10153000806840F4807021688860226802F14C0164
:1015400033462A46206A00F045FB01E01AE014E029
:101550002068806800F46020B0F5602F06D1206814
:10156000806840F4A000216888600CE020688068F2
:1015700040F480102168886005E000BF002084F8F6
:10158000240000E00127384667E7000000240140FE
:1015900000280140150B0008850B0008670B0008A8
:1015A00070B504460CB9012070BD94F8200010B944
:1015B000204600F0AFF82068006840F00100216884
:1015C000086000F021FD05460DE000F01DFD401B08
:1015D0000A2808D9606A40F400306062052084F867
:1015E00020000120E0E72068406800F001000028AA
:1015F000EBD02068006820F002002168086000F04D
:1016000003FD05460DE000F0FFFC401B0A2808D949
:10161000606A40F400306062052084F820000120F8
:10162000C2E72068406800F002000028EBD1207E6D
:10163000012806D12068006840F080002168086019
:1016400005E02068006820F0800021680860607E66
:10165000012806D12068006840F040002168086039
:1016600005E02068006820F0400021680860A07E46
:10167000012806D12068006840F020002168086039
:1016800005E02068006820F0200021680860E07E06
:10169000012806D12068006820F010002168086049
:1016A00005E02068006840F0100021680860207F95
:1016B000012806D12068006840F008002168086011
:1016C00005E02068006820F0080021680860607F5D
:1016D000012806D12068006840F0040021680860F5
:1016E00005E02068006820F0040021680860D4E963
:1016F0000201084321690843616908436168491E82
:1017000008432168C86100206062012084F820003D
:10171000002049E710B586B00446002002900390EF
:10172000049005901E492068884237D100BF1D48AB
:10173000C06940F000701B49C8610846C06900F0EC
:101740000070019000BF00BF00BF0846806940F0F4
:10175000200088610846806900F02000019000BFE9
:1017600000BF0120029000200390049002A90E48BF
:1017700000F092FA0220029003900320059002A943
:10178000094800F089FA00BF0849486820F4C040C1
:1017900040F0E06040F4C040486000BF06B010BDBB
:1017A00000640040001002400014014000000140AD
:1017B00070B50446E06B05682068066894F8401030
:1017C000042088402840002875D006F00400002836
:1017D000FAD02068006800F0200028B9206800686E
:1017E00020F0040021680860D5492068884254D957
:1017F000D34978392068884201D1042049E0D04992
:1018000064392068884201D1402042E0CC495039F7
:101810002068884201D100153BE0C9493C39206865
:10182000884202D14FF4804033E0C549283920680E
:10183000884202D14FF480202BE0C149143920683E
:10184000884202D14FF4800023E0BD4920688842DD
:1018500001D1C0041DE0BB492068884201D10420A9
:1018600017E0B84914312068884201D1402010E0C7
:10187000B44928312068884201D1001509E0B149F6
:101880003C312068884202D14FF4804001E04FF49F
:101890008020AC49091F086054E0A94978392068C4
:1018A000884201D104204AE0A54964392068884271
:1018B00002D1402043E04CE0A149503920688842E1
:1018C00001D100153BE09E493C392068884202D195
:1018D0004FF4804033E09A4928392068884202D189
:1018E0004FF480202BE0964914392068884202D1B9
:1018F0004FF4800023E092492068884201D1C0045F
:101900001DE090492068884201D1042017E08D49EC
:1019100014312068884201D1402010E089492831E3
:101920002068884201D1001509E086493C312068D1
:10193000884202D14FF4804001E04FF4802080497A
:1019400080394860E06A002802D02046E16A884772
:10195000F4E094F84010022088402840002871D01C
:1019600006F002000028FAD02068006800F020008D
:1019700040B92068006820F00A0021680860012052
:1019800084F821006E492068884254D96C4978391E
:101990002068884201D1022049E069496439206801
:1019A000884201D1202042E06549503920688842B0
:1019B00001D140153BE062493C392068884202D1A0
:1019C0004FF4005033E05E4928392068884202D144
:1019D0004FF400302BE05A4914392068884202D174
:1019E0004FF4001023E056492068884201D180045A
:1019F0001DE054492068884201D1022017E0514976
:101A000014312068884201D1202010E04D4928314E
:101A10002068884201D1401509E04A493C312068DC
:101A2000884202D14FF4005001E04FF400304549A4
:101A3000091F086054E0424978392068884202D181
:101A400002204AE057E03E4964392068884201D1CB
:101A5000202042E03A4950392068884201D140159F
:101A60003BE037493C392068884202D14FF40050AE
:101A700033E0334928392068884202D14FF40030DE
:101A80002BE02F4914392068884202D14FF400100E
:101A900023E02B492068884201D180041DE02949B8
:101AA0002068884201D1022017E0264914312068BD
:101AB000884201D1202010E0224928312068884244
:101AC00001D1401509E01F493C312068884202D10C
:101AD0004FF4005001E04FF400301949803948605C
:101AE00000BF002084F8200000BFA06A30B3204669
:101AF000A16A884722E094F84010082088402840D6
:101B0000E0B106F00800C8B12068006820F00E00BF
:101B10002168086094F8401001208840E16B48601B
:101B20000120A06384F8210000BF002084F8200079
:101B300000BF206B10B12046216B884770BD0000AC
:101B400080000240080402400146002209B9012039
:101B500070471E4B086898420BD21D4B0868C01A8C
:101B60001423B0FBF3F08000086419480838C863F8
:101B70000AE0164B0868C01A1423B0FBF3F080008B
:101B8000086412480838C863022081F821000868F8
:101B9000026843F6F0708243D1E901031843CB6831
:101BA00018430B6918434B6918438B691843CB6979
:101BB000184302430868026000208863012081F80E
:101BC0002100002081F8200000BFC1E70804024086
:101BD000080002402DE9F04104460D4616461F4616
:101BE0004FF0000800BF94F82000012802D1022025
:101BF000BDE8F081012084F8200000BF94F82100A6
:101C000001282CD1022084F821000020A063206844
:101C1000006820F00100216808603B4632462946F2
:101C20002046FFF79FF8E06A30B12068006840F076
:101C30000E00216808600BE02068006820F00400B6
:101C4000216808602068006840F00A002168086088
:101C50002068006840F001002168086006E000BFCD
:101C6000002084F8200000BF4FF002084046BFE784
:101C700070B5044600F0C8F906462546681C10B148
:101C800004480078054400BF00F0BEF9801BA8425C
:101C9000FAD370BD080000202DE9F8470246002362
:101CA0009C467BE14FF0010808FA03F4D1F800806C
:101CB00008EA0400A0427DD1DFF8F4A2D1F8048044
:101CC000A8EB0A09D0453AD014DCB8F1030F50D084
:101CD00009DCB8F1000F31D0B8F1010F1CD0B8F118
:101CE000020F49D120E0B8F1110F18D0B8F1120F4E
:101CF00042D11EE0B9F5881F25D006DCB9F5803F3A
:101D000020D0B9F5801F37D11AE0B9F5001F18D0DF
:101D1000B9F5041F30D117E0D1F80CC02DE0D1F88F
:101D20000C8008F1040C28E0D1F80C8008F1080CB4
:101D300023E0D1F80C8008F10C0C1EE000BF00BFBE
:101D400000BF00BF00BF00BFD1F80880B8F1000F8E
:101D500002D14FF0040C0BE0D1F80880B8F1010F6C
:101D600003D14FF0080C146102E04FF0080C5461ED
:101D700003E04FF0000C00E000BF00BFFF2801D8D7
:101D8000904601E002F104084646FF2802D84FEAD7
:101D9000830803E0A3F108084FEA88084746D6F80D
:101DA00000804FF00F0909FA07F928EA09080CFA30
:101DB00007F900E07AE048EA0908C6F80080D1F89F
:101DC000048008F08058B8F1805F6FD100BFDFF861
:101DD000E481D8F8188048F00108DFF8D891C9F8F4
:101DE0001880C846D8F8188008F00108CDF800809F
:101DF00000BF00BF4FEAB9384FEA930958F829509D
:101E00004FEA83784FEA18794FF00F0808FA09F87B
:101E100025EA0805DFF8A081424502D14FF000080D
:101E200024E0DFF89881424502D14FF001081DE01F
:101E3000DFF88C81424502D14FF0020816E0DFF84E
:101E40008481424502D14FF003080FE0DFF878812A
:101E5000424502D14FF0040808E0DFF870814245A6
:101E600002D14FF0050801E04FF006084FEA8379F0
:101E70004FEA197908FA09F848EA0505DFF85081B0
:101E80004FEA930948F82950D1F8048008F48018E3
:101E9000B8F5801F0BD1DFF83C81D8F8008048EA04
:101EA0000008DFF83091C9F800800AE075E0DFF83B
:101EB0002481D8F8008028EA0008DFF81891C9F8D2
:101EC0000080D1F8048008F40018B8F5001F0ED186
:101ED000DFF8008108F10408D8F8008048EA00081B
:101EE000DFF8F09009F10409C9F800800DE0DFF88F
:101EF000E48008F10408D8F8008028EA0008DFF838
:101F0000D49009F10409C9F80080D1F8048008F4DC
:101F10000038B8F5003F0ED1DFF8B880A8F104080A
:101F2000D8F8008048EA0008DFF8A890A9F1040971
:101F3000C9F800800DE0DFF89C80A8F10408D8F80B
:101F4000008028EA0008DFF88C90A9F10409C9F89C
:101F50000080D1F8048008F48038B8F5803F0ED1B5
:101F6000DFF87080A8F10808D8F8008048EA000877
:101F7000DFF86090A9F10809C9F800800DE0DFF8EA
:101F80005480A8F10808D8F8008028EA0008DFF893
:101F90004490A9F10809C9F800805B1CD1F80080C1
:101FA00028FA03F8B8F1000F7FF47CAEBDE8F8879B
:101FB000000011100010024000080140000C014018
:101FC000001001400014014000180140001C0140B5
:101FD0000800014008040140024693680B400BB121
:101FE000012000E00020704710B5C26821EA02031A
:101FF00002EA010443EA0443036110BD0AB101612E
:1020000001E00B040361704701480068704700005D
:10201000000000200348006803490978084401498A
:1020200008607047000000200800002010B5084834
:10203000006840F0100006490860032000F0A8F88E
:102040000F2000F007F800F02BF8002010BD000072
:102050000020024070B504460E4800784FF47A71B3
:10206000B1FBF0F00C490968B1FBF0F5284600F02F
:10207000B7FE08B1012070BD102C07D20022214606
:10208000501E00F047F80548046001E00120F2E727
:102090000020F0E7080000200C00002004000020D1
:1020A00008B500BF1148806940F001000F49886100
:1020B0000846806900F00100009000BF00BF00BF2B
:1020C0000846C06940F08050C8610846C06900F009
:1020D0008050009000BF00BF00BF0549486820F055
:1020E000E06040F00070486000BF08BD0010024092
:1020F0000000014001460846002809DB00F01F03EC
:1021000001229A4043099B0003F1E023C3F8002118
:1021100000BF70472DE9F05F80460D461646002748
:1021200003F0A8FA074639462A46334601F007006D
:10213000C0F1070ABAF1040F02D94FF0040A01E016
:10214000C0F1070AD14600F1040ABAF1070F02D222
:102150004FF0000A01E0A0F1030AD4464FF0010A53
:102160000AFA09FAAAF1010A0AEA020A0AFA0CFAB8
:102170004FF0010B0BFA0CFBABF1010B0BEA030B5D
:102180004AEA0B042146404603F07CFABDE8F09F82
:1021900000BF00F00702064B19684FF6FF03194015
:1021A000044B0B4343EA0221014B196000BF704707
:1021B0000CED00E00000FA0530B585B0044614B916
:1021C000012005B030BD94F8A90228B9002084F898
:1021D000A802204600F096F8032084F8A90220689F
:1021E00003F0B9F9142204F110016846FDF7FDFF70
:1021F00094E80F0003F09DF920B1022084F8A902B1
:102200000120DEE70021206803F0AFF900252AE075
:10221000012105EB850204F1280000EBC2004170AA
:1022200005EB850104F1280000F83150002105EB91
:10223000850200EBC200C17005EB850204F12800A5
:1022400000EBC200016105EB850204F1280000EB00
:10225000C200416105EB850204F1280000EBC200D9
:102260008161681CC5B26068A842D1D800252AE007
:10227000002105EB850204F5B47000EBC20041704B
:1022800005EB850104F5B47000F83150002105EB31
:10229000850200EBC200C17005EB850204F5B47045
:1022A00000EBC200016105EB850204F5B47000EBA0
:1022B000C200416105EB850204F5B47000EBC20079
:1022C0008161681CC5B26068A842D1D8142204F1AB
:1022D00010016846FDF789FF94E80F0003F030F91C
:1022E00020B1022084F8A90201206AE7002084F8C6
:1022F0002400012084F8A902206803F01EF90020C0
:102300005FE7000008B5094A016891420DD100BF9E
:102310000749C96941F40001054AD1611146C969FB
:1023200001F40001009100BF00BF08BD005C004047
:10233000001002402DE9F04706464FF00008002546
:1023400000270024A146042E37D004DC012E3CD007
:10235000022E6CD160E0082E33D0102E67D13648A3
:102360004468006800F0807008B33448C4F38341C7
:10237000475C04F4803078B12F484068C0F3404097
:102380002F4911F8008004F4803040B12D48B0FB93
:10239000F8F000FB07F502E02B4807FB00F52648A4
:1023A000406800F48000B0F5800F01D1A94603E039
:1023B00068000321B0FBF1F93AE000F0CBF9814667
:1023C00036E000F0C7F9814632E01B48046A04F4A5
:1023D0004070B0F5807F05D104F0020010B14FF4D9
:1023E000004918E004F44070B0F5007F07D11248AE
:1023F000406A00F0020010B149F640490BE004F4D5
:102400004070B0F5407F06D10B48006800F4003002
:1024100008B14FF224490BE000F08CF906494968F5
:10242000C1F38131491C4900B0FBF1F900E000BF64
:1024300000BF4846BDE8F0870010024096820008C1
:10244000A682000800127A0000093D00F8B5044693
:1024500000260025207800F0010000286BD000271E
:102460004348C06900F0805070B900BF4048C0695F
:1024700040F080503E49C8610846C06900F0805075
:10248000009000BF00BF01273A48006800F4807048
:10249000B0B93848006840F4807036490860FFF7EA
:1024A000B3FD064606E0FFF7AFFD801B642801D9A7
:1024B0000320F8BD2F48006800F480700028F2D097
:1024C0002B48006A00F440752DB3A08800F44070DA
:1024D000A84220D02648006A20F4407501202649F1
:1024E0000860002008602248056205F0010090B1F4
:1024F000FFF78AFD064608E0FFF786FD801B41F2E4
:102500008831884201D90320D3E71948006A00F0D6
:1025100002000028F0D01648006A20F4407061687C
:10252000084313490862012F04D10846C06920F00E
:102530008050C86100BF207800F00200022807D157
:102540000B48406820F44040A168084308494860AF
:10255000207800F01000102807D10548406820F4CA
:10256000800061690843024948600020A1E700003B
:1025700000100240007000404004424270B5044622
:102580000D460CB9012070BD5A48006800F00700E4
:10259000A8420ED25748006820F00700284355494A
:1025A00008600846006800F00700A84201D001203A
:1025B000E9E7207800F0020002281DD1207800F021
:1025C0000400042805D14C48406840F4E0604A49C2
:1025D0004860207800F00800082805D14648406887
:1025E00040F46050444948604348406820F0F0009F
:1025F000A168084340494860207800F0010078B3A2
:102600006068012806D13C48006800F4003090B9A9
:102610000120B8E76068022806D13748006800F05A
:10262000007040B90120AEE73348006800F00200B6
:1026300008B90120A7E73048406820F0030061682E
:1026400008432D494860FFF7DFFC064609E0FFF725
:10265000DBFC801B41F28831884202D9032092E7DB
:1026600007E02548406800F00C006168B0EB810F7E
:10267000EDD12048006800F00700A8420ED91D489F
:10268000006820F0070028431A49086008460068DF
:1026900000F00700A84201D0012074E7207800F084
:1026A0000400042807D11448406820F4E060E16881
:1026B000084311494860207800F00800082808D134
:1026C0000D48406820F46050216940EAC1000A4981
:1026D000486000F03FF808494968C1F30311074A10
:1026E000515CC8400649086006480068FFF7B2FC24
:1026F000002048E70020024000100240A8820008A5
:102700000C00002004000020014800687047000011
:102710000C00002000B5FFF7F7FF04494968C1F33A
:102720000221034A515CC84000BD00000010024075
:10273000B882000800B5FFF7E7FF04494968C1F314
:10274000C221034A515CC84000BD00000010024095
:10275000B882000870B50021002200240023002068
:10276000134D696801F00C05F5B1042D02D0082D58
:1027700019D101E00F4819E00F4DC1F38346AB5D5D
:1027800001F4803555B10A4D6D68C5F340450B4ED7
:10279000725D084D5D43B5FBF2F402E0084D03FBAA
:1027A00005F4204602E000BF024800BF00BF70BD34
:1027B0000010024000127A0084820008948200080F
:1027C00000093D00F8B504460CB90120F8BD207899
:1027D00000F00100002878D0F848406800F00C00B4
:1027E00004280CD0F548406800F00C00082811D1EE
:1027F000F248406800F48030B0F5803F0AD1EF48DD
:10280000006800F4003000285FD0606800285CD1C8
:102810000120DBE700BF6068B0F5803F06D1E748E4
:10282000006840F48030E549086028E0606858B9E5
:10283000E248006820F48030E049086008460068FB
:1028400020F4802008601AE06068B0F5A02F0BD15A
:10285000DA48006840F48020D849086008460068DB
:1028600040F4803008600AE0D448006820F48030EA
:10287000D24908600846006820F48020086000BF44
:10288000606888B1FFF7C0FB054606E0FFF7BCFBB8
:10289000401B642801D9032098E7C848006800F469
:1028A00000300028F2D010E0FFF7AEFB054606E04E
:1028B000FFF7AAFB401B642801D9032086E7BF4825
:1028C000006800F400300028F2D1207800F0020007
:1028D000022857D1B948406800F00C0050B1B74801
:1028E000406800F00C00082818D1B448406800F493
:1028F000803098B9B148006800F0020020B120692A
:10290000012801D0012061E7AC48006820F0F80000
:10291000616940EAC100A949086033E02069E8B173
:102920000120A7490860FFF76FFB054606E0FFF7A7
:102930006BFB401B022801D9032047E79F48006832
:1029400000F002000028F2D09C48006820F0F80057
:10295000616940EAC1009949086013E00020984984
:102960000860FFF751FB054606E0FFF74DFB401BF3
:10297000022801D9032029E79048006800F00200EE
:102980000028F2D1207800F0080008282DD1A06995
:10299000B8B101208B490860FFF736FB054606E019
:1029A000FFF732FB401B022801D903200EE78348C2
:1029B000406A00F002000028F2D0012002F026FB5D
:1029C00013E000207F490860FFF71EFB054606E084
:1029D000FFF71AFB401B022801D90320F6E67748CF
:1029E000406A00F002000028F2D1207800F00400D4
:1029F000042873D100277148C06900F0805070B975
:102A000000BF6E48C06940F080506C49C8610846FC
:102A1000C06900F08050009000BF00BF01276A48E5
:102A2000006800F48070B0B96748006840F48070B6
:102A300065490860FFF7E8FA054606E0FFF7E4FAA3
:102A4000401B642801D90320C0E65F48006800F4F9
:102A500080700028F2D000BFE068012806D15748F6
:102A6000006A40F001005549086227E0E06858B963
:102A70005248006A20F00100504908620846006A86
:102A800020F00400086219E0E06805280BD14B48EB
:102A9000006A40F00400494908620846006A40F0B4
:102AA000010008620AE04548006A20F0010043493D
:102AB00008620846006A20F00400086200BFE0686F
:102AC000A0B1FFF7A1FA054609E0FFF79DFA401B08
:102AD00041F28831884202D9032077E622E0374864
:102AE000006A00F002000028EFD012E0FFF78CFA35
:102AF000054608E0FFF788FA401B41F2883188421A
:102B000001D9032062E62D48006A00F00200002887
:102B1000F0D1012F05D12948C06920F08050274904
:102B2000C86100BFE069C8B32448406800F00C00E9
:102B3000082860D0E069022848D1002020490866B2
:102B4000FFF762FA054606E0FFF75EFA401B02282F
:102B500001D903203AE61948006800F00070002807
:102B6000F2D1206AB0F5803F07D11448406820F4C4
:102B70000030A168084311494860D4E908010843BE
:102B80000E49496821F4741108430C49486001203A
:102B90000B490866FFF738FA054607E03DE0FFF706
:102BA00033FA401B022801D903200FE603480068CE
:102BB00000F000700028F2D02FE00000001002406A
:102BC000000042428004424200700040002014494C
:102BD0000866FFF719FA054606E0FFF715FA401BED
:102BE000022801D90320F1E50E48006800F00070CA
:102BF0000028F2D111E0E069012800D1E6E509489A
:102C0000466806F48031206A814204D106F47011CE
:102C1000606A814201D00120D8E50020D6E500009D
:102C2000000042420010024010B504460CB90120D9
:102C300010BD606A38B96068B0F5827F00D105E0E8
:102C40000021E16102E00021216161610021A162B6
:102C500094F8510028B9002084F85000204600F074
:102C600043F8022084F851002068006820F04000FA
:102C700021680860A08800F48270218901F4044171
:102C80000843A18901F400610843217C01F002019D
:102C90000843217D01F001010843218B01F40071FB
:102CA0000843217F01F0380108432021095D01F02C
:102CB00080010843218D01F4005108432168086018
:102CC0000421A06901EA1040216848602068C069B9
:102CD00020F400602168C86100206065012084F84C
:102CE00051000020A4E7000010B586B00446002083
:102CF00002900390049005903449206888422ED1B8
:102D000000BF3348806940F48050314988610846EB
:102D1000806900F48050019000BF00BF00BF0846EA
:102D2000806940F0040088610846806900F0040072
:102D3000019000BF00BFB02002900220039003204A
:102D4000059002A92348FEF7A7FF4020029000202B
:102D50000390049002A91F48FEF79EFF33E01E492E
:102D6000206888422FD100BF1948C06940F48040D4
:102D70001749C8610846C06900F48040019000BF4F
:102D800000BF00BF0846806940F00800886108461F
:102D9000806900F00800019000BF00BF4FF42040A0
:102DA0000290022003900320059002A90B48FEF731
:102DB00073FF4FF48040029000200390049002A91A
:102DC0000648FEF769FF06B010BD00000030014064
:102DD000001002400008014000380040000C014093
:102DE00070B504462546681EB0F1807F01D30120EE
:102DF0000FE0681E4FF0E02148610F214FF0FF30D7
:102E000002F040FC00204FF0E021886107200861BB
:102E1000002070BD7047704730B502460B4600BFBA
:102E200092F83C00012801D1022030BD012082F837
:102E30003C0000BF022082F83D0010684468106822
:102E4000816824F070041868044310684460144DCD
:102E50001068A84213D0134D1068A8420FD0106814
:102E6000B0F1804F0BD0104D1068A84207D00F4D25
:102E70001068A84203D00E4D1068A84205D121F079
:102E800080015868014310688160012082F83D008C
:102E900000BF002082F83C0000BF00BFC5E7000073
:102EA000002C0140003401400004004000080040B4
:102EB000000C004010B504460CB9012010BD94F878
:102EC0003D0028B9002084F83C00204600F026F898
:102ED000022084F83D00211D206802F027F901201E
:102EE00084F8460000BF84F83E0001213F200155D0
:102EF000402001554120015500BF00BF012084F84A
:102F0000420043200155442001554520015500BF92
:102F1000012084F83D000020D0E7000038B50446C9
:102F20000D492068884215D100BF0C48C06940F0A7
:102F300010000A49C8610846C06900F010000090FE
:102F400000BF00BF002211463620FFF7E3F836200D
:102F5000FFF7D0F838BD000000100040001002401C
:102F6000014691F83D00012801D001207047022060
:102F700081F83D000868C06840F001000B68D86027
:102F8000164B0868984213D0154B086898420FD02A
:102F90000868B0F1804F0BD0124B0868984207D0F8
:102FA000114B0868984203D0104B086898420CD126
:102FB0000868806800F00702062A0CD008680068DC
:102FC00040F001000B68186005E00868006840F0F8
:102FD00001000B6818600020C8E70000002C0140C9
:102FE000003401400004004000080040000C004094
:102FF0002DE9F04104460D4614B90120BDE8F081E9
:1030000094F83D0028B9002084F83C00204600F0E8
:1030100051F8022084F83D002068806844F20701DE
:10302000884321688860211D206802F07FF82068AD
:10303000D0F80880206886692068076A286840EA16
:10304000080840F203308643A969A86840EA0120D5
:10305000064340F60C4086434FF2F0008643E96990
:10306000E86840EA0120064328690001296A40EA2D
:103070000130064327F022076969686840EA0110B9
:1030800007432068C0F808802068866120680762CE
:10309000012084F8460084F83E0001213F200155BC
:1030A000012084F8420043200155012084F83D00AE
:1030B0000020A3E710B586B00446002002900390DC
:1030C000049005906D49206888422FD100BF6C485C
:1030D000806940F400606A4988610846806900F4AC
:1030E0000060019000BF00BF00BF0846806940F04B
:1030F000400088610846806900F04000019000BFF0
:1031000000BF4FF42060029000200390049002A9B9
:103110005C48FEF7C1FD00BF5B49486820F0C00075
:1031200040F0E06040F0C0004860A4E02068B0F1EA
:10313000804F45D100BF5248C06940F0010050495E
:10314000C8610846C06900F00100019000BF00BFDF
:1031500000BF0846806940F0040088610846806925
:1031600000F00400019000BF00BF00BF0846806966
:1031700040F0080088610846806900F0080001906E
:1031800000BF00BF4FF40040029000200390049065
:1031900002A93E48FEF780FD08200290002003901F
:1031A000049002A93A48FEF777FD00BF3649486807
:1031B00020F4407040F0E06040F4807048605AE0D5
:1031C0003449206888422ED100BF2D48C06940F0A4
:1031D00002002B49C8610846C06900F00200019056
:1031E00000BF00BF00BF0846806940F0080088614A
:1031F0000846806900F00800019000BF00BF302041
:10320000029000200390049002A92148FEF744FD9B
:1032100000BF1D49486820F4406040F0E06040F481
:103220000060486027E01C492068884223D100BF25
:103230001348806940F4005011498861084680694C
:1032400000F40050019000BF00BF00BF0846806935
:1032500040F0100088610846806900F0100001907D
:1032600000BF00BFC020029000200390049002A97C
:103270000A48FEF711FD06B010BD0000002C014009
:103280000010024000180140000001400008014009
:10329000000C0140000400400034014000100140D7
:1032A0002DE9F04304460D4694F83E603F20075D4B
:1032B00094F84280432010F804906DB9012E02D199
:1032C000B8F1010F02D00120BDE8F083022084F89C
:1032D0003E0084F8420025E0042D0CD1012F02D1DC
:1032E000B9F1010F01D00120EEE702213F20015585
:1032F0004320015516E0012E07D1012F05D1B8F169
:10330000010F02D1B9F1010F01D00120DCE7022049
:1033100084F83E0002213F200155022084F842003B
:103320004320015515B1042D0CD105E001220021E7
:10333000206801F049FF10E001220421206801F01B
:1033400043FF0AE001220021206801F03DFF012235
:103350000421206801F038FF00BF00BF206800682A
:1033600040F00100216808600020ADE7704710B50B
:10337000044620680069C0F34000D8B12068C068E6
:10338000C0F34000B0B16FF0020021680861012075
:1033900020772068806900F0030018B12046FFF70D
:1033A000E5FF05E0204600F003F9204600F0E2F9D1
:1033B0000020207720680069C0F38000D8B1206821
:1033C000C068C0F38000B0B16FF0040021680861EC
:1033D000022020772068806900F4407018B12046F0
:1033E000FFF7C4FF05E0204600F0E2F8204600F0B9
:1033F000C1F90020207720680069C0F3C000D8B16F
:103400002068C068C0F3C000B0B16FF00800216848
:103410000861042020772068C06900F0030018B11B
:103420002046FFF7A3FF05E0204600F0C1F8204644
:1034300000F0A0F90020207720680069C0F3001098
:10344000D8B12068C068C0F30010B0B16FF01000B0
:1034500021680861082020772068C06900F4407066
:1034600018B12046FFF782FF05E0204600F0A0F8E3
:10347000204600F07FF9002020772068006900F0E6
:10348000010058B12068C06800F0010030B16FF051
:10349000010021680861204600F0E8F92068006911
:1034A000C0F3C01058B12068C068C0F3C01030B17C
:1034B0006FF08000216808612046FFF7ABFC2068B0
:1034C0000069C0F3801058B12068C068C0F3801054
:1034D00030B16FF0400021680861204600F0DAF951
:1034E00020680069C0F3401058B12068C068C0F37C
:1034F000401030B16FF02000216808612046FFF7CE
:103500008AFC10BD10B586B00446002002900390DE
:10351000049005902049206888421FD100BF1F48B1
:10352000806940F020001D4988610846806900F0EC
:103530002000019000BF00BF881402900220039079
:10354000059002A91648FEF7A7FB00BF1549486879
:1035500040F0E06040F4805048601AE01249206872
:10356000884216D100BF0D48806940F004000B4925
:1035700088610846806900F00400019000BF00BF28
:103580000F20029002200390059002A90748FEF741
:1035900083FB06B010BD0000000800400010024090
:1035A0000014014000000140000C004000080140F0
:1035B00070472DE9F04104460D461646002700BF2E
:1035C00094F83C00012802D10220BDE8F0810120DE
:1035D00084F83C0000BF36B1042E1BD0082E31D039
:1035E0000C2E5ED145E02946206801F0FFFD2068E1
:1035F000806940F00800216888612068806920F0B7
:10360000040021688861206880692969084321686D
:10361000886148E02946206801F020FE2068806922
:1036200040F40060216888612068806920F480602F
:103630002168886120688069296940EA0120216841
:10364000886130E02946206801F046FE2068C069A4
:1036500040F008002168C8612068C06920F00400BB
:103660002168C8612068C069296908432168C86168
:1036700019E02946206801F06BFE2068C06940F41B
:1036800000602168C8612068C06920F480602168FA
:10369000C8612068C069296940EA01202168C861C1
:1036A00001E0012700BF00BF00BF002084F83C00FC
:1036B00000BF384689E710B504460CB9012010BD9B
:1036C00094F83D0028B9002084F83C00204600F022
:1036D00025F8022084F83D00211D206801F026FD18
:1036E000012084F8460000BF84F83E0001213F20FD
:1036F0000155402001554120015500BF00BF012068
:1037000084F84200432001554420015545200155CD
:1037100000BF012084F83D000020D0E708B5124A20
:10372000016891420DD100BF1049C96941F00401FF
:103730000E4AD1611146C96901F00401009100BF30
:1037400011E00B4A016891420DD100BF0749C969D8
:1037500041F00801054AD1611146C96901F008012B
:10376000009100BF00BF08BD0008004000100240EB
:10377000000C00407047000070B504460D4615B9B6
:1037800094F83E000BE0042D02D13F20005D06E0DE
:10379000082D02D14020005D01E04120005D01289C
:1037A00001D0012070BD1DB9022084F83E000EE05A
:1037B000042D03D102213F20015508E0082D03D13B
:1037C00002214020015502E0022141200155012241
:1037D0002946206801F0F8FC1F492068884203D080
:1037E0001E492068884201D1012000E0002028B154
:1037F0002068406C40F40040216848641649206805
:10380000884213D01549206888420FD02068B0F153
:10381000804F0BD012492068884207D01149206898
:10382000884203D01049206888420CD12068806803
:1038300000F00706062E0CD02068006840F001005A
:103840002168086005E02068006840F001002168F8
:1038500008600020A6E70000002C01400034014071
:103860000004004000080040000C004010B5044671
:10387000074920680968884209D1FDF7D3F901F0AA
:1038800065F9FDF72FFA01F075FEFDF781FA10BD1D
:103890003C030020704710B504460CB9012010BD50
:1038A000A06900B100E000BF94F8410028B90020F1
:1038B00084F84000204600F029F8242084F84100D4
:1038C0002068C06820F400502168C860204601F0DC
:1038D00069FD2068006920F4904021680861206833
:1038E000406920F02A00216848612068C06840F4DF
:1038F00000502168C86000206064202084F84100E6
:1039000084F842000020606300BFC8E710B586B0AD
:10391000044600200290039004900590914920688D
:1039200088422FD100BF9048C06940F400208E49E2
:10393000C8610846C06900F40020019000BF00BFC4
:1039400000BF0846806940F0100088610846806921
:1039500000F01000019000BF00BF08150290022087
:1039600003900320059002A98048FEF795F94FF4D3
:103970000060029000200390049002A97B48FEF7AB
:103980008BF9ECE07A49206888423BD100BF764849
:10399000C06940F480107449C8610846C06900F4E9
:1039A0008010019000BF00BF00BF0846806940F052
:1039B000100088610846806900F01000019000BF87
:1039C00000BF00BF0846806940F0200088610846BB
:1039D000806900F02000019000BF00BF88140290B1
:1039E000022003900320059002A96048FEF754F9D5
:1039F0000420029000200390049002A95D48FEF785
:103A00004BF9ACE05C49206888422FD100BF564892
:103A1000806940F48040544988610846806900F418
:103A20008040019000BF00BF00BF0846806940F0A1
:103A3000040088610846806900F00400019000BF1E
:103A400000BF48150290022003900320059002A9B0
:103A50004A48FEF721F94FF480600290002003905D
:103A6000049002A94548FEF717F978E04449206818
:103A7000884236D100BF3C48C06940F400303A4922
:103A8000C8610846C06900F40030019000BF00BF63
:103A900000BF0846806940F02000886108468069C0
:103AA00000F02000019000BF00BF20200290022003
:103AB00003900320059002A92E48FEF7EDF8402060
:103AC000029000200390049002A92A48FEF7E4F82F
:103AD00000BF2C49486840F0E06040F008004860B2
:103AE0003DE029492068884239D100BF1E48C0699D
:103AF00040F480201C49C8610846C06900F4802059
:103B0000019000BF00BF00BF0846806940F0200060
:103B100088610846806900F02000019000BF00BF66
:103B200088150290022003900320059002A91148F5
:103B3000FEF7B2F84FF4007002900020039004905A
:103B400002A90C48FEF7A8F800BF0E49486820F00B
:103B5000300040F0E06040F03000486000BF06B048
:103B600010BD0000004C0040001002400010014059
:103B7000005000400014014000380140000801409E
:103B80000044004000000140004800402DE9F84F8B
:103B900004460E46174699464FF0000A94F8410035
:103BA00020284AD106B117B90120BDE8F88F0020BE
:103BB0006064212084F84100FEF726FA8246A7843B
:103BC000E784A068B0F5805F04D1206910B90025B2
:103BD000B04602E035464FF000081BE05346002295
:103BE00080212046CDF8009001F05AFC08B1032056
:103BF000DBE745B9B8F80000C0F308002168486069
:103C000008F1020803E02878216848606D1CE08C08
:103C1000401EE084E08C0028E0D153460022402181
:103C20002046CDF8009001F03BFC08B10320BCE732
:103C3000202084F841000020B7E70220B5E700BF4C
:103C4000FEE7000010B501F0F5F901F00FFA0122CE
:103C500040210448FEF7D2F9012280210148FEF7F5
:103C6000CDF910BD000C014070B5044601F0FEF91D
:103C7000002240211048FEF7C1F9002518E0E209B2
:103C800080210D48FEF7BAF96006040E052002F007
:103C90002BF9012240210848FEF7B0F9052002F077
:103CA00023F9002240210448FEF7A8F9681CC5B298
:103CB000082DE4DB70BD0000000C014010B501F0E0
:103CC000D5F9012280210C48FEF798F90122402104
:103CD0000948FEF793F9042002F006F9002280213A
:103CE0000548FEF78BF9042002F0FEF8002240217F
:103CF0000148FEF783F910BD000C014010B501F03A
:103D0000B5F9002240210C48FEF778F90022802105
:103D10000948FEF773F9042002F0E6F80122402179
:103D20000548FEF76BF9012280210348FEF766F98A
:103D3000042002F0D9F810BD000C014010B5002499
:103D400001F086F9012280211148FEF757F9012080
:103D500002F0CAF8012240210D48FEF74FF9012078
:103D600002F0C2F807E0601CC4B2FA2C03DDFFF7D2
:103D7000C5FF012010BD80210548FEF72DF9002860
:103D8000F1D1002240210248FEF738F90020F1E786
:103D9000000C014070B505460C46FFF78FFF7A20F6
:103DA000FFF762FFFFF7CAFF2846FFF75DFFFFF747
:103DB000C5FF2046FFF758FFFFF7C0FFFFF79EFF44
:103DC00070BD00002DE9F04F99B004460D4616462F
:103DD0004FF07E574FF000084FF000094FF0000AF7
:103DE00012A813A918AB0EAACDE9001014A916A8A1
:103DF00002F034FA18B1012019B0BDE8F08FBDF817
:103E00004C0000F4807000287ED00E98FCF758FB20
:103E100083464FF09D41FCF7A3FA07460F98FCF745
:103E20004FFB83464FF09D41FCF79AFA804610986D
:103E3000FCF746FB83464FF09D41FCF791FA814623
:103E40001198FCF73DFB83464FF09D41FCF788FA43
:103E5000824639464FF08040FCF750FA49460590BB
:103E6000FCF74CFA414607904FF04040FCF746FA09
:103E700051460590FCF742FA06900799FCF7E6F9DF
:103E80008346FCF758FBCDE9080101F0F3FC4FF045
:103E90006632544BCDE90A01FCF7A0FACDE90C01DA
:103EA000FCF75CFB206049464FF08040FCF726FAA7
:103EB00049460290FCF722FA414604904FF04040F8
:103EC000FCF71CFA41460290FCF718FA039004999B
:103ED000FCF70EFA83464FF07E51FCF7B7F90590D8
:103EE000FCF729FBCDE9080139464FF08040FCF78B
:103EF00005FA41460390FCF701FA494604904FF059
:103F00008040FCF7FBF900E068E051460390FCF7C5
:103F1000F5F983460499FCF799F90590FCF70BFB3A
:103F2000CDE90601DDE9082301F0ECFE4FF0663231
:103F30002C4BCDE90A01FCF751FACDE90C01FCF755
:103F40000DFB286051465046FCF7D8F949460490CD
:103F50004846FCF7D3F9414603904046FCF7CEF9BA
:103F6000394601903846FCF7C9F900900199FCF7F1
:103F70006DF902900399FCF7BBF983460499FCF7AD
:103F8000B7F90590FCF7D7FACDE908015146384654
:103F9000FCF7B4F9494604904046FCF7AFF90390AA
:103FA0000499FCF753F94FF080410590FCF7A6F90E
:103FB0008346FCF7C0FACDE90601DDE9082301F0EC
:103FC000A1FE4FF06632074BCDE90A01FCF706FA75
:103FD000CDE90C01FCF7C2FA306001E002200BE7EA
:103FE000002009E766A64C402DE9FC410024FFF7BC
:103FF00029FE684603F04EFA002851D1782003F0DC
:10400000E1FFC4B214B10120BDE8FC81782003F0C7
:104010002FF9C4B20CB10220F6E7642003F084FF4C
:10402000C4B20CB10320EFE702F00CF9C4B20CB13A
:104030000420E9E71B4D284603F094F80646E81CE7
:1040400003F090F846EAC00086B2A81D03F08AF893
:1040500046EA801086B200BF3746384602F04EFB73
:10406000C4B20CB10520CFE740F2731001F092FF0B
:10407000C4B20CB10620C7E7642002F06FFAC4B2E4
:104080000CB10720C0E704F045F804460CB1082045
:10409000BAE7012003F044FEC4B20CB10920B3E733
:1040A0000020B1E7480000202DE9F04105460E460A
:1040B00017469846FFF702FE002141EA4501C8B2C3
:1040C000FFF7D2FDFFF73AFE20B1FFF717FE012000
:1040D000BDE8F0813046FFF7C7FDFFF72FFE002453
:1040E0000CE018F80400FFF7BFFDFFF727FE18B13A
:1040F000FFF704FE0120EBE7601CC4B2BC42F0DB1A
:10410000FFF7FCFD0020E3E70EB5002000900190D2
:104110000290394839490860811538488160012189
:104120000173002101754FF46021C1610020334902
:104130004860082131480161FDF74AF808B1FCF7F1
:1041400078FE082000900120019005200290694629
:104150002A48FCF701FF08B1FCF76BFE092000902C
:104160000220019069462548FCF7F6FE08B1FCF7ED
:1041700060FE0A2000900320019069461F48FCF76A
:10418000EBFE08B1FCF755FE0B20009004200190D7
:1041900069461A48FCF7E0FE08B1FCF74AFE0C201D
:1041A00000900520019069461448FCF7D5FE08B13F
:1041B000FCF73FFE0D2000900620019069460F4855
:1041C000FCF7CAFE08B1FCF734FE0E200090072071
:1041D000019069460948FCF7BFFE08B1FCF729FECB
:1041E0000F2000900820019069460448FCF7B4FEB7
:1041F00008B1FCF71EFE0EBD00240140880000201F
:1042000010B50B480B490860102048600021094890
:104210008160C16001614161017641768176C1763C
:1042200001774177FDF7BCF908B1FCF702FE10BD3C
:1042300000640040FC00002008B500BF0A48406947
:1042400040F00100084948610846406900F001005B
:10425000009000BF00BF002211460B20FDF75AFF5F
:104260000B20FDF747FF08BD0010024000B585B0E8
:104270000020019002900390049000BF6448806980
:1042800040F04000624988610846806900F04000C3
:10429000009000BF00BF00BF0846806940F080006A
:1042A00088610846806900F08000009000BF00BF70
:1042B00000BF0846806940F01000886108468069A8
:1042C00000F01000009000BF00BF00BF08468069EA
:1042D00040F0040088610846806900F00400009006
:1042E00000BF00BF00BF0846806940F00800886139
:1042F0000846806900F00800009000BF00BF00BFC2
:104300000846806940F0200088610846806900F016
:104310002000009000BF00BF00BF0846806940F445
:10432000807088610846806900F48070009000BF4A
:1043300000BF002274213748FDF760FE01220821EA
:104340003448FDF75BFE00223F213348FDF756FE5F
:1043500000224FF4FE413148FDF750FE00221821A3
:104360002F48FDF74BFE042001900120029002200F
:1043700003900320049001A92648FDF78DFC082036
:10438000019001200290002003900320049001A9D5
:104390002048FDF781FC7020019001200290002050
:1043A00003900220049001A91A48FDF775FC3F20F4
:1043B000019001200290002003900220049001A9A6
:1043C0001548FDF769FC4FF4F86001900020029059
:1043D000039001A91048FDF75FFC4FF4FE400190E7
:1043E00001200290002003900220049001A90B48B4
:1043F000FDF752FC1820019001200290002003904C
:104400000220049001A90648FDF746FC05B000BD56
:104410000010024000180140001C01400020014033
:104420000014014010B50E480E4908604FF4827028
:10443000486000210B488160C160016141614FF417
:10444000802181612821C161002101624162816274
:104450000A21C162FEF7E8FB08B1FCF7EAFC10BDD7
:10446000003001402401002010B50E480E490860BC
:104470004FF48270486000210B488160C160016187
:1044800041614FF4007181610021C16101624162AB
:1044900081620A21C162FEF7C7FB08B1FCF7C9FCC3
:1044A00010BD0000003800407C01002000B58BB03A
:1044B000242102A8FBF7B2FE0020009001901848CA
:1044C000184908600020486000211648816044F6C1
:1044D0001F61C1600021016141618161032002907F
:1044E0000020039001200490002005900690079082
:1044F00001200890002009900A9002A90948FEF7BF
:1045000077FD08B1FCF795FC00200090019069460A
:104510000448FEF781FC08B1FCF78BFC0BB000BD32
:10452000002C0140D401002000B58BB0242102A84A
:10453000FBF774FE0020009001904FF08040174977
:1045400008600020486000211448816044F61F6123
:10455000C16000210161816103200290002003906D
:1045600001200490002005900690079001200890FB
:10457000002009900A9002A90848FEF739FD08B109
:10458000FCF757FC00200090019069460348FEF7B5
:1045900043FC08B1FCF74DFC0BB000BD1C02002031
:1045A00000B58BB0242102A8FBF738FE0020009054
:1045B00001901848184908600020486000211648FA
:1045C000816044F61F61C1600021016181610320A7
:1045D0000290002003900120049000200590069096
:1045E000079001200890002009900A9002A90A482B
:1045F000FEF7FEFC08B1FCF71CFC002000900190C7
:1046000069460548FEF708FC08B1FCF712FC0BB040
:1046100000BD0000000400406402002000B589B025
:104620000020079008901C216846FBF7F7FD18480A
:1046300018490860002048600021164881604FF644
:10464000FF71C160002101618161FFF734F808B199
:10465000FCF7EFFB00200790089007A90D48FEF734
:10466000DBFB08B1FCF7E5FB602000900020019027
:1046700002900490002269460648FEF79AFF08B1AE
:10468000FCF7D7FB0348FEF73DFF09B000BD000073
:1046900000080040AC02002000B589B0002007905F
:1046A00008901C216846FBF7B9FD2448244908609E
:1046B0004720486000212248816042F20F71C160AA
:1046C000002101618161FEF7F6FF08B1FCF7B1FB43
:1046D00000200790089007A91948FEF79DFB08B134
:1046E000FCF7A7FB6020009000200190029004904E
:1046F000002269461248FEF75CFF08B1FCF799FBFF
:10470000042269460E48FEF754FF08B1FCF791FBFE
:10471000082269460A48FEF74CFF08B1FCF789FBFE
:104720000C2269460648FEF744FF08B1FCF781FBFE
:104730000348FEF7E7FE09B000BD0000000C004092
:10474000F40200201CB50020009001900E480F4993
:1047500008604720486000210C48816042F20F71D8
:10476000C16000218161FEF7A5FB08B1FCF761FB88
:1047700000200090019069460448FEF74DFB08B107
:10478000FCF757FB1CBD0000001000403C0300205C
:1047900000B58BB0242102A8FBF740FD002000905B
:1047A0000190184818490860002048600021164808
:1047B000816044F61F61C160002101614161816136
:1047C0000320029000200390012004900020059017
:1047D0000690079001200890002009900A9002A9F5
:1047E0000948FEF705FC08B1FCF723FB0020009008
:1047F000019069460448FEF70FFB08B1FCF719FB6E
:104800000BB000BD003401408403002010B50B48FC
:104810000B4908604FF4E13048600021084881608E
:10482000C16001610C21416100218161C161FFF71B
:1048300032F808B1FCF7FDFA10BD0000004C004052
:10484000CC03002010B50B480B4908604FF4E13051
:104850004860002108488160C16001610C2141610C
:1048600000218161C161FFF716F808B1FCF7E1FA98
:1048700010BD0000005000401404002010B50B488B
:104880000B4908604FF4E13048600021084881601E
:10489000C16001610C21416100218161C161FEF7AC
:1048A000FAFF08B1FCF7C5FA10BD0000003801405E
:1048B0005C04002010B50B480B4908604FF4E13050
:1048C0004860002108488160C16001610C2141619C
:1048D00000218161C161FEF7DEFF08B1FCF7A9FA92
:1048E00010BD000000440040A404002010B50B4897
:1048F0000B4908604FF4E1304860002108488160AE
:10490000C16001610C21416100218161C161FEF73B
:10491000C2FF08B1FCF78DFA10BD0000004800404E
:10492000EC04002010B509480949086008204860D7
:1049300002210748816000218161C1610162FDF7A8
:104940003BFC08B1FCF775FA10BD0000005C0040AC
:104950003405002000BFFEE770B500241848026946
:10496000816EBC3000F0F8FA1548D0F8DC40002128
:104970002046FBF719FE10D22046FBF7C8FD11496F
:1049800009684863002210210F48FDF737FB012218
:1049900020210D48FDF732FB11E084F00045284648
:1049A000FBF7B5FD07490968486301221021064855
:1049B000FDF724FB002220210348FDF71FFB70BDFB
:1049C00074080020F40200200010014070B500249B
:1049D0001B48D0F8F420D0F84C1100F5D07000F04E
:1049E000BBFA1748D0F8C04100212046FBF7DCFD98
:1049F00011D22046FBF78BFD12490968886301221A
:104A000051021148FDF7FAFA00224FF480710E4866
:104A1000FDF7F4FA12E084F000452846FBF777FD35
:104A200008490968886300224FF400710648FDF7C1
:104A3000E5FA012211020448FDF7E0FA70BD00001A
:104A400074080020F40200200010014070B500241A
:104A50001B48D0F8D821D0F8301200F5217000F0B2
:104A60007BFA1748D0F8A44200212046FBF79CFDB2
:104A700011D22046FBF74BFD12490968C86300229A
:104A80004FF480611048FDF7B9FA0122D1020E48B7
:104A9000FDF7B4FA12E084F000452846FBF737FD35
:104AA00008490968C863012291020748FDF7A6FA80
:104AB00000224FF400610448FDF7A0FA70BD000029
:104AC00074080020F40200200020014070B500248A
:104AD0001B48D0F8BC22D0F8141300F55A7000F02F
:104AE0003BFA1748D0F8884300212046FBF75CFDCD
:104AF00011D22046FBF70BFD124909680864012218
:104B000051031148FDF77AFA00224FF480410E4814
:104B1000FDF774FA12E084F000452846FBF7F7FC35
:104B200008490968086400224FF400510648FDF75F
:104B300065FA012291030448FDF760FA70BD000098
:104B400074080020F4020020002001407FB53F4897
:104B50000068406A00B2ADF808003D480068406A4D
:104B600000B2ADF80A003B480068406A00B2ADF8F8
:104B70000C0039480068406A00B2ADF80E003348B6
:104B80000068C06A00B2ADF8000031480068C06A31
:104B900000B2ADF802002F480068C06A00B2ADF85C
:104BA00004002D480068C06A00B2ADF80600002578
:104BB000002448E03DF9140000EBD07102AA32F85D
:104BC0001420A2EB61010DB2C4EBC401C1EB84114E
:104BD000224A02EB8101B1F908103DF9142001FBD2
:104BE00002F000EBD07105EB6101C4EBC402C2EB33
:104BF00084121A4B03EB82025160C4EBC401C1EB77
:104C000084111A4602EB81014868FBF759FC0646FD
:104C10001349FBF7A5FBC4EBC401C1EB84110F4A98
:104C200002EB8101C860C4EBC400C0EB84101146E4
:104C300001EB80004068C4EBC401C1EB841142F871
:104C40002100601C44B2042CB4DB7FBDD4010020E1
:104C50001C0200206402002084030020740800204D
:104C6000E5F29F3E1CB500F017F80020034602460F
:104C70000146009000F046F90020009003460246ED
:104C800001460190034800F033F94FF47A70FCF7C5
:104C9000EFFF1CBD2408002010B51C48FEF760F98A
:104CA0003C211B48FEF7FCFA00211A48FEF764FD80
:104CB00042F210701649096848623C211648FEF716
:104CC000EFFA04211348FEF757FD42F21070124923
:104CD000096848623C211148FEF7E2FA08210D48B4
:104CE000FEF74AFD42F210700C49096848623C2107
:104CF0000B48FEF7D5FA0C210648FEF73DFD42F2BF
:104D0000107007490968486210BD00003C0300208C
:104D1000D4010020F40200201C02002064020020C4
:104D20008403002000BFFEE710B56420FCF7A0FF5D
:104D3000AE2000F075FC202000F072FC102000F086
:104D40006FFCB02000F06CFCC82000F069FC002073
:104D500000F066FC102000F063FC402000F060FCD6
:104D6000812000F05DFCFF2000F05AFCA12000F043
:104D700057FCA62000F054FCA82000F051FC3F2076
:104D800000F04EFCA42000F04BFCD32000F048FCC7
:104D9000002000F045FCD52000F042FCF02000F09F
:104DA0003FFCD92000F03CFC222000F039FCDA2046
:104DB00000F036FC122000F033FCDB2000F030FC69
:104DC000202000F02DFC8D2000F02AFC142000F0A3
:104DD00027FCAF2000F024FC10BD70B504460D4642
:104DE00005F1B001C8B200F01BFC102141EA14101B
:104DF00000F016FC04F00F0141F0010000F010FC7F
:104E000070BD00002DE9F0470646894617469A46D0
:104E10004FF0000800240025BAF1010F03D0BAF1C9
:104E2000020F5ED125E020E0785D203800F0FF0819
:104E30007E2E04DD002609F1010000F0FF0949463D
:104E40003046FFF7CAFF002409E008EB4801264A74
:104E500002EB4101085D00F0EAFB601CC4B2062CC5
:104E6000F3DBB01DC6B2681CC5B2785D0028DBD18B
:104E700037E032E0785D203800F0FF08782E04DD5E
:104E8000002609F1010000F0FF0949463046FFF70E
:104E9000A4FF002407E004EB0811144A505C00F062
:104EA000C6FB601CC4B2082CF5DB09F10100C1B2DD
:104EB0003046FFF792FF002408E004EB08110831A8
:104EC0000A4A505C00F0B3FB601CC4B2082CF4DB4F
:104ED00006F10800C6B2681CC5B2785D0028C9D1C9
:104EE00000BF00BFBDE8F087608300088885000828
:104EF00030B5DDE90345016042608360846145624D
:104F000030BD00002DE9FC5F05460E461746984669
:104F1000DDF83090002418E04846FBF7D1FA8246CD
:104F20004046FBF7CDFAC4EBC401C1EB8411094A3A
:104F300002EB8101CDE9000A01F1BC003B4632469B
:104F40002946FFF7D5FF601C44B2042CE4DBBDE822
:104F5000FC9F0000740800202DE9F04104460D4636
:104F60001646E068206131462846FBF7C1F9E0604B
:104F70002168E068FBF7C2F92062D4E90301FBF77E
:104F8000B7F90746A168FBF7B9F9E0616168E06825
:104F9000FBF7B4F907466169FBF758F96061A0694E
:104FA00080F0004738466169FBF7FEFA03D8A06934
:104FB00080F0004007E0D4E90501FBF7F5FA01D8DD
:104FC000A06900E0606960616169206AFBF73EF9F1
:104FD0000746E169FBF73AF92062606A80F0004712
:104FE0003846216AFBF7E0FA03D8606A80F0004097
:104FF00007E0D4E90801FBF7D7FA01D8606A00E0BE
:10500000206A2062BDE8F0817047000008B50849B9
:105010000968C9084FF47A72B1FBF2F1414300917B
:1050200000BF00BF00994A1E00920029F9D108BDB7
:105030000C0000201FB540200090012001900220AC
:10504000039069460148FCF727FE1FBD000C014094
:105050001FB5802000900020019002200390694637
:105060000148FCF719FE1FBD000C01401FB5802050
:105070000090112001900220039069460148FCF73E
:105080000BFE1FBD000C0140704710B5FCF7C2FFBE
:1050900010BD00B595B028210BA8FBF7BFF814216F
:1050A00006A8FBF7BBF818216846FBF7B7F8012004
:1050B0000B9000040C9000200D9001200F90022016
:1050C0001290C10313914FF4E01114910BA8FDF756
:1050D00079FB08B1FBF7ADFE0F2006900220079088
:1050E000002008904FF48060099000200A9002216F
:1050F00006A8FDF743FA08B1FBF79BFE12200090CB
:105100004FF400400290002005906846FDF79EF99C
:1051100008B1FBF78EFE15B000BD704710B5024810
:10512000FEF725F910BD00003C03002010B5026811
:10513000204B98420ED0204B98420BD0B0F1804FBC
:1051400008D01E4B984205D01D4B984202D01D4BF3
:10515000984203D122F070024B681A43154B9842D3
:105160000ED0154B98420BD0B0F1804F08D0134BA6
:10517000984205D0124B984202D0124B984203D16C
:1051800022F44072CB681A4322F080034C6943EA50
:10519000040202608B68C3620B688362054B98420D
:1051A00002D0054B984201D10B690363012343618F
:1051B00010BD0000002C01400034014000040040FC
:1051C00000080040000C004030B501F01F0501242C
:1051D00004FA05F3046A9C430462046A01F01F05A3
:1051E00002FA05F52C43046230BD000030B5026AB6
:1051F000056A25F0010505624368846924F070049E
:1052000024F003040D682C4322F002028D682A4327
:10521000104DA84200D103E00F4DA84206D100BFB7
:1052200022F00802CD682A4322F00402094DA84268
:1052300002D0094DA84207D123F4807323F40073F0
:105240004D692B438D692B43436084614D684563F1
:10525000026230BD002C01400034014030B5026ACA
:10526000056A25F0100505624368846924F4E0446A
:1052700024F440740D6844EA052422F020028D686D
:1052800042EA0512124DA84200D103E0114DA84296
:1052900007D100BF22F08002CD6842EA051222F059
:1052A00040020B4DA84202D00A4DA84209D123F476
:1052B000806323F400634D6943EA85038D6943EA03
:1052C0008503436084614D688563026230BD0000E0
:1052D000002C01400034014030B5026A056A25F413
:1052E000807505624368C46924F0700424F00304E7
:1052F0000D682C4322F400728D6842EA0522124D9B
:10530000A84200D103E0114DA84207D100BF22F40A
:105310000062CD6842EA052222F480620A4DA8426A
:1053200002D00A4DA84209D123F4805323F400533C
:105330004D6943EA05138D6943EA05134360C4616F
:105340004D68C563026230BD002C0140003401404D
:1053500030B5036A056A25F4805505624468C26960
:1053600022F4E04222F440720D6842EA052223F45E
:1053700000538D6843EA0533084DA84202D0084D1A
:10538000A84204D124F480444D6944EA8514446061
:10539000C2614D680564036230BD0000002C01400D
:1053A0000034014070B504462168096921F4405178
:1053B000E2681143226811612269A16811436269A0
:1053C00041EA02052168C96841F20C629143294310
:1053D0002268D1602168496921F44071A2691143B2
:1053E000226851612D4A2168914202D1FDF7A2F94C
:1053F00001E0FDF78FF900EBC00101EB00116268DD
:105400009200B1FBF2F100EBC00202EB0012636804
:105410009B00B2FBF3F26423B2FBF3F202EBC20394
:1054200003EB0212A1EB8201322202EB0111642292
:10543000B1FBF2F101F0F00100EBC00202EB00124F
:1054400063689B00B2FBF3F26423B2FBF3F201EB5F
:10545000021200EBC00101EB001163689B00B1FB7D
:10546000F3F100EBC00303EB00136668B600B3FB77
:10547000F6F36426B3FBF6F303EBC30606EB031364
:10548000A1EB8301322303EB01116423B1FBF3F1A0
:1054900001F00F0111442268916070BD0038014095
:1054A0002DE9F04104460D4617469846069E34E025
:1054B000701C88B32EB1FCF7A7FDA0EB0800B0422A
:1054C0002BD900BF00BF21680C3151E8001F21F427
:1054D000D07021680C3141E80002002AF3D100BFEE
:1054E00000BF00BF2168143151E8001F21F0010006
:1054F0002168143141E80002002AF3D100BF2020C6
:1055000084F8410084F8420000BF002084F8400085
:1055100000BF0320BDE8F081FFE720680068284055
:10552000A84201D1012000E00020B842C0D00020F4
:10553000F0E710B50446002010BD0146002070477A
:1055400010B50446012024F8400F00202080A080E0
:105550002082403C10BD01464FF43F42B1F840006C
:105560009043A1F840000020704702460020704799
:1055700000BFFEE710B526490968264A1268891A55
:10558000254A12688818FAF79BFF24498866204943
:105590000968204A126811441F4A1268881AFAF7EB
:1055A0008FFF1E49C1F84C0119490968194A126850
:1055B0001144194A12688818FAF782FF1749C1F88E
:1055C000300213490968134A1268891A124A12688C
:1055D000881AFAF775FF1149C1F8140300240CE08A
:1055E000C4EBC401C1EB84110C4A02EB810101F14F
:1055F0000C00FBF7E7FB601C44B2042CF0DBFFF768
:10560000ABF9FFF7E3F9FFF721FAFFF75FFA10BDF7
:1056100014000020180000201C0000207408002046
:1056200010B5044621460020FEF7B4FB10BD10B5AE
:10563000044621464020FEF7ADFB10BD014A024959
:1056400000F0B2B8156B000880000020490050EA55
:10565000C12018BF04204A0D18BF40F0010040F2DD
:10566000FF72B2EB515F08BF40F00200012808BF93
:105670000520704702480068C0F302207047000010
:105680000CED00E010B5002804DB0A07130E054AF4
:10569000135406E00A07140E034A00F00F031B1F01
:1056A000D45410BD00E400E018ED00E02DE9F04115
:1056B0004F1E00EBC7010446D1E9000115461E4606
:1056C00037F006020DD02A463346FAF787FE7F1ED2
:1056D00004EBC703D3E90023FBF735F837F00602E4
:1056E000F1D1022F25D0042F13D0062F18BFBDE80B
:1056F000F0812A463346FAF771FED4E90A23FBF714
:1057000022F82A463346FAF769FED4E90823FBF764
:105710001AF82A463346FAF761FED4E90623FBF766
:1057200012F82A463346FAF759FED4E90423FBF768
:105730000AF82A463346FAF751FED4E90223FBF76A
:1057400002F82A463346FAF749FED4E90023BDE8B9
:10575000F041FAF7F8BF0122FBF70BB9FAF7F3BFF4
:105760000022134610461146FBF794B8024A002067
:105770001107FBF7FEB8000001FDFFFF02E008C8BB
:10578000121F08C1002AFAD170477047002001E0BB
:1057900001C1121F002AFBD17047000001490860B7
:1057A00070470000840000202DE9F04116460F46A6
:1057B0000446002503E03946B047641C6D1C207880
:1057C0000028F8D12846BDE8F08100002DE9FE4F01
:1057D00006460F460025684601F0AAF9002442E07B
:1057E00056F8240057F82410A0EB010ABAF1000F74
:1057F00001DB514601E0CAF100010846FAF760FEFC
:1058000083464FF08F41FAF7ABFD80465DF82400E8
:105810000021FAF7BFFE16D05DF824104046FAF7D3
:105820009FFD82464FF07E51FAF762FD814629F0D6
:10583000004A0F48416A5046FAF7B6FE12D20120DC
:10584000A04005430EE00A48C1694046FAF7A2FEAF
:1058500005D30748016A4046FAF7A6FE02D20120A6
:10586000A0400543641C032CBADB2846BDE8FE8F2C
:10587000A48B00082DE9F04D8D4F21F0004A86B031
:1058800005460C46BA452ADBAAEB070028430AD096
:105890008848824501DC1AD1CDB106B02846BDE862
:1058A000F04DFFF758BF844A844B2846FAF796FD1F
:1058B00007460E46824A834B28462146FAF78EFD5C
:1058C00006B03A463346BDE8F04DFAF73CBF01203A
:1058D000FFF764FF06B0BDE8F04DFFF741BF7A481F
:1058E000824542DABAF1795F0BDA2846FFF7AEFE5D
:1058F000042808BFFFF73AFF284606B02146BDE856
:10590000F08D2A460B461046FAF768FD834602469C
:105910006E480E460B4606217844FFF7C7FE5A46EE
:105920003346FAF75BFD804669488A465A46334655
:1059300004217844FFF7BAFE5A463346FAF74EFD83
:1059400000223B46FAF7FFFE02460B464046514610
:10595000FAF7A0FF2A462346FAF740FD06B02A468A
:105960002346BDE8F04DFAF7EEBE284624F000418C
:1059700000223D463B46FAF78AFF4FF0FF32FAF726
:10598000F8FF0646024653480F460B460621784468
:10599000FFF78CFE32463B46FAF720FDCDE90001C9
:1059A0004D4832463B4604217844FFF77FFE32469D
:1059B0003B46FAF713FD00222B46FAF7C4FE834656
:1059C00002913046394602F037FC804643480D4686
:1059D000504517DCDDE900015A46029BFAF75AFFF1
:1059E00042462B46FAF7FAFC42462B46FAF7ABFE44
:1059F0000122FAF7BEFF304A304BFAF745FF304A32
:105A0000304B4CE04FF0000A52460B464046FAF746
:105A10009AFECDE9031052462B4610461946FAF776
:105A2000DDFC32463B46FAF732FFDDE90332FAF796
:105A300031FF06460F46DDE900015A46029BFAF7A0
:105A400029FF83460091012230463946FAF791FF3B
:105A5000194A1A4BFAF71BFF06460F460122404629
:105A60002946FAF786FF5A46009BFAF7B7FC3246FA
:105A70003B46FAF709FF06460F46012250462946E3
:105A8000FAF777FF0E4DDFF858802A464346FAF7BB
:105A9000FEFE32463B46FAF7FAFE2A464346FAF73E
:105AA000F6FE002CD8BF81F0004106B0BDE8F08DB5
:105AB0000000F03F0000F07F075C143326A6913C05
:105AC000182D4454FB21F93F0000E03FAC3E00009C
:105AD000C23E0000363E00004C3E00003333EF3F34
