:020000040800F2
:10000000F80E002049010008D73300082B2900080A
:10001000AD300008FD050008013A000800000000AE
:10002000000000000000000000000000C1340008D3
:100030004D06000800000000973400083D35000818
:100040006301000863010008630100086301000800
:1000500063010008630100086301000863010008F0
:1000600063010008630100086301000863010008E0
:1000700063010008630100086301000863010008D0
:1000800063010008630100086301000863010008C0
:1000900063010008630100086301000863010008B0
:1000A00063010008630100086301000863010008A0
:1000B0006301000863010008630100086301000890
:1000C0006301000863010008630100086301000880
:1000D0006301000863010008630100086301000870
:1000E0006301000863010008630100086301000860
:1000F0006301000863010008630100086301000850
:10010000630100086301000863010008630100083F
:100110006301000863010008D1350008630100088D
:10012000630100086301000863010008630100081F
:10013000DFF810D000F088F9004800474D3B000878
:10014000AFF30080F80E00200648804706480047BD
:10015000FEE7FEE7FEE7FEE7FEE7FEE7FEE7FEE777
:10016000FEE7FEE7CD3500083101000840EA010353
:100170009B0703D009E008C9121F08C0042AFAD25D
:1001800003E011F8013B00F8013B521EF9D2704721
:10019000D2B201E000F8012B491EFBD270470022C9
:1001A000F6E710B513460A4604461946FFF7F0FF76
:1001B000204610BDF0B480EA0102D40F4200B2EB39
:1001C000410F02D20246084611464A0042D0C30DF2
:1001D000DDB2C1F3C752AD1A202D35DAC1F31601D5
:1001E00041F4000204B15242C5F1200602FA06F1C0
:1001F0002A411044B3EBD05F23D0C4B1012DA0EB52
:10020000C35009DCF0BC4FF0004202EAC352DBB23B
:1002100000F5000000F0E9B8400000F1807000EB4C
:10022000C350A0F1807040EAD170490009E049084C
:1002300041EAC071A0EBC35000F50000400800EB9C
:10024000C350F0BC00F0C8B86142012202EB41018A
:10025000001BF6E7F0BC704781F00041AAE780F090
:100260000040A7E780EA010210B502F00043400019
:1002700022D04A001FD0010E01EB1261C0F35600DC
:10028000C2F3560240F4000042F40002A0FB022038
:1002900000047F39140400D0401C50EA124001D4FD
:1002A0004000491EC2B20C0604EBD010401C4008AE
:1002B000802A02D003E0002010BD20F001000029B8
:1002C00000DA0020184310BD30B480EA010202F0C9
:1002D000004530F0004221F0004013D090B1C30D32
:1002E000D40DC2F31601C0F31600E41A41F4000164
:1002F00040F400027D34914201D3641C00E04900C7
:10030000002C02DA30BC002070474FF400000023BC
:10031000914201D3891A034340084FEA4101F7D1C2
:1003200051B1914202D14FF0004105E002D24FF0AD
:10033000010101E06FF0010103EBC450284430BC1F
:1003400000F04AB8C10F80EAE0700844CA0796235B
:10035000002100F04AB800F0004220F00040C10D3A
:10036000C0F3160040F400007F2901DA0020704736
:10037000962903DCC1F19601C84001E09639884016
:10038000002AF4D04042704720F00040C10DC0F375
:10039000160040F400007F2901DA002070479629FA
:1003A00003DCC1F19601C840704796398840704718
:1003B000002801DBC0F10040002901DBC1F1004150
:1003C00081427047002801DBC0F10040002901DBB9
:1003D000C1F10041884270470029A8BF7047401C06
:1003E000490008BF20F00100704710B4B0FA80FC4B
:1003F00000FA0CF050EA010404BF10BC704749B188
:10040000CCF1200421FA04F411FA0CF118BF0121F7
:1004100021430843A3EB0C01CB1D4FEA00614FEAD7
:10042000102042BF002010BC704700EBC3501044A6
:100430000029A4BF10BC7047401C490008BF20F031
:10044000010010BC70470000064C074D06E0E06854
:1004500040F0010394E8070098471034AC42F6D30B
:10046000FFF76AFEE43B0008043C000870B5044650
:1004700000252068806800F0010018B320688068BB
:1004800020F001002168886000F0EAFD054613E0D5
:1004900000F0E6FD401B02280ED92068806800F0BD
:1004A000010048B1A06A40F01000A062E06A40F08C
:1004B0000100E062012070BD2068806800F001004A
:1004C0000028E5D10020F6E770B5284991F9001021
:1004D0004FF4B47201FB02F0FFF734FF05462448E5
:1004E000016A24480068FFF7B7FE06462946FFF771
:1004F000B3FE04462049FFF765FF06D21B4800788B
:10050000401C40B2194908701EE0184991F90010CA
:100510004FF4B47201FB02F0FFF714FF05461448D4
:10052000016A14480068FFF797FE06462946FFF760
:1005300093FE04461149FFF73BFF05D20B480078B4
:10054000401E40B209490870084991F900104FF463
:10055000B47201FB02F0FFF7F5FE04460448016A9D
:100560002046FFF727FE0349086070BD1E000020EB
:100570007C0A00203400002000003443000034C313
:1005800010B51848007843B2174802681748016848
:10059000174802F022FF1648006A80F00044204607
:1005A000FFF7D9FE134908600F4801680F4800683B
:1005B000FFF752FE04464FF07E51FFF7F9FE10D2CE
:1005C0000948016809480068FFF746FE04460A49E1
:1005D000FFF7F8FE05D200231A461946184602F026
:1005E000F9FE10BD1A000020340000204400002055
:1005F000C40700202C000020000080BF00BFFEE7E1
:1006000010B50A480068401C08490860084890F97D
:100610000000052190FBF1F201FB120028B905A0B2
:1006200003F042FA00200449087010BD14000020B5
:100630001D000020310000001800002010B500F05F
:1006400007F8FFF79DFF03F0DDF910BD70470000CC
:100650002DE9F0474848007843B2484802684848C6
:100660000168484802F0B9FE4748007801282ED1B9
:10067000464AD2F89C10D068FFF79CFD804643485C
:10068000D0F82C114046FFF795FD04463F48D0F8BE
:10069000BC112046FFF78EFD07463D49FFF714FECB
:1006A00006464FF08041FFF7DDFD054633480168FF
:1006B0002846FFF77FFD314908603249086AFFF795
:1006C0004AFE3449086000203349086035E02E486E
:1006D0000078022831D12D48006980F000492B486C
:1006E000D0F8A0104846FFF765FD80462748D0F8AF
:1006F00030114046FFF75EFD07462448D0F8C01190
:100700003846FFF7A9FD06462149FFF7DDFD0546FE
:100710004FF08041FFF7A6FD0446184801682046C7
:10072000FFF748FD154908601649086AFFF713FEF0
:1007300019490860002017490860104801681048EE
:100740000068FFF789FD04464FF07E51FFF730FE49
:1007500010D20A4801680A480068FFF77DFD044688
:100760000E49FFF72FFE05D200231A4619461846F8
:1007700002F030FEBDE8F0871A0000203C000020A7
:1007800048000020EC070020100000201408002082
:10079000AB279F442400002028000020000080BFD9
:1007A00072B600BFFEE7000038B502460023002005
:1007B000009000BF92F82400012801D1022038BD2A
:1007C000012082F8240000BF4868072812D2106870
:1007D000406B0C79641E04EB84051F24AC40A043DD
:1007E0000D796D1E05EB85050C68AC40204314683F
:1007F000606327E048680D2812D21068006B0C79FE
:10080000E41F04EB84051F24AC40A0430D79ED1FC9
:1008100005EB85050C68AC4020431468206311E0AB
:100820001068C06A0C790D3C04EB84051F24AC40B1
:10083000A0430D790D3D05EB85050C68AC402043C8
:100840001468E06208680A2812D31068C0680C783F
:100850000A3C04EB44050724AC40A0430D780A3D54
:1008600005EB45058C68AC4020431468E0600FE060
:10087000106800690C7804EB44050724AC40A043E1
:100880000D7805EB45058C68AC4020431468206169
:100890000868102802D00868112827D1174C106862
:1008A000A0421ED11068806800F40000F0B9106802
:1008B000806840F400001468A0600868102815D112
:1008C0000F4800680F4CB0FBF4F000EB80004000D4
:1008D000009002E00098401E009000980028F9D196
:1008E00004E0906A40F020009062012300BF0020E5
:1008F00082F8240000BF184661E700000024014090
:100900000C00002040420F002DE9F0410446002772
:1009100000250026A84614B90120BDE8F081A06892
:1009200010B1207D00B100BFA06A30B90020E062A4
:1009300084F82400204600F097F82046FFF796FD43
:100940000746A06A00F01000002873D1002F7ED166
:10095000A06A20F4885040F00200A0623F4AD4E927
:100960000001904208D1E069B0F5402F02D14FF468
:10097000002002E0E06900E0E0690143207B41EAF9
:1009800040000643A068B0F5807F02D0A06801282F
:1009900002D14FF4807000E000200543207D012843
:1009A00011D1207B38B9A069401E4FF4006141EAA3
:1009B0004030054307E0A06A40F02000A062E06AF2
:1009C00040F00100E0622068406820F4694028435C
:1009D00021684860206880682149084030432168C8
:1009E0008860A068B0F5807F02D0A068012802D19D
:1009F0004FF4807000E00020B0F5807F03D1208AA2
:100A0000401E4FEA00582068C06A20F4700040EA97
:100A100008002168C8622068806812490840B04216
:100A200009D10020E062A06A20F0020040F001003D
:100A3000A06211E00BE0A06A20F0020040F010007C
:100A4000A062E06A40F00100E062012704E0A06AD1
:100A500040F01000A062012738465EE7003C0140EC
:100A6000FDF7E1FFFE0E1FFF10B586B00446002023
:100A700002900390049005901E492068884236D168
:100A800000BF1D48806940F400701B49886108461A
:100A9000806900F40070019000BF00BF00BF0846ED
:100AA000806940F0100088610846806900F01000FD
:100AB000019000BF00BF00BF0846806940F00800F9
:100AC00088610846806900F00800019000BF00BFFF
:100AD000012002900320039002A9084800F01AF9AF
:100AE00003200290039002A9054800F013F906B014
:100AF00010BD000000240140001002400010014021
:100B0000000C014070B504460CB9012070BD94F88A
:100B1000200010B9204600F0AFF82068006840F0CF
:100B200001002168086000F09BFA05460DE000F026
:100B300097FA401B0A2808D9606A40F400306062C6
:100B4000052084F820000120E0E72068406800F0DC
:100B500001000028EBD02068006820F00200216826
:100B6000086000F07DFA05460DE000F079FA401BC0
:100B70000A2808D9606A40F400306062052084F8D1
:100B800020000120C2E72068406800F00200002831
:100B9000EBD1207E012806D12068006840F080005B
:100BA0002168086005E02068006820F08000216866
:100BB0000860607E012806D12068006840F040008F
:100BC0002168086005E02068006820F04000216886
:100BD0000860A07E012806D12068006840F020004F
:100BE0002168086005E02068006820F02000216886
:100BF0000860E07E012806D12068006820F010001F
:100C00002168086005E02068006840F01000216855
:100C10000860207F012806D12068006840F00800A5
:100C20002168086005E02068006820F0080021685D
:100C30000860607F012806D12068006840F0040049
:100C40002168086005E02068006820F00400216841
:100C50000860D4E902010843216908436169084337
:100C60006168491E08432168C86100206062012054
:100C700084F82000002049E710B586B00446002023
:100C800002900390049005901E492068884237D155
:100C900000BF1D48C06940F000701B49C86108468C
:100CA000C06900F00070019000BF00BF00BF08469F
:100CB000806940F0200088610846806900F02000CB
:100CC000019000BF00BF012002900020039004901B
:100CD00002A90E4800F01EF80220029003900320A3
:100CE000059002A9094800F015F800BF08494868B6
:100CF00020F4C04040F0E06040F4C040486000BFD5
:100D000006B010BD00640040001002400014014015
:100D1000000001402DE9F847024600239C467BE194
:100D20004FF0010808FA03F4D1F8008008EA040043
:100D3000A0427DD1DFF8F4A2D1F80480A8EB0A0923
:100D4000D0453AD014DCB8F1030F50D009DCB8F12B
:100D5000000F31D0B8F1010F1CD0B8F1020F49D10A
:100D600020E0B8F1110F18D0B8F1120F42D11EE0F7
:100D7000B9F5881F25D006DCB9F5803F20D0B9F53C
:100D8000801F37D11AE0B9F5001F18D0B9F5041F3C
:100D900030D117E0D1F80CC02DE0D1F80C8008F16B
:100DA000040C28E0D1F80C8008F1080C23E0D1F8FD
:100DB0000C8008F10C0C1EE000BF00BF00BF00BF9C
:100DC00000BF00BFD1F80880B8F1000F02D14FF08A
:100DD000040C0BE0D1F80880B8F1010F03D14FF0FB
:100DE000080C146102E04FF0080C546103E04FF06E
:100DF000000C00E000BF00BFFF2801D8904601E0D2
:100E000002F104084646FF2802D84FEA830803E0AF
:100E1000A3F108084FEA88084746D6F800804FF04B
:100E20000F0909FA07F928EA09080CFA07F900E09E
:100E30007AE048EA0908C6F80080D1F8048008F092
:100E40008058B8F1805F6FD100BFDFF8E481D8F837
:100E5000188048F00108DFF8D891C9F81880C84612
:100E6000D8F8188008F00108CDF8008000BF00BF56
:100E70004FEAB9384FEA930958F829504FEA837876
:100E80004FEA18794FF00F0808FA09F825EA080523
:100E9000DFF8A081424502D14FF0000824E0DFF8DE
:100EA0009881424502D14FF001081DE0DFF88C81A6
:100EB000424502D14FF0020816E0DFF88481424536
:100EC00002D14FF003080FE0DFF87881424502D1EC
:100ED0004FF0040808E0DFF87081424502D14FF07E
:100EE000050801E04FF006084FEA83794FEA1979C7
:100EF00008FA09F848EA0505DFF850814FEA930936
:100F000048F82950D1F8048008F48018B8F5801FFB
:100F10000BD1DFF83C81D8F8008048EA0008DFF800
:100F20003091C9F800800AE075E0DFF82481D8F834
:100F3000008028EA0008DFF81891C9F80080D1F88D
:100F4000048008F40018B8F5001F0ED1DFF8008106
:100F500008F10408D8F8008048EA0008DFF8F090AB
:100F600009F10409C9F800800DE0DFF8E48008F118
:100F70000408D8F8008028EA0008DFF8D49009F1C6
:100F80000409C9F80080D1F8048008F40038B8F5E5
:100F9000003F0ED1DFF8B880A8F10408D8F800802F
:100FA00048EA0008DFF8A890A9F10409C9F8008010
:100FB0000DE0DFF89C80A8F10408D8F8008028EA4A
:100FC0000008DFF88C90A9F10409C9F80080D1F875
:100FD000048008F48038B8F5803F0ED1DFF87080C7
:100FE000A8F10808D8F8008048EA0008DFF8609007
:100FF000A9F10809C9F800800DE0DFF85480A8F1D4
:101000000808D8F8008028EA0008DFF84490A9F121
:101010000809C9F800805B1CD1F8008028FA03F8A1
:10102000B8F1000F7FF47CAEBDE8F8870000111026
:101030000010024000080140000C01400010014077
:101040000014014000180140001C0140080001404C
:10105000080401400AB1016101E00B04036170471B
:101060000148006870470000000000200348006845
:1010700003490978084401490860704700000020CE
:101080000800002010B50848006840F0100006492C
:101090000860032000F0A8F80F2000F007F800F027
:1010A0002BF8002010BD00000020024070B504465F
:1010B0000E4800784FF47A71B1FBF0F00C490968E2
:1010C000B1FBF0F5284600F02BFE08B1012070BD01
:1010D000102C07D200222146501E00F047F8054888
:1010E000046001E00120F2E70020F0E708000020A2
:1010F0000C0000200400002008B500BF11488069E2
:1011000040F001000F4988610846806900F0010045
:10111000009000BF00BF00BF0846C06940F080508B
:10112000C8610846C06900F08050009000BF00BF51
:1011300000BF0549486820F0E06040F0007048605A
:1011400000BF08BD001002400000014001460846F3
:10115000002809DB00F01F0301229A4043099B008D
:1011600003F1E023C3F8002100BF70472DE9F05FD1
:1011700080460D461646002702F09EFC074639467B
:101180002A46334601F00700C0F1070ABAF1040FFE
:1011900002D94FF0040A01E0C0F1070AD14600F17C
:1011A000040ABAF1070F02D24FF0000A01E0A0F1E1
:1011B000030AD4464FF0010A0AFA09FAAAF1010A11
:1011C0000AEA020A0AFA0CFA4FF0010B0BFA0CFBBE
:1011D000ABF1010B0BEA030B4AEA0B042146404634
:1011E00002F072FCBDE8F09F00BF00F00702064B62
:1011F00019684FF6FF031940044B0B4343EA0221E1
:10120000014B196000BF70470CED00E00000FA05CB
:1012100030B585B0044614B9012005B030BD94F84E
:10122000A90228B9002084F8A802204600F096F808
:10123000032084F8A902206802F0D5FB142204F1EF
:1012400010016846FEF792FF94E80F0002F0B9FB28
:1012500020B1022084F8A9020120DEE700212068E5
:1012600002F0CBFB00252AE0012105EB850204F109
:10127000280000EBC200417005EB850104F1280055
:1012800000F83150002105EB850200EBC200C1706F
:1012900005EB850204F1280000EBC200016105EBBB
:1012A000850204F1280000EBC200416105EB8502D4
:1012B00004F1280000EBC2008161681CC5B26068BF
:1012C000A842D1D800252AE0002105EB850204F5CB
:1012D000B47000EBC200417005EB850104F5B470F9
:1012E00000F83150002105EB850200EBC200C1700F
:1012F00005EB850204F5B47000EBC200016105EB5B
:10130000850204F5B47000EBC200416105EB850273
:1013100004F5B47000EBC2008161681CC5B260685E
:10132000A842D1D8142204F110016846FEF71EFF2E
:1013300094E80F0002F04CFB20B1022084F8A902CF
:1013400001206AE7002084F82400012084F8A90223
:10135000206802F03AFB00205FE7000008B5094A68
:10136000016891420DD100BF0749C96941F40001EC
:10137000054AD1611146C96901F40001009100BF1D
:1013800000BF08BD005C004000100240F8B50446F4
:1013900000260025207800F0010000286BD00027EF
:1013A0004348C06900F0805070B900BF4048C06930
:1013B00040F080503E49C8610846C06900F0805046
:1013C000009000BF00BF01273A48006800F4807019
:1013D000B0B93848006840F4807036490860FFF7BB
:1013E0003FFE064606E0FFF73BFE801B642801D95E
:1013F0000320F8BD2F48006800F480700028F2D068
:101400002B48006A00F440752DB3A08800F44070AA
:10141000A84220D02648006A20F4407501202649C1
:101420000860002008602248056205F0010090B1C4
:10143000FFF716FE064608E0FFF712FE801B41F29A
:101440008831884201D90320D3E71948006A00F0A7
:1014500002000028F0D01648006A20F4407061684D
:10146000084313490862012F04D10846C06920F0DF
:101470008050C86100BF207800F00200022807D128
:101480000B48406820F44040A16808430849486080
:10149000207800F01000102807D10548406820F49B
:1014A000800061690843024948600020A1E700000C
:1014B00000100240007000404004424270B50446F3
:1014C0000D460CB9012070BD5A48006800F00700B5
:1014D000A8420ED25748006820F00700284355491B
:1014E00008600846006800F00700A84201D001200B
:1014F000E9E7207800F0020002281DD1207800F0F2
:101500000400042805D14C48406840F4E0604A4992
:101510004860207800F00800082805D14648406857
:1015200040F46050444948604348406820F0F0006F
:10153000A168084340494860207800F0010078B372
:101540006068012806D13C48006800F4003090B97A
:101550000120B8E76068022806D13748006800F02B
:10156000007040B90120AEE73348006800F0020087
:1015700008B90120A7E73048406820F003006168FF
:1015800008432D494860FFF76BFD064609E0FFF769
:1015900067FD801B41F28831884202D9032092E71F
:1015A00007E02548406800F00C006168B0EB810F4F
:1015B000EDD12048006800F00700A8420ED91D4870
:1015C000006820F0070028431A49086008460068B0
:1015D00000F00700A84201D0012074E7207800F055
:1015E0000400042807D11448406820F4E060E16852
:1015F000084311494860207800F00800082808D105
:101600000D48406820F46050216940EAC1000A4951
:10161000486000F03FF808494968C1F30311074AE0
:10162000515CC8400649086006480068FFF73EFD67
:10163000002048E70020024000100240CA3B00089A
:101640000C000020040000200148006870470000E2
:101650000C00002000B5FFF7F7FF04494968C1F30B
:101660000221034A515CC84000BD00000010024046
:10167000DA3B000800B5FFF7E7FF04494968C1F30A
:10168000C221034A515CC84000BD00000010024066
:10169000DA3B000870B5002100220024002300205E
:1016A000134D696801F00C05F5B1042D02D0082D29
:1016B00019D101E00F4819E00F4DC1F38346AB5D2E
:1016C00001F4803555B10A4D6D68C5F340450B4EA8
:1016D000725D084D5D43B5FBF2F402E0084D03FB7B
:1016E00005F4204602E000BF024800BF00BF70BD05
:1016F0000010024000127A00B83B0008C83B000806
:1017000000093D00F8B504460CB90120F8BD207869
:1017100000F00100002878D0F848406800F00C0084
:1017200004280CD0F548406800F00C00082811D1BE
:10173000F248406800F48030B0F5803F0AD1EF48AD
:10174000006800F4003000285FD0606800285CD199
:101750000120DBE700BF6068B0F5803F06D1E748B5
:10176000006840F48030E549086028E0606858B9B6
:10177000E248006820F48030E049086008460068CC
:1017800020F4802008601AE06068B0F5A02F0BD12B
:10179000DA48006840F48020D849086008460068AC
:1017A00040F4803008600AE0D448006820F48030BB
:1017B000D24908600846006820F48020086000BF15
:1017C000606888B1FFF74CFC054606E0FFF748FC6F
:1017D000401B642801D9032098E7C848006800F43A
:1017E00000300028F2D010E0FFF73AFC054606E092
:1017F000FFF736FC401B642801D9032086E7BF4869
:10180000006800F400300028F2D1207800F00200D7
:10181000022857D1B948406800F00C0050B1B748D1
:10182000406800F00C00082818D1B448406800F463
:10183000803098B9B148006800F0020020B12069FA
:10184000012801D0012061E7AC48006820F0F800D1
:10185000616940EAC100A949086033E02069E8B144
:101860000120A7490860FFF7FBFB054606E0FFF7EC
:10187000F7FB401B022801D9032047E79F48006877
:1018800000F002000028F2D09C48006820F0F80028
:10189000616940EAC1009949086013E00020984955
:1018A0000860FFF7DDFB054606E0FFF7D9FB401BAC
:1018B000022801D9032029E79048006800F00200BF
:1018C0000028F2D1207800F0080008282DD1A06966
:1018D000B8B101208B490860FFF7C2FB054606E05E
:1018E000FFF7BEFB401B022801D903200EE7834807
:1018F000406A00F002000028F2D0012001F0CCFD87
:1019000013E000207F490860FFF7AAFB054606E0C8
:10191000FFF7A6FB401B022801D90320F6E6774813
:10192000406A00F002000028F2D1207800F00400A4
:10193000042873D100277148C06900F0805070B945
:1019400000BF6E48C06940F080506C49C8610846CD
:10195000C06900F08050009000BF00BF01276A48B6
:10196000006800F48070B0B96748006840F4807087
:1019700065490860FFF774FB054606E0FFF770FB5A
:10198000401B642801D90320C0E65F48006800F4CA
:1019900080700028F2D000BFE068012806D15748C7
:1019A000006A40F001005549086227E0E06858B934
:1019B0005248006A20F00100504908620846006A57
:1019C00020F00400086219E0E06805280BD14B48BC
:1019D000006A40F00400494908620846006A40F085
:1019E000010008620AE04548006A20F0010043490E
:1019F00008620846006A20F00400086200BFE06840
:101A0000A0B1FFF72DFB054609E0FFF729FB401BBE
:101A100041F28831884202D9032077E622E0374834
:101A2000006A00F002000028EFD012E0FFF718FB78
:101A3000054608E0FFF714FB401B41F2883188425D
:101A400001D9032062E62D48006A00F00200002858
:101A5000F0D1012F05D12948C06920F080502749D5
:101A6000C86100BFE069C8B32448406800F00C00BA
:101A7000082860D0E069022848D100202049086683
:101A8000FFF7EEFA054606E0FFF7EAFA401B0228E8
:101A900001D903203AE61948006800F000700028D8
:101AA000F2D1206AB0F5803F07D11448406820F495
:101AB0000030A168084311494860D4E9080108438F
:101AC0000E49496821F4741108430C49486001200B
:101AD0000B490866FFF7C4FA054607E03DE0FFF74B
:101AE000BFFA401B022801D903200FE60348006813
:101AF00000F000700028F2D02FE00000001002403B
:101B0000000042428004424200700040002014491C
:101B10000866FFF7A5FA054606E0FFF7A1FA401BA5
:101B2000022801D90320F1E50E48006800F000709A
:101B30000028F2D111E0E069012800D1E6E509486A
:101B4000466806F48031206A814204D106F470119F
:101B5000606A814201D00120D8E50020D6E500006E
:101B6000000042420010024010B504460CB90120AA
:101B700010BD606A38B96068B0F5827F00D105E0B9
:101B80000021E16102E00021216161610021A16287
:101B900094F8510028B9002084F85000204600F045
:101BA00043F8022084F851002068006820F04000CB
:101BB00021680860A08800F48270218901F4044142
:101BC0000843A18901F400610843217C01F002016E
:101BD0000843217D01F001010843218B01F40071CC
:101BE0000843217F01F0380108432021095D01F0FD
:101BF00080010843218D01F40051084321680860E9
:101C00000421A06901EA1040216848602068C06989
:101C100020F400602168C86100206065012084F81C
:101C200051000020A4E7000010B586B00446002053
:101C300002900390049005903449206888422ED188
:101C400000BF3348806940F48050314988610846BC
:101C5000806900F48050019000BF00BF00BF0846BB
:101C6000806940F0040088610846806900F0040043
:101C7000019000BF00BFB02002900220039003201B
:101C8000059002A92348FFF745F840200290002064
:101C90000390049002A91F48FFF73CF833E01E4967
:101CA000206888422FD100BF1948C06940F48040A5
:101CB0001749C8610846C06900F48040019000BF20
:101CC00000BF00BF0846806940F0080088610846F0
:101CD000806900F00800019000BF00BF4FF4204071
:101CE0000290022003900320059002A90B48FFF701
:101CF00011F84FF48040029000200390049002A954
:101D00000648FFF707F806B010BD0000003001409C
:101D1000001002400008014000380040000C014063
:101D200070B504462546681EB0F1807F01D30120BE
:101D30000FE0681E4FF0E02148610F214FF0FF30A7
:101D400001F0C2FE00204FF0E02188610720086109
:101D5000002070BD7047704730B502460B4600BF8B
:101D600092F83C00012801D1022030BD012082F808
:101D70003C0000BF022082F83D00106844681068F3
:101D8000816824F070041868044310684460144D9E
:101D90001068A84213D0134D1068A8420FD01068E5
:101DA000B0F1804F0BD0104D1068A84207D00F4DF6
:101DB0001068A84203D00E4D1068A84205D121F04A
:101DC00080015868014310688160012082F83D005D
:101DD00000BF002082F83C0000BF00BFC5E7000044
:101DE000002C014000340140000400400008004085
:101DF000000C004010B504460CB9012010BD94F849
:101E00003D0028B9002084F83C00204600F026F868
:101E1000022084F83D00211D206801F0E1FB012033
:101E200084F8460000BF84F83E0001213F200155A0
:101E3000402001554120015500BF00BF012084F81A
:101E4000420043200155442001554520015500BF63
:101E5000012084F83D000020D0E7000038B504469A
:101E60000D492068884215D100BF0C48C06940F078
:101E700010000A49C8610846C06900F010000090CF
:101E800000BF00BF002211463620FFF76FF9362051
:101E9000FFF75CF938BD0000001000400010024060
:101EA0002DE9F04104460D4614B90120BDE8F0814A
:101EB00094F83D0028B9002084F83C00204600F04A
:101EC00051F8022084F83D002068806844F2070140
:101ED000884321688860211D206801F081FB20680B
:101EE000D0F80880206886692068076A286840EA78
:101EF000080840F203308643A969A86840EA012037
:101F0000064340F60C4086434FF2F0008643E969F1
:101F1000E86840EA0120064328690001296A40EA8E
:101F20000130064327F022076969686840EA01101A
:101F300007432068C0F8088020688661206807622F
:101F4000012084F8460084F83E0001213F2001551D
:101F5000012084F8420043200155012084F83D000F
:101F60000020A3E710B586B004460020029003903D
:101F7000049005906D49206888422FD100BF6C48BD
:101F8000806940F400606A4988610846806900F40D
:101F90000060019000BF00BF00BF0846806940F0AC
:101FA000400088610846806900F04000019000BF51
:101FB00000BF4FF42060029000200390049002A91B
:101FC0005C48FEF7A7FE00BF5B49486820F0C000F0
:101FD00040F0E06040F0C0004860A4E02068B0F14C
:101FE000804F45D100BF5248C06940F001005049C0
:101FF000C8610846C06900F00100019000BF00BF41
:1020000000BF0846806940F0040088610846806986
:1020100000F00400019000BF00BF00BF08468069C7
:1020200040F0080088610846806900F008000190CF
:1020300000BF00BF4FF400400290002003900490C6
:1020400002A93E48FEF766FE082002900020039099
:10205000049002A93A48FEF75DFE00BF3649486881
:1020600020F4407040F0E06040F4807048605AE036
:102070003449206888422ED100BF2D48C06940F005
:1020800002002B49C8610846C06900F002000190B7
:1020900000BF00BF00BF0846806940F008008861AB
:1020A0000846806900F00800019000BF00BF3020A2
:1020B000029000200390049002A92148FEF72AFE16
:1020C00000BF1D49486820F4406040F0E06040F4E3
:1020D0000060486027E01C492068884223D100BF87
:1020E0001348806940F400501149886108468069AE
:1020F00000F40050019000BF00BF00BF0846806997
:1021000040F0100088610846806900F010000190DE
:1021100000BF00BFC020029000200390049002A9DD
:102120000A48FEF7F7FD06B010BD0000002C014084
:10213000001002400018014000000140000801406A
:10214000000C014000040040003401400010014038
:10215000704710B5044620680069C0F34000D8B14C
:102160002068C068C0F34000B0B16FF00200216881
:102170000861012020772068806900F0030018B111
:102180002046FFF7E5FF05E0204600F003F9204672
:1021900000F0E2F90020207720680069C0F3800099
:1021A000D8B12068C068C0F38000B0B16FF00400FF
:1021B00021680861022020772068806900F440705F
:1021C00018B12046FFF7C4FF05E0204600F0E2F812
:1021D000204600F0C1F90020207720680069C0F394
:1021E000C000D8B12068C068C0F3C000B0B16FF0C3
:1021F000080021680861042020772068C06900F089
:10220000030018B12046FFF7A3FF05E0204600F0C9
:10221000C1F8204600F0A0F900202077206800696E
:10222000C0F30010D8B12068C068C0F30010B0B18E
:102230006FF0100021680861082020772068C069CD
:1022400000F4407018B12046FFF782FF05E02046F9
:1022500000F0A0F8204600F07FF9002020772068E9
:10226000006900F0010058B12068C06800F001006A
:1022700030B16FF0010021680861204600F06EF96E
:1022800020680069C0F3C01058B12068C068C0F36E
:10229000C01030B16FF08000216808612046FFF760
:1022A00059FD20680069C0F3801058B12068C068EB
:1022B000C0F3801030B16FF0400021680861204603
:1022C00000F05EF920680069C0F3401058B1206842
:1022D000C068C0F3401030B16FF020002168086181
:1022E0002046FFF738FD10BD10B586B0044600202B
:1022F00002900390049005902049206888421FD1E5
:1023000000BF1F48806940F020001D4988610846D1
:10231000806900F02000019000BF00BF8814029087
:1023200002200390059002A91648FEF7F3FC00BFB7
:102330001549486840F0E06040F4805048601AE079
:1023400012492068884216D100BF0D48806940F0CC
:1023500004000B4988610846806900F00400019080
:1023600000BF00BF0F20029002200390059002A939
:102370000748FEF7CFFC06B010BD00000008004083
:10238000001002400014014000000140000C004019
:102390000008014070472DE9F04104460D461646FD
:1023A000002700BF94F83C00012802D10220BDE8BC
:1023B000F081012084F83C0000BF36B1042E1BD010
:1023C000082E31D00C2E5ED145E02946206801F060
:1023D00055F92068806940F008002168886120680C
:1023E000806920F00400216888612068806929697B
:1023F00008432168886148E02946206801F076F9A1
:102400002068806940F400602168886120688069E4
:1024100020F480602168886120688069296940EA29
:1024200001202168886130E02946206801F09CF98C
:102430002068C06940F008002168C8612068C06950
:1024400020F004002168C8612068C0692969084338
:102450002168C86119E02946206801F0C1F92068A7
:10246000C06940F400602168C8612068C06920F438
:1024700080602168C8612068C069296940EA01203C
:102480002168C86101E0012700BF00BF00BF002034
:1024900084F83C0000BF384689E710B504460CB903
:1024A000012010BD94F83D0028B9002084F83C00BC
:1024B000204600F025F8022084F83D00211D206808
:1024C00001F08EF8012084F8460000BF84F83E0039
:1024D00001213F200155402001554120015500BFF9
:1024E00000BF012084F842004320015544200155DB
:1024F0004520015500BF012084F83D000020D0E7B1
:1025000008B5124A016891420DD100BF1049C9694E
:1025100041F004010E4AD1611146C96901F004017C
:10252000009100BF11E00B4A016891420DD100BF3C
:102530000749C96941F00801054AD1611146C969D5
:1025400001F00801009100BF00BF08BD0008004075
:1025500000100240000C00407047000010B5044617
:10256000064920680968884207D1FDF7ADFF00F0F1
:10257000AFFEFEF763F8FEF743F810BDDC02002063
:10258000704710B504460CB9012010BDA06900B118
:1025900000E000BF94F8410028B9002084F8400012
:1025A000204600F029F8242084F841002068C06803
:1025B00020F400502168C860204601F03BF92068F3
:1025C000006920F49040216808612068406920F08B
:1025D0002A00216848612068C06840F400502168E2
:1025E000C86000206064202084F8410084F8420024
:1025F0000020606300BFC8E710B586B00446002025
:1026000002900390049005909149206888422FD150
:1026100000BF9048C06940F400208E49C861084658
:10262000C06900F40020019000BF00BF00BF084651
:10263000806940F0100088610846806900F0100051
:10264000019000BF00BF08150290022003900320F4
:10265000059002A98048FEF75DFB4FF400600290F0
:1026600000200390049002A97B48FEF753FBECE0A6
:102670007A49206888423BD100BF7648C06940F45F
:1026800080107449C8610846C06900F48010019048
:1026900000BF00BF00BF0846806940F0100088619D
:1026A0000846806900F01000019000BF00BF00BF25
:1026B0000846806940F0200088610846806900F083
:1026C0002000019000BF00BF8814029002200390F8
:1026D0000320059002A96048FEF71CFB042002902D
:1026E00000200390049002A95D48FEF713FBACE0C4
:1026F0005C49206888422FD100BF5648806940F469
:102700008040544988610846806900F48040019007
:1027100000BF00BF00BF0846806940F00400886128
:102720000846806900F00400019000BF00BF481512
:102730000290022003900320059002A94A48FEF768
:10274000E9FA4FF48060029000200390049002A9FF
:102750004548FEF7DFFA78E044492068884236D1E0
:1027600000BF3C48C06940F400303A49C86108469F
:10277000C06900F40030019000BF00BF00BF0846F0
:10278000806940F0200088610846806900F02000E0
:10279000019000BF00BF2020029002200390032080
:1027A000059002A92E48FEF7B5FA402002900020BD
:1027B0000390049002A92A48FEF7ACFA00BF2C4906
:1027C000486840F0E06040F0080048603DE029497A
:1027D0002068884239D100BF1E48C06940F480207B
:1027E0001C49C8610846C06900F48020019000BF00
:1027F00000BF00BF0846806940F02000886108469D
:10280000806900F02000019000BF00BF8815029091
:10281000022003900320059002A91148FEF77AFADE
:102820004FF40070029000200390049002A90C481D
:10283000FEF770FA00BF0E49486820F0300040F003
:10284000E06040F03000486000BF06B010BD0000FE
:10285000004C0040001002400010014000500040B9
:1028600000140140003801400008014000440040CD
:1028700000000140004800402DE9F84F04460E4694
:10288000174699464FF0000A94F8410020284AD193
:1028900006B117B90120BDE8F88F0020606421203F
:1028A00084F84100FEF7DCFB8246A784E784A06839
:1028B000B0F5805F04D1206910B90025B04602E070
:1028C00035464FF000081BE0534600228021204689
:1028D000CDF8009001F02CF808B10320DBE745B9F2
:1028E000B8F80000C0F308002168486008F1020849
:1028F00003E02878216848606D1CE08C401EE0846D
:10290000E08C0028E0D15346002240212046CDF83B
:10291000009001F00DF808B10320BCE7202084F8F6
:1029200041000020B7E70220B5E700BFFEE7000046
:102930000EB50020009001900290124812490860E4
:10294000002111488160017301754FF46021C1615C
:1029500000200D49486001210B480161FDF7D4FFBB
:1029600008B1FDF71DFF0820009001200190002014
:10297000029069460448FDF717FF08B1FDF710FF04
:102980000EBD0000002401406C00002010B50B4873
:102990000B49086010204860002109488160C1602F
:1029A00001614161017641768176C1760177417797
:1029B000FEF7A8F808B1FDF7F3FE10BD0064004073
:1029C0009C00002000B585B000200190029003908B
:1029D000049000BF6448806940F04000624988610B
:1029E0000846806900F04000009000BF00BF00BFB3
:1029F0000846806940F0800088610846806900F0E0
:102A00008000009000BF00BF00BF0846806940F012
:102A1000100088610846806900F01000009000BF37
:102A200000BF00BF0846806940F004008861084686
:102A3000806900F00400009000BF00BF00BF08469E
:102A4000806940F0080088610846806900F008004D
:102A5000009000BF00BF00BF0846806940F0200022
:102A600088610846806900F02000009000BF00BF28
:102A700000BF0846806940F480708861084680691C
:102A800000F48070009000BF00BF0022742137481E
:102A9000FEF7E0FA012208213448FEF7DBFA0022B3
:102AA0003F213348FEF7D6FA00224FF4FE41314869
:102AB000FEF7D0FA002218212F48FEF7CBFA0420A7
:102AC000019001200290022003900320049001A9AC
:102AD0002648FEF71FF908200190012002900020EF
:102AE00003900320049001A92048FEF713F97020F9
:102AF000019001200290002003900220049001A97F
:102B00001A48FEF707F93F200190012002900020AB
:102B100003900220049001A91548FEF7FBF84FF43A
:102B2000F860019000200290039001A91048FEF780
:102B3000F1F84FF4FE400190012002900020039034
:102B40000220049001A90B48FEF7E4F81820019038
:102B500001200290002003900220049001A9064861
:102B6000FEF7D8F805B000BD001002400018014083
:102B7000001C0140002001400014014010B50E4827
:102B80000E4908604FF48270486000210B48816054
:102B9000C160016141614FF4802181612821C161DF
:102BA00000210162416281620A21C162FEF7DCFFFD
:102BB00008B1FDF7F5FD10BD00300140C400002054
:102BC00010B50E480E4908604FF48270486000212D
:102BD0000B488160C160016141614FF40071816106
:102BE0000021C1610162416281620A21C162FEF776
:102BF000BBFF08B1FDF7D4FD10BD00000038004058
:102C00001C01002000B58BB0242102A8FDF7C7FAF3
:102C10000020009001901848184908600020486082
:102C200000211648816044F61F61C16000210161E6
:102C300041618161032002900020039001200490F3
:102C40000020059006900790012008900020099030
:102C50000A9002A90948FFF723F908B1FDF7A0FD82
:102C600000200090019069460448FFF775F808B10C
:102C7000FDF796FD0BB000BD002C01407401002053
:102C800000B58BB0242102A8FDF789FA002000903E
:102C900001904FF0804017490860002048600021F3
:102CA0001448816044F61F61C160002101618161A7
:102CB0000320029000200390012004900020059042
:102CC0000690079001200890002009900A9002A920
:102CD0000848FFF7E5F808B1FDF762FD0020009015
:102CE000019069460348FFF737F808B1FDF758FD32
:102CF0000BB000BDBC01002000B58BB0242102A8A0
:102D0000FDF74DFA0020009001901848184908601E
:102D10000020486000211648816044F61F61C160B0
:102D200000210161816103200290002003900120B5
:102D30000490002005900690079001200890002044
:102D400009900A9002A90A48FFF7AAF808B1FDF70E
:102D500027FD00200090019069460548FEF7FCFF22
:102D600008B1FDF71DFD0BB000BD000000040040E0
:102D70000402002000B589B00020079008901C21B3
:102D80006846FDF70CFA18481849086000204860AA
:102D90000021164881604FF6FF71C160002101617A
:102DA0008161FFF77AFB08B1FDF7FAFC002007907C
:102DB000089007A90D48FEF7CFFF08B1FDF7F0FC1A
:102DC000602000900020019002900490002269464B
:102DD0000648FFF7E0FA08B1FDF7E2FC0348FFF709
:102DE00083FA09B000BD0000000800404C0200203A
:102DF00000B589B00020079008901C216846FDF7B7
:102E0000CEF9244824490860472048600021224820
:102E1000816042F20F71C160002101618161FFF7A1
:102E20003CFB08B1FDF7BCFC00200790089007A907
:102E30001948FEF791FF08B1FDF7B2FC6020009041
:102E40000020019002900490002269461248FFF78A
:102E5000A2FA08B1FDF7A4FC042269460E48FFF768
:102E60009AFA08B1FDF79CFC082269460A48FFF768
:102E700092FA08B1FDF794FC0C2269460648FFF768
:102E80008AFA08B1FDF78CFC0348FFF72DFA09B068
:102E900000BD0000000C0040940200201CB5002082
:102EA000009001900E480F490860472048600021BB
:102EB0000C48816042F20F71C16000218161FEF710
:102EC00099FF08B1FDF76CFC002000900190694665
:102ED0000448FEF741FF08B1FDF762FC1CBD00008D
:102EE00000100040DC02002000B58BB0242102A8B5
:102EF000FDF755F900200090019018481849086026
:102F00000020486000211648816044F61F61C160BE
:102F10000021016141618161032002900020039042
:102F20000120049000200590069007900120089051
:102F3000002009900A9002A90948FEF7B1FF08B1E4
:102F4000FDF72EFC00200090019069460448FEF732
:102F500003FF08B1FDF724FC0BB000BD00340140B5
:102F60002403002010B50B480B4908604FF4E130F2
:102F70004860002108488160C16001610C21416105
:102F800000218161C161FFF7FCFA08B1FDF708FC7F
:102F900010BD0000004C00406C03002010B50B4831
:102FA0000B4908604FF4E130486000210848816017
:102FB000C16001610C21416100218161C161FFF7A4
:102FC000E0FA08B1FDF7ECFB10BD00000050004036
:102FD000B403002010B50B480B4908604FF4E130F2
:102FE0004860002108488160C16001610C21416195
:102FF00000218161C161FFF7C4FA08B1FDF7D0FB80
:1030000010BD000000380140FC03002010B50B4843
:103010000B4908604FF4E1304860002108488160A6
:10302000C16001610C21416100218161C161FFF733
:10303000A8FA08B1FDF7B4FB10BD00000044004041
:103040004404002010B50B480B4908604FF4E130F0
:103050004860002108488160C16001610C21416124
:1030600000218161C161FFF78CFA08B1FDF798FB7F
:1030700010BD0000004800408C04002010B5094835
:103080000949086008204860022107488160002142
:103090008161C1610162FEF7BBF808B1FDF780FBF9
:1030A00010BD0000005C0040D404002000BFFEE71B
:1030B00070B500241A48C26841691A48007843B2C2
:1030C0001748683000F089F91548D0F88840002189
:1030D0002046FDF777F910D22046FDF755F9124941
:1030E00009684863002210211048FDF7B3FF012250
:1030F00020210E48FDF7AEFF11E084F00045284680
:10310000FDF742F908490968486301221021074880
:10311000FDF7A0FF002220210448FDF79BFF70BDB2
:10312000140800201A000020940200200010014022
:1031300070B500241C48D0F89C20D0F8A4101B487F
:10314000007843B21848F83000F047F91648D0F834
:10315000184100212046FDF735F911D22046FDF730
:1031600013F9134909688863012251021148FDF7D8
:1031700071FF00224FF480710E48FDF76BFF12E0E3
:1031800084F000452846FDF7FFF80949096888637F
:1031900000224FF400710748FDF75CFF0122110285
:1031A0000448FDF757FF70BD140800201A000020E6
:1031B000940200200010014070B500241C48D0F893
:1031C0002C21D0F834111B48007843B21A4800F083
:1031D00004F91748D0F8A84100212046FDF7F2F87D
:1031E00011D22046FDF7D0F814490968C8630022BF
:1031F0004FF480611248FDF72DFF0122D1021048E3
:10320000FDF728FF12E084F000452846FDF7BCF8E2
:103210000A490968C863012291020948FDF71AFFAB
:1032200000224FF400610648FDF714FF70BD000056
:10323000140800201A0000209C090020940200209D
:103240000020014070B500241C48D0F8BC21D0F803
:10325000C4111B48007843B21A4800F0BEF8174862
:10326000D0F8384200212046FDF7ACF811D22046B4
:10327000FDF78AF8144909680864012251031348CC
:10328000FDF7E8FE00224FF480411048FDF7E2FE12
:1032900012E084F000452846FDF776F80A490968EF
:1032A000086400224FF400510848FDF7D3FE0122C4
:1032B00091030648FDF7CEFE70BD00001408002003
:1032C0001A0000202C0A0020940200200020014057
:1032D0007FB53A480068406A00B2ADF80800384847
:1032E0000068406A00B2ADF80A0036480068406ADB
:1032F00000B2ADF80C0034480068406A00B2ADF886
:103300000E002E480068C06A00B2ADF800002C48DC
:103310000068C06A00B2ADF802002A480068C06ABE
:1033200000B2ADF8040028480068C06A00B2ADF8E9
:103330000600002500243DE03DF9140000EBD071AB
:1033400002AA32F81420A2EB61010DB204EBC40111
:103350001E4A02EB0111B1F908103DF9142001FBDE
:1033600002F000EBD07105EB610104EBC402174BD6
:1033700003EB0212516004EBC4011A4602EB011187
:103380004868FCF7DFFF06461149FCF79DFF04EB98
:10339000C4010E4A02EB0111086104EBC40011469E
:1033A00001EB0010406804EBC40102EB011108605E
:1033B000601C44B2042CBFDB7FBD00007401002000
:1033C000BC01002004020020240300201408002077
:1033D000E5F29F3E704700BFFEE72DE9F04104464D
:1033E0000D4616461F46002F51D0E0682061314639
:1033F0002846FCF731FFE0602168E068FCF732FF07
:103400002062D4E90301FCF727FF8046A168FCF79E
:1034100029FFE0616168E068FCF724FF804661698C
:10342000FCF7C8FE6061A06980F000484046616911
:10343000FCF7C8FF03D8A06980F0004007E0D4E99A
:103440000501FCF7BFFF01D8A06900E06069606179
:103450006169206AFCF7AEFE8046E169FCF7AAFECE
:103460002062606A80F000484046216AFCF7AAFFAB
:1034700003D8606A80F0004007E0D4E90801FCF757
:10348000A1FF01D8606A00E0206A206201E000200C
:103490002062BDE8F081704708B508490968C9088D
:1034A0004FF47A72B1FBF2F14143009100BF00BFCB
:1034B00000994A1E00920029F9D108BD0C00002095
:1034C0007047000070B50446002619492069FCF7D2
:1034D00079FF04D317492069FCF76AFF01D2002065
:1034E00070BD132513E0681E04F1180151F8201077
:1034F00004F1180040F82510681E04F1180252F873
:1035000020103046FCF756FE0646681EC5B2002D58
:10351000E9DC2069A06130462169FCF74BFE0646D4
:1035200005493046FCF7D0FEE0600020D8E70000F7
:1035300000008C4300008CC30000A04110B5FDF7D3
:1035400095FD10BD00B595B028210BA8FCF727FE0E
:10355000142106A8FCF723FE18216846FCF71FFE7D
:1035600001200B9000040C9000200D9001200F9082
:1035700002201290C10313914FF4E01114910BA893
:10358000FEF7C0F808B1FDF70BF90F2006900220F6
:103590000790002008904FF48060099000200A9066
:1035A000022106A8FDF78AFF08B1FDF7F9F81220FD
:1035B00000904FF400400290002005906846FDF70F
:1035C000E5FE08B1FDF7ECF815B000BD704700004E
:1035D00010B50248FEF7BDFD10BD0000DC02002062
:1035E00010B50268204B98420ED0204B98420BD069
:1035F000B0F1804F08D01E4B984205D01D4B984229
:1036000002D01D4B984203D122F070024B681A433E
:10361000154B98420ED0154B98420BD0B0F1804F0D
:1036200008D0134B984205D0124B984202D0124B4F
:10363000984203D122F44072CB681A4322F08003EF
:103640004C6943EA040202608B68C3620B688362C0
:10365000054B984202D0054B984201D10B69036398
:103660000123436110BD0000002C014000340140E3
:103670000004004000080040000C004030B5026A21
:10368000056A25F0010505624368846924F0700429
:1036900024F003040D682C4322F002028D682A43B3
:1036A000104DA84200D103E00F4DA84206D100BF43
:1036B00022F00802CD682A4322F00402094DA842F4
:1036C00002D0094DA84207D123F4807323F400737C
:1036D0004D692B438D692B43436084614D6845637D
:1036E000026230BD002C01400034014030B5026A56
:1036F000056A25F0100505624368846924F4E044F6
:1037000024F440740D6844EA052422F020028D68F8
:1037100042EA0512124DA84200D103E0114DA84221
:1037200007D100BF22F08002CD6842EA051222F0E4
:1037300040020B4DA84202D00A4DA84209D123F401
:10374000806323F400634D6943EA85038D6943EA8E
:103750008503436084614D688563026230BD00006B
:10376000002C01400034014030B5026A056A25F49E
:10377000807505624368C46924F0700424F0030472
:103780000D682C4322F400728D6842EA0522124D26
:10379000A84200D103E0114DA84207D100BF22F496
:1037A0000062CD6842EA052222F480620A4DA842F6
:1037B00002D00A4DA84209D123F4805323F40053C8
:1037C0004D6943EA05138D6943EA05134360C461FB
:1037D0004D68C563026230BD002C014000340140D9
:1037E00030B5036A056A25F4805505624468C269EC
:1037F00022F4E04222F440720D6842EA052223F4EA
:1038000000538D6843EA0533084DA84202D0084DA5
:10381000A84204D124F480444D6944EA85144460EC
:10382000C2614D680564036230BD0000002C014098
:103830000034014070B504462168096921F4405103
:10384000E2681143226811612269A168114362692B
:1038500041EA02052168C96841F20C62914329439B
:103860002268D1602168496921F44071A26911433D
:10387000226851612D4A2168914202D1FDF7FAFE7A
:1038800001E0FDF7E7FE00EBC00101EB001162680B
:103890009200B1FBF2F100EBC00202EB0012636890
:1038A0009B00B2FBF3F26423B2FBF3F202EBC20320
:1038B00003EB0212A1EB8201322202EB011164221E
:1038C000B1FBF2F101F0F00100EBC00202EB0012DB
:1038D00063689B00B2FBF3F26423B2FBF3F201EBEB
:1038E000021200EBC00101EB001163689B00B1FB09
:1038F000F3F100EBC00303EB00136668B600B3FB03
:10390000F6F36426B3FBF6F303EBC30606EB0313EF
:10391000A1EB8301322303EB01116423B1FBF3F12B
:1039200001F00F0111442268916070BD0038014020
:103930002DE9F04104460D4617469846069E34E0B0
:10394000701C88B32EB1FDF78BFBA0EB0800B042D2
:103950002BD900BF00BF21680C3151E8001F21F4B2
:10396000D07021680C3141E80002002AF3D100BF79
:1039700000BF00BF2168143151E8001F21F0010091
:103980002168143141E80002002AF3D100BF202051
:1039900084F8410084F8420000BF002084F8400011
:1039A00000BF0320BDE8F081FFE7206800682840E1
:1039B000A84201D1012000E00020B842C0D0002080
:1039C000F0E710B50446002010BD01460020704706
:1039D00010B50446012024F8400F00202080A0806C
:1039E0002082403C10BD01464FF43F42B1F84000F8
:1039F0009043A1F840000020704702460020704725
:103A000000BFFEE710B524490968244A1268891AE4
:103A1000234A12688818FCF795FC224948611E4920
:103A200009681E4A126811441D4A1268881AFCF778
:103A300089FC1C49C1F8A40017490968174A126893
:103A40001144174A12688818FCF77CFC1549C1F824
:103A5000340111490968114A1268891A104A12681A
:103A6000881AFCF76FFC0F49C1F8C401002408E074
:103A700004EBC4010B4A02EB0110FFF723FD601CAD
:103A800044B2042CF4DBFFF713FBFFF751FBFFF705
:103A900093FBFFF7D7FB10BD240000202800002077
:103AA0002C00002014080020014A024900F02FB821
:103AB000313B00086800002002480068C0F3022083
:103AC000704700000CED00E010B5002804DB0A0789
:103AD000130E054A135406E00A07140E034A00F0B9
:103AE0000F031B1FD45410BD00E400E018ED00E0EC
:103AF00002E008C8121F08C1002AFAD170477047B7
:103B0000002001E001C1121F002AFBD170472DE9FE
:103B1000F04116460F460446002503E03946B047FB
:103B2000641C6D1C20780028F8D12846BDE8F0817F
:103B300013B50C464FF4FA73012269460248FEF7AA
:103B40009BFE00981CBD0000FC030020FDF79AFAC4
:103B5000FFF7F8FCFEF736FFFFF754F8FFF790F891
:103B6000FFF7CAF8FFF744F9FFF798F9FFF7BCF938
:103B7000FEF7DEFEFEF70AFFFFF700F8FFF720F87A
:103B8000FFF7F0F9FFF70AFAFFF724FAFFF73EFA1A
:103B9000FFF758FAFFF772FAFFF7ECF809E0012295
:103BA00004210448FDF756FA002208210148FDF7D8
:103BB00051FAF4E70018014002030405060708095A
:103BC0000A0B0C0D0E0F1010010200000000000087
:103BD00000000102030406070809000000000102BA
:103BE00003040000043C0008000000206C000000FA
:103BF000F03A0008703C00086C0000208C0E0000B9
:103C0000003B000800000000100000000100000060
:103C10000024F4000100000000000000000001008A
:103C20000000000000000000000000000000000094
:103C30000000000000000000000000000000000084
:103C40000000000000000000000000000000000074
:103C50000000000000000000000000000000000064
:103C60000000000000000000000000000000000054
:0400000508000131BD
:00000001FF
