:020000040800F2
:10000000E0110020DD010008413000080F27000842
:10001000A92D0008D10C00083D35000800000000A3
:10002000000000000000000000000000ED300008AB
:10003000170D000800000000EB30000841310008F7
:10004000F7010008F7010008F7010008F7010008B0
:10005000F7010008F7010008F7010008F7010008A0
:10006000F7010008F7010008F7010008F701000890
:10007000F7010008F7010008F7010008F701000880
:10008000F7010008F7010008F7010008F701000870
:10009000F7010008F7010008F7010008F701000860
:1000A000F7010008F7010008F7010008F701000850
:1000B000F7010008F7010008F7010008F701000840
:1000C000F7010008F7010008F7010008F701000830
:1000D000F7010008F7010008F7010008F701000820
:1000E000F7010008F7010008F7010008F701000810
:1000F000F7010008F7010008F7010008F701000800
:10010000F7010008F7010008F7010008F7010008EF
:10011000F7010008F7010008C5310008F7010008E1
:10012000F7010008F7010008F7010008F7010008CF
:1001300000F002F800F042F80AA090E8000C8244B7
:100140008344AAF10107DA4501D100F037F8AFF294
:10015000090EBAE80F0013F0010F18BFFB1A43F0A5
:1001600001031847603C0000803C0000103A24BFA7
:1001700078C878C1FAD8520724BF30C830C144BF0C
:1001800004680C607047000000230024002500264E
:10019000103A28BF78C1FBD8520728BF30C148BFEA
:1001A0000B6070471FB59DE8030000F0EDFA00F00A
:1001B000CBF81FBD10B500F030F910BD00F093F979
:1001C0001146FFF7EFFF03F00FFA00F0ABFA03B4AC
:1001D000FFF7F0FF03BC00F069FC0000094880470E
:1001E00009480047FEE7FEE7FEE7FEE7FEE7FEE719
:1001F000FEE7FEE7FEE7FEE704480549054A064B31
:1002000070470000C331000831010008E00B0020F6
:10021000E0110020E00D0020E00D00200FB40449A3
:1002200010B503AA029800F061F810BC5DF814FB49
:10023000D40A002010B5203AC0F00B80B1E8185065
:10024000203AA0E81850B1E81850A0E81850BFF4C0
:10025000F5AF5FEA027C24BFB1E81850A0E818505F
:1002600044BF18C918C0BDE810405FEA827C24BFB3
:1002700051F8043B40F8043B08BF7047D20728BF41
:1002800031F8023B48BF11F8012B28BF20F8023B90
:1002900048BF00F8012B70474FF0000200B513462D
:1002A00094469646203922BFA0E80C50A0E80C5096
:1002B000B1F12001BFF4F7AF090728BFA0E80C5047
:1002C00048BF0CC05DF804EB890028BF40F8042B40
:1002D00008BF704748BF20F8022B11F0804F18BFAD
:1002E00000F8012B7047704770477047074B70B597
:1002F0000D467B4400F011F80446284600F020F833
:1003000010B14FF0FF3070BD204670BDDB320000F1
:1003100001694A1C02610878704700B58FB0CDE9C9
:1003200001310021059105497944CDE903101146B9
:10033000684600F024F90FB000BD0000E5FFFFFFA4
:10034000007B00F08000704710B542485421FFF751
:10035000A3FF41485421FFF79FFF40485421FFF776
:100360009BFF3F493B483C4A3F4B08603D490A6080
:100370003A491960531C0365481C10650120086543
:100380003B48344A39A1784400F030F920B9384864
:1003900078440A3800F0CFF937482F4A35A178441D
:1003A00000F024F920B9344878440A3800F0C3F941
:1003B00032482A4A2FA1784400F018F920B92F4872
:1003C00078440A3800F0B7F940232248DC000021C5
:1003D000224600F0E8F820B125487844543800F06F
:1003E000AAF91D4822464023002100F0DCF820B184
:1003F00021487844543800F09EF9184822461023CA
:10040000002100F0D0F8002806D01C487844BDE850
:100410001040563800F08FB910BD104870B5006D0F
:1004200020F001040B4800F057F90B4800F054F994
:100430000A4800F051F909E0206D20F0010520463E
:1004400000F04AF9204600F073F82C46002CF3D156
:1004500070BD0000800A0020D40A0020280B002074
:1004600040000020440000204800002072000000EE
:100470002E3A0000770000001A3A0000063A000009
:100480000EB5CDE9000100F0F1FA029069460120B5
:10049000ABBE0EBD08B5694600900220ABBE08BDDC
:1004A0001FB58DE8070069460520ABBE04B010BD3E
:1004B0001FB58DE80F0069460620ABBEF6E708B50C
:1004C000694600900920ABBE08BD1CB5CDE900010E
:1004D00069460A20ABBE1CBD704708B5694600904E
:1004E0000C20ABBE08BD754600F02CF9AE460500E9
:1004F0006946534620F00700854618B020B5FFF73F
:100500007BFEBDE820404FF000064FF000074FF0A3
:1005100000084FF0000B21F00701AC46ACE8C00921
:10052000ACE8C009ACE8C009ACE8C0098D4670472A
:1005300070B50446051F00F00BF90068002C14BFCD
:10054000446870BD002C18BFAC423CBF20466468B4
:10055000F8D301680A18AA4218BF456003D12A6877
:1005600005461144016028684119A1421CBF6C6016
:1005700070BD6168696021680844286070BD2DE91C
:10058000F04106460024D6E90170F5688046304601
:1005900003E04146B847641C3046A8470028F8D11C
:1005A0002046BDE8F08170B5C468A50713D0650288
:1005B00011D4B2F5807F09D0B2F5007F06D0B2F534
:1005C000806F08D1012300F1240106E05D1E6FF069
:1005D0007F46B54201D3012070BD0161C361416016
:1005E00024F470611143C160002070BD2DE9F04119
:1005F0000C4607461646104600F06EF82078611C3F
:1006000061280AD0722802D077283CD102E0012567
:10061000002405E00225042402E0082448F2020533
:1006200011F8010B2B2806D0622809D011F8010C13
:1006300074280AD00BE045F0030544F00204EFE70C
:1006400045F0040544F00104EAE744F0100438469C
:100650002146FFF715FF411C15D000213161716063
:100660004FF40071F560F1617061200704D53046E8
:100670000222002100F0E6F8306D40F00100306504
:100680003046BDE8F0810020FBE72DE9F0410D4642
:100690000646104C206DC10704D0410804D020F05C
:1006A0000104F7E722460EE0542000F09CF8070012
:1006B0000ED0206D47F001010843542120653846D3
:1006C000FFF7EAFD3A4629463046BDE8F0418DE79E
:1006D0000020D6E7800A00202DE9F04704464FF0BD
:1006E00000094FF0FF37C568D4E90486A80707D092
:1006F000204600F057F93046FFF7CCFE002802DA1A
:100700003846BDE8F087280502D54046FFF710FFC0
:100710004C212046FFF7C0FD206D20F00100206530
:100720004846EEE710B50446AFF300802046BDE82A
:100730001040FFF74CBD10B500F07EF9BDE8104049
:1007400000F074B9004870477C0B0020704700002F
:1007500000487047840B002070477047704770470F
:1007600038B504460A4600206946AFF300800028E9
:1007700008BF38BD02460099204600F0A4F90120C8
:1007800038BD012000F0F3B9F8B5AFF3008005469D
:1007900000200C46102000BF0646A819A0420DD923
:1007A000324669460020AFF30080070008BF00F022
:1007B000DEF90098A04218BF0546C419FFF7C8FF2C
:1007C00005600746F01D20F007004619284600F096
:1007D00073F9B44208BFF8BDA21B31463868BDE8C2
:1007E000F84000F070B970B50646FFF7B1FF056834
:1007F00006F10B0020F00704B4429CBF002070BD3E
:100800002B466A68BAB11068A04210D304F10801FF
:1008100088423CBF5068586007D351681019416046
:100820001168091B016058601460101D70BD1346EB
:100830005268002AE7D121462846FFF791FF002899
:10084000DED170BD2DE9F041044616460D464769DC
:10085000007B80072ED03846FFF731FE50BB3EB3F9
:10086000012E02D0022E25D104E0204600F045F9E9
:1008700005441DE03846FFF730FEE168002841F0EE
:100880001001E16005DA204600F058F80120BDE8CB
:10089000F081C9030BD56268E16A914200D8114624
:1008A000A26911442269891A814200DD0846054483
:1008B000002D01DA0220EAE7E16A6068E26881421D
:1008C00006D29103E06203D522F4003141F0100218
:1008D000A6690027AE4213DCE16A814201D90B46CA
:1008E00000E0034603EB060C2369ACEB030CAC45BC
:1008F00006DD814201D98C4600E084469C4505D145
:10090000A760276042F02000A5620DE0AD1BE669FC
:10091000AE1B8142A66000D90846C01A281A206082
:100920005819606022F0200003490840E060002070
:1009300084F84870ABE70000BFCFD7FFC16821F44F
:10094000001141F08001C1600021816001607047A9
:100950002DE9F047814614460E464FF0FF383248E5
:10096000D5685769054209D03846A169FFF7ADFD42
:10097000002811DB2C48C0430540E5602B46324679
:1009800049463846FFF78CFDA16920F00042B21AB3
:1009900011440028A16103D02046FFF7CFFF404655
:1009A000BDE8F08770B504460569C06A6168884291
:1009B00000D80846E16821F42011E160C90312D58E
:1009C000A84208D02246411B2846FFF7C1FF10B1BC
:1009D0004FF0FF3070BD0020E562C4E90150E068CF
:1009E00020F48030E060002070BD10B50446C0687F
:1009F00020F02000E060A16AA06988420DD0204666
:100A0000FFF7D0FFE06820F4405040F01000E060B5
:100A1000A06AA0612069E062606044F24001E06881
:100A20008843E06010BD000010000200002801D0E3
:100A300000F03CB87047000010B5014602A000F07D
:100A40007DF8012010BD00005349475254524544DF
:100A50003A2052656469726563743A2063616E2757
:100A600074206F70656E3A200000000010B5431CC2
:100A700002E010F8011B71B18107FAD14FF0013289
:100A800002C88C1A8C4314EAC211F9D0C01A0A06A3
:100A900003D0C01E10BDC01A10BD0A0401D0801EB4
:100AA00010BD0902FCD0401E10BD000001491820F5
:100AB000ABBEFEE72600020000210160C0E9011084
:100AC000704710207047034640688C46002818BFC6
:100AD00088423CBF03464068F8D3186818448842EF
:100AE00007D00CF1030020F00700001D411A521A34
:100AF0000146081D0A60FFF71BBD10B50146C2681C
:100B0000900703D0900607D5886A0AE000F03EF807
:100B100001210160881E10BD8B69486818440B696B
:100B2000C01A91F848301BB191F84910401A10BD15
:100B30001103FCD50028FADD401E10BD70B5054636
:100B40000C460A2000E06D1C00F018F835B128783A
:100B50000028F8D102E0641C00F010F814B12078ED
:100B60000028F8D1BDE870400A2000F007B810B5A1
:100B700000F010F8BDE81040FFF758BF08B569460F
:100B80008DF800000320ABBE08BD00000048704790
:100B90007C0B002010B5012805D0002103A0FFF731
:100BA000CDFF012010BD09A1F8E7000053494752CD
:100BB000544D454D3A204F7574206F66206865612D
:100BC00070206D656D6F7279000000003A204865F5
:100BD0006170206D656D6F727920636F72727570D0
:100BE0007465640070B5044600688168C943C9072C
:100BF00017D1816821F00101816000F0FFFB0546FB
:100C00000AE000BF00F0FAFB401B022804D920686C
:100C10008068C043C00706D020688068C043C00712
:100C2000F0D0002070BDA06A40F01000A062E06A21
:100C300040F00100E062012070BD00002DE9F041AC
:100C4000144C4FF4B47194F9045005FB01F002F018
:100C50006FFE06461048076A206A394602F0B2FF66
:100C6000314602F0AFFF0D49884201DD6D1C03E003
:100C70000B49884201D96D1E257194F904004FF487
:100C8000B471484302F054FE394602F0DFFC2062A2
:100C9000BDE8F081100000205C0A00200000344311
:100CA000000034C310B5084CA078226A43B207484C
:100CB000A16802F0C6F90548006A80F0004002F021
:100CC000FBFDE06110BD000010000020A407002023
:100CD000FEE7000010B5094C05212069401C206189
:100CE00094F9030090FBF1F201FB1200002804D1FB
:100CF00003A0FFF793FA0020607010BD10000020E1
:100D00003100000010B500F007F8FFF7CBFFBDE899
:100D1000104002F015BC70472DE9F041264CA07838
:100D2000626A43B22548E16802F08BF92078234FCC
:100D30000026DFF88C8007F1280501281FD0022843
:100D40001BD12969D5F8A00002F03CFFD5F830117D
:100D500002F07CFCD5F8C01102F034FF414602F0ED
:100D6000E9FC012102F0D5FF616A02F06FFC6062CC
:100D7000386A02F0A1FDC4E90560BDE8F081D5F84C
:100D80009C10E86802F062FCD5F82C1102F05EFCC1
:100D9000D5F8BC1102F05AFC414602F0CBFC01210F
:100DA00002F0B7FF616A02F051FC6062386A02F03B
:100DB00083FDC4E90506E0E710000020CC07002011
:100DC000AB279F4472B6FEE7F8B50024009490F874
:100DD00024202546012A12D0012280F824204A68C6
:100DE0001F23072A0DD20668776B521E02EB820280
:100DF00093409F430B6893401F43776319E00220A1
:100E0000F8BD06680D2A0AD2376BD21F02EB8202A8
:100E100093409F430B6893401F43376309E0F76A91
:100E20000D3A02EB820293409F430B6893401F43AD
:100E3000F7620A68072306680A2A0AD3F7680A3A9B
:100E400002EB420293409F438B6893401F43F7603D
:100E500008E0376902EB420293409F438B6893405E
:100E60001F4337610A68102A01D0112A20D1124B82
:100E700002689A4217D193681B0219D4936843F40D
:100E8000000393600968102912D10C490C4A0968C3
:100E9000B1FBF2F101EB8101490000E0491E009134
:100EA0000029FBD104E0816A41F020018162012424
:100EB00080F824502046F8BD002401400C0000209A
:100EC00040420F002DE9F04104004FF000057FD0B3
:100ED000A06A002628B9E66284F82460204600F063
:100EE00081F82046FFF77EFEA16AC90600D420B132
:100EF000A06A40F01000A0626AE0A16A21F4885163
:100F000041F00201A162334923688B42E16904D1B7
:100F1000B1F5402F01D14FF40021277B4FF4807CA5
:100F200041EA470261680A43A168614508D0012986
:100F300006D0002194F814E0BEF1010F02D00AE0BF
:100F40006146F7E7C7B1A76A47F02007A762E76ADB
:100F500047F00107E7625F6827F469470F435F6066
:100F6000236899681C4F394011439960A168614515
:100F70000BD0012909D00CE0DFF860E0A7690EEB87
:100F800047370F4347F40061E5E7218A0D05A5F5D2
:100F900080152168CB6A23F470032B43CB62216850
:100FA00089680F4B1940914208D1E662A16A21F08D
:100FB000020141F00101A162BDE8F081A06A20F0C8
:100FC000020040F01000A062E06A40F00100E06220
:100FD0000120F1E7003C0140FDF7E1FF00E0FFFFE9
:100FE000FE0E1FFF10B586B0002100910191029105
:100FF000039100681549884226D11548816941F45A
:1010000000718161816901F400710491816941F08D
:1010100010018161816901F010010491816941F041
:10102000080181618069032400F008000490012018
:10103000CDE900046946074800F0DEF800946946EF
:101040000548019400F0D8F806B010BD0024014016
:101050000010024000100140000C014070B5040077
:1010600003D094F8200010B104E0012070BD2046A8
:1010700000F082F82068016841F00101016000F091
:10108000BDF90546052604E000F0B8F9401B0A2822
:1010900011D820684068C007F6D02068016821F0A8
:1010A0000201016000F0AAF905460BE000F0A6F984
:1010B000401B0A2806D9606A40F40030606284F858
:1010C0002060D2E7206840688007EFD4207E0128A6
:1010D000206801683DD021F080010160607E012818
:1010E0002068016838D021F040010160A07E01280D
:1010F0002068016833D021F020010160E07E0128E2
:10110000206801682ED041F010010160207F012885
:101110002068016829D021F008010160607F012862
:101120002068016824D021F004010160D4E90201A3
:101130000843D4E90412114308436168491E084377
:101140002168C86100206062012084F8200000202E
:1011500070BD41F08001C0E741F04001C5E741F0BA
:101160002001CAE721F01001CFE741F00801D4E7E0
:1011700041F00401D9E7000010B586B000210091CC
:1011800001910291039100681749884229D11748BB
:10119000C16941F00071C161C16901F00071049140
:1011A000816941F0200181618069114C00F02000CB
:1011B0000490012000906946204600F01DF80221AD
:1011C00003200091019103906946204600F014F835
:1011D0000848416821F4C04141F0E06141F4C04158
:1011E000416006B010BD00000064004000100240E5
:1011F00000140140000001402DE9F84FDFF8C891CC
:101200000024A9F1040B23460F2709F1040AABF1CE
:10121000040ED1E00125A54006EA0502AA4276D1D6
:10122000DFF8A8C14E68A6EB0C0866452BD00DDC94
:10123000032E34D005DC36B3012E19D0022E2FD167
:101240001BE0112E16D0122E2AD119E0B8F5881FF6
:1012500019D006DCB8F5803F15D0B8F5801F1FD136
:1012600011E0B8F5001F0ED0B8F5041F18D10AE040
:10127000CB6815E0CB681B1D12E0CB6808330FE08C
:10128000CB680C330CE08B682BB1012B4FF00803BB
:1012900003D0456104E0042302E0056100E000237F
:1012A000FF2A01D8064601E000F104064FEA840552
:1012B00001D9A5F12005D6F8008007FA05FC28EA37
:1012C0000C0803FA05F548EA0508C6F800804D68E1
:1012D000ED0070D53E4DAE6946F00106AE61AD69D8
:1012E00024F0030605F0010500953A4D06EB050CC8
:1012F000DCF80850A607360F07FA06F825EA0805B5
:10130000DFF8D480404503D14FF0000825E052E0DB
:10131000DFF8C880404502D14FF001081DE0DFF83A
:10132000C080404502D14FF0020816E0DFF8B480DB
:10133000404502D14FF003080FE0DFF8AC80404594
:1013400002D14FF0040808E0DFF8A080404502D148
:101350004FF0050801E04FF0060808FA06F848EAE1
:101360000508CCF808804D68D9F80060ED024D46BC
:1013700001D5164300E096432E604D68DAF8006010
:10138000AD02554601D5164300E096432E604D68E8
:10139000DBF80060AD035D4601D5164300E09643DF
:1013A0002E604D68DEF80060ED03754601D51643EA
:1013B00000E096432E60641C0A681646E2407FF403
:1013C00029AFBDE8F88F00000804014000001110AB
:1013D000001002400000014000080140000C0140E4
:1013E000001001400014014000180140001C0140A1
:1013F0000AB1016170470904FBE7000001488068F9
:101400007047000000000020024881680278114403
:101410008160704700000020074810B5016841F066
:1014200010010160032000F075F80F2000F006F8AD
:1014300000F024F8002010BD0020024070B50D4DD2
:1014400004464FF47A712878B1FBF0F00A49096834
:10145000B1FBF0F000F08AFC48B9102C07D2002252
:101460002146501E00F036F800206C6070BD01204F
:1014700070BD0000000000200C0000200C4808B5E2
:10148000816941F001018161816901F001010091EF
:10149000C16941F08051C161C06900F08050009085
:1014A0000448416821F0E06141F00071416008BDED
:1014B0000010024000000140002809DB00F01F027C
:1014C000012191404009800000F1E020C0F80011A6
:1014D00070470000F0B40E4B1B680C46C3F30223A8
:1014E000C3F10705042D00D90425191D072901D2D0
:1014F000002300E0DB1E012606FA05F1491E21400B
:1015000099409E40761E16403143F0BC02F050B820
:101510000CED00E0064900F0070208684FF6FF03F3
:10152000184040EA0220034A104308607047000058
:101530000CED00E00000FA052DE9F04186B0040052
:1015400004D094F8A902002520B108E0012006B0DB
:10155000BDE8F08184F8A852204600F05BF8032033
:1015600084F8A902206801F0E0FF04F110011422C0
:1015700088466846FEF75EFE94E80F0001F0C8FF5B
:101580000227D0BB0021206801F0D6FF00200126F1
:101590000EE000BF00EB800104EBC10181F829607F
:1015A00001F8280F401CCD700D614D61C0B28D61F6
:1015B00061688142EED8002012E000BF00EB80019C
:1015C00004EBC10181F8695181F8680181F86B5120
:1015D000C1F87851C1F87C51401CC0B2C1F88051AB
:1015E00061688142EAD8142241466846FEF722FE2D
:1015F00094E80F0001F090FF10B184F8A972A5E7FC
:1016000084F8245084F8A962206801F083FF002048
:101610009DE7000008B500680649884208D10648E1
:10162000C16941F40001C161C06900F4000000908B
:1016300008BD0000005C0040001002402DE9F843A6
:1016400005460078354CC00754D0E0690026C0003C
:1016500008D4E06940F08050E061E069012600F0C4
:10166000805000902E480168C90512D40168804658
:1016700041F480710160FFF7C1FE074605E000BF3D
:10168000FFF7BCFEC01B642823D8D8F80000C005B3
:10169000F6D5206A10F4407021D0A98801F4407179
:1016A00081421CD0206A1F49012220F440700A6048
:1016B00000220A602062C00711D0FFF79FFE074694
:1016C00041F2883808E000BFFFF798FEC11B414592
:1016D00002D90320BDE8F883206A8007F4D5206A88
:1016E000696820F44070084320621EB1E06920F070
:1016F0008050E0612878800705D56068A96820F4EB
:101700004040084360602878C00605D56068696974
:1017100020F48000084360600020DBE700100240F6
:1017200000700040400442422DE9F0470F4605009A
:1017300061D0434E306800F00700B84209D23068EB
:1017400020F0070038433060306800F00700B842EE
:1017500051D128683B4C810712D5400703D56068FA
:1017600040F4E06060602878000703D5606840F4CA
:10177000605060606068A96820F0F0000843606015
:101780002878C00728D06868012810D0216802286E
:1017900010D0890700292EDA616821F00301014386
:1017A0006160FFF72BFE804641F288390DE0216829
:1017B0008903EFE78901EDE7FFF720FEA0EB0801C1
:1017C000494502D90320BDE8F0876068696800F0E8
:1017D0000C00B0EB810FEFD1306800F00700B84289
:1017E0000BD9306820F0070038433060306800F0D3
:1017F0000700B84201D00120E5E72878400705D569
:101800006068E96820F4E0600843606028780007B9
:1018100006D56068296920F4605040EAC100606024
:1018200000F038F86168084AC1F30311515CC84000
:101830000649086006480068FFF700FE0020C2E77E
:101840000020024000100240A03D00080C000020D3
:10185000040000200448054900684968044AC1F3AF
:101860000221515CC84070470C000020001002406B
:10187000B03D00080448054900684968044AC1F3BE
:10188000C221515CC84070470C000020001002408B
:10189000B03D00080E4A51680E4801F00C03042BBD
:1018A00011D0082B0FD10C48C1F38343C903C05C8E
:1018B0000AD55168084AC1F34041921E515C054A5D
:1018C0005043B0FBF1F070470449484370470000B3
:1018D0000010024000127A00903D000800093D000F
:1018E0002DE9F84F040070D02078C04DC00749D0D2
:1018F0006868C0F38100012807D06868C0F38100E0
:10190000022809D16868C00306D52868800339D544
:1019100060680028E7D035E06068B0F5803F0BD004
:1019200010B1B0F5A02F11D0286820F480302860C5
:10193000286820F4802002E0286840F48030286085
:10194000606890B1FFF75AFD06460AE0286840F447
:1019500080202860F0E700BFFFF750FD801B64285F
:1019600073D828688003F7D50CE0FFF747FD0646DB
:1019700005E000BFFFF742FD801B6428F0D828680F
:101980008003F7D420789A4E80074FF001094FF07A
:10199000000839D5686810F00C0F07D06868C0F3EC
:1019A0008100022809D16868C00306D4286880072E
:1019B00014D52069012808D110E02069B0B1C6F81B
:1019C0000090FFF71BFD074605E00AE1FFF716FD53
:1019D000C01B0228C4D828688007F7D52868616929
:1019E00020F0F80040EAC10028600DE0C6F8008051
:1019F000FFF704FD074604E0FFF700FDC01B0228C7
:101A000023D828688007F7D4207800072CD5794898
:101A1000A169D9B1C0F80090FFF7F0FC074604E0D7
:101A2000FFF7ECFCC01B02280FD8686A8007F7D5C7
:101A300071484FF4FA510068B0FBF1F0009000BF1C
:101A40000098411E0091FAD20EE080E0C0F80080BC
:101A5000FFF7D4FC074604E0FFF7D0FCC01B0228C8
:101A600075D8686A8007F7D42078400760D5E869A0
:101A70000027C00008D4E86940F08050E861E869B8
:101A8000012700F0805000905C480168C90513D41C
:101A90000168834641F480710160FFF7AFFC824624
:101AA00006E000BFFFF7AAFCA0EB0A0064284ED8AE
:101AB000DBF80000C005F5D5E06801280AD008B1C0
:101AC000052813D0286A20F001002862286A20F037
:101AD000040002E0286A40F001002862E06841F258
:101AE000883B98B1FFF78AFC82460BE0286A40F0F9
:101AF00004002862EEE700BFFFF780FCA0EB0A01BC
:101B000059455AD8286A8007F6D50CE0FFF776FCCD
:101B1000824605E0FFF772FCA0EB0A0159454CD85C
:101B2000286A8007F6D41FB1E86920F08050E86188
:101B3000E06988B36968C1F38101022944D00228B1
:101B4000C6F8608004D0FFF759FC044638E034E062
:101B5000FFF754FC074604E0FFF750FCC01B0228C7
:101B60002BD828688001F7D4206AB0F5803F05D1D2
:101B70006868A16820F4003008436860D4E908016F
:101B80000843696821F4741108436860C6F86090DE
:101B9000FFF734FC044606E025E000BFFFF72EFC0B
:101BA000001B022809D828688001F7D51BE000BF78
:101BB000FFF724FC001B022802D90320BDE8F88FA0
:101BC00028688001F4D40EE00128F7D06868226A02
:101BD00000F48031914204D1616A00F470108842AF
:101BE00001D00120EAE70020E8E7000000100240F1
:101BF00000004242800442420C000020007000407D
:101C000070B5040009D0606A002540B125616561A6
:101C1000A56294F8510040B10CE0012070BD6068ED
:101C2000B0F5827FF4D0E561F2E784F850502046A9
:101C300000F040F8022084F851002068016821F08B
:101C400040010160A088218900F4827001F4044100
:101C50000843A18901F400610843217C01F00201DD
:101C60000843217D01F001010843218B01F400713B
:101C70000843217F01F03801084394F8201001F057
:101C800080010843218D01F4005108432168086058
:101C9000A069042101EA1040216848602068C169F8
:101CA00021F40061C1616565012084F851000020C4
:101CB00070BD000030B585B00024009401940294FA
:101CC0000394254D0368254802210322AB421AD113
:101CD000836943F480538361836903F480530493DD
:101CE000836943F00403836180691D4D00F00400A3
:101CF0000490B020CDE90001039269462846FFF721
:101D00007BFA40201EE0174DAB4222D1C36943F459
:101D10008043C361C36903F480430493836943F040
:101D2000080383618069104D00F0080004904FF4AF
:101D30002040CDE90001039269462846FFF75CFA8E
:101D40004FF48040CDE90004694628460294FFF72D
:101D500053FA05B030BD00000030014000100240D1
:101D60000008014000380040000C014010B5401E42
:101D7000B0F1807F01D3012010BD4FF0E0246061FD
:101D80000F21601701F014FC0020A06107202061E2
:101D9000002010BD7047704770B590F83C20012AB4
:101DA0002CD0012480F83C40022280F83D200368BA
:101DB0005A689D6822F070060A6832435A60104BD8
:101DC00002689A420ED00F4B9A420BD0B2F1804F6C
:101DD00008D00D4B9A4205D00C4B9A4202D00C4BC6
:101DE0009A4204D1496825F080031943916080F834
:101DF0003D40002180F83C10084670BD022070BDB7
:101E0000002C014000340140000400400008004064
:101E1000000C004010B5040003D094F83D0010B150
:101E200007E0012010BD002084F83C00204600F0AF
:101E30001FF8022084F83D00211D206801F0C8F938
:101E4000012084F8460084F83E0084F83F0084F8BE
:101E5000400084F8410084F8420084F8430084F88C
:101E6000440084F8450084F83D00002010BD0000C7
:101E700008B500680B49884212D10B48C16941F08E
:101E80001001C161C069002200F0100000901146ED
:101E90003620FFF71FFBBDE808403620FFF70CBBDC
:101EA00008BD000000100040001002402DE9F04184
:101EB0000D46040003D094F83D0018B108E001205D
:101EC000BDE8F081002084F83C00204600F040F896
:101ED000022084F83D002068816844F207029143A3
:101EE0008160211D206801F073F922689068916972
:101EF000166A2B68AF69034340F20330814341EA1D
:101F00000721A868EF6908434FF6FC418843E96858
:101F100040EA0720014328692F6A000140EA0730A0
:101F2000084369686D6926F0220646EA05152943CB
:101F300093602268906154F8460B0162012004F816
:101F40001F09E0752076E0762077A0750020B7E7BE
:101F500070B586B00025009501950295039500683F
:101F6000494A4A494A4C90421ED1886940F400606F
:101F70008861886900F400600490886940F040003E
:101F800088618869694600F0400004904FF4206041
:101F900000904048FFF730F9606820F0C00040F042
:101FA000E06040F0C00052E03B4EB0F1804F20D0E6
:101FB0003A4A90424ED1C86940F00200C861C869EF
:101FC00000F002000490886940F008008861886988
:101FD000694600F008000490302000903046FFF77A
:101FE0000BF9606820F4406040F0E06040F400606D
:101FF0002DE0C86940F00100C861C86900F0010027
:102000000490886940F004008861886900F0040049
:102010000490886940F0080088618869694600F08A
:10202000080004904FF4004000901D48FFF7E4F8CA
:102030000820CDE90005694630460295FFF7DCF837
:10204000606820F4407040F0E06040F480706060B0
:1020500006B070BD134A9042FAD1886940F400502E
:102060008861886900F400500490886940F010008D
:1020700088618869694600F010000490C0200090D3
:102080000948FFF7B9F8E3E7002C014000100240CF
:102090000000014000180140000C01400004004015
:1020A000000801400034014000100140704770B545
:1020B0000446006801694FF00005C943890715D43B
:1020C000C168C943890711D4E91E01610120207745
:1020D000206880698007204602D0FFF7E7FF04E010
:1020E00000F0DEF8204600F08FF9257720680169BE
:1020F000C943490717D4C168C943490713D46FF0CE
:1021000004010161022020772068806910F4407F7B
:10211000204602D0FFF7CAFF04E000F0C1F82046D5
:1021200000F072F9257720680169C943090716D4C0
:10213000C168C943090712D46FF008010161042086
:1021400020772068C0698007204602D0FFF7AEFFE5
:1021500004E000F0A5F8204600F056F92577206845
:102160000169C943C90617D4C168C943C90613D454
:102170006FF010010161082020772068C06910F419
:10218000407F204602D0FFF791FF04E000F088F87E
:10219000204600F039F9257720680169C943C9074D
:1021A00008D1C168C943C90704D1891E016120460D
:1021B00000F02CF920680169C943090609D4C168F7
:1021C000C943090605D46FF0800101612046FFF77D
:1021D000E1FD20680169C943490609D4C168C943C2
:1021E000490605D46FF040010161204600F022F954
:1021F00020680169C94389060BD4C168C9438906AF
:1022000007D46FF0200101612046BDE87040FFF760
:10221000C2BD70BD00B585B0002100910191029151
:102220000391194B0268194802219A4218D1826918
:1022300042F0200282618069039100F02000049046
:10224000C802CDE9000169461148FEF7D5FF1148E3
:10225000416841F0E06141F48051416005B000BD4A
:102260000D4B9A42FAD1826942F004028261806980
:10227000039100F0040004900F20CDE900016946AD
:102280000648FEF7B9FFE9E70008004000100240E9
:102290000014014000000140000C00400008014013
:1022A000704770B5044690F83C0000260D460128A2
:1022B0000FD0012084F83C006AB1042A1DD0082AFE
:1022C0002FD00C2A3FD00126002084F83C00304655
:1022D00070BD022070BD206800F0C0FF20688169D9
:1022E00041F0080181612068816921F00401816168
:1022F000206881692A69114311E0206800F0DEFF3F
:102300002068816941F4006181612068816921F45C
:1023100080618161206881692A6941EA02218161C5
:10232000D2E7206801F000F82068C16941F0080197
:10233000C1612068C16921F00401C1612068C169DF
:102340002A69114311E0206801F022F82068C16970
:1023500041F40061C1612068C16921F48061C161FB
:102360002068C1692A6941EA0221C161ACE710B560
:10237000040003D094F83D0010B107E0012010BD27
:10238000002084F83C00204600F01EF8022084F86B
:102390003D00211D206800F01BFF012084F846004D
:1023A00084F83E0084F83F0084F8400084F841003F
:1023B00084F8420084F8430084F8440084F845001F
:1023C00084F83D00002010BD08B50C4A01680C4897
:1023D000914207D1C16941F00401C161C06900F0B7
:1023E000040009E0074A914207D1C16941F00801A0
:1023F000C161C06900F00800009008BD00080040FD
:1024000000100240000C00407047000010B5084961
:1024100000680968884209D1FEF710FC00F0B6FD9B
:10242000FEF770FCBDE81040FEF754BC10BD000084
:10243000BC020020704770B5040004D094F841003D
:10244000002510B106E0012070BD84F84050204600
:1024500000F024F8242084F841002068C16821F4A9
:102460000051C160204600F0BBFF2068016921F4E3
:10247000904101612068416921F02A014161206891
:10248000C16841F40051C1606564202084F84100B6
:1024900084F842006563002070BD0000F0B585B08F
:1024A0000024009401940294039403686848674EE2
:1024B000051502210322674FB3421DD1C36943F4BE
:1024C0000023C361C36903F400230493836943F0C9
:1024D000100383618069CDE9005100F01000CDE95F
:1024E000032069463846FEF787FE6800CDE9000400
:1024F00069463846029428E0DFF85CC1574E6345D0
:1025000027D1C36943F48013C361C36903F4801303
:102510000493836943F010038361836903F010031C
:102520000493836943F0200383618069039200F080
:1025300020000490B014CDE9000169463846FEF74A
:102540005BFE0420CDE9000423E0FEF755FE05B054
:10255000F0BDDFF80CC14FF4007763451DD18369EE
:1025600043F480438361836903F480430493836964
:1025700043F0040383618069CDE9007100F0040039
:10258000CDE90320374E69463046FEF735FECDE9EA
:102590000054694630460294D7E7DFF8CCC0334D8B
:1025A000634525D1C36943F40033C361C36903F4B0
:1025B00000330493836943F02003836180690392AD
:1025C00000F0200004902020CDE90001694630464B
:1025D000FEF712FE4020CDE9000469463046029421
:1025E000FEF70AFE686840F0E06040F008002AE06C
:1025F000DFF87CC06345AAD1C36943F48023C3617B
:10260000C36903F480230493836943F02003836147
:102610008069039200F0200004904FF48070CDE9AF
:10262000000169463046FEF7E7FDCDE900746946D2
:1026300030460294FEF7E0FD686820F0300040F07C
:10264000E06040F03000686081E70000004C00402E
:1026500000100240001001400050004000140140F2
:1026600000380140000801400044004000000140E3
:10267000004800402DE9F843044690F841001F4609
:1026800016460D46202802D00220BDE8F8837DB111
:1026900076B100206064212084F84100FEF7AEFE90
:1026A000A6848046E684A068B0F5805F02D003E08F
:1026B0000120EAE7206910B12E4600250EE0002631
:1026C0000CE08021204600F0E7FEA0B9AEB116F87C
:1026D000010B21684860E08C401EE084E08C43469A
:1026E0004FF0000200970028EBD14FF04001204648
:1026F00000F0D2FE30B10320C7E735F8020BC0F37B
:102700000800E6E7202084F841000020BDE7FEE74E
:102710003EB5002411480094019402940E4984604F
:10272000016004730475012505614FF46021446064
:10273000C161FEF7C7FB08B1FEF744FB0820CDE9F5
:102740000005694602940548FEF73EFB002801D0CB
:10275000FEF738FB3EBD0000002401404C00002085
:102760000D4810B50B4901601021416000218160C6
:10277000C16001614161017641768176C176017760
:102780004177FEF76BFC002803D0BDE81040FEF750
:1027900019BB10BD006400407C0000202DE9F04F03
:1027A00085B0002445480094019402940394816903
:1027B00041F040018161816901F04001049181692A
:1027C00041F080018161816901F08001049181699A
:1027D00041F010018161816901F01001049181696A
:1027E00041F004018161816901F004010491816972
:1027F00041F008018161816901F00801049181695A
:1028000041F020018161816901F020010491816919
:1028100041F4807181618069DFF8A48000F48070E8
:10282000049000227C214046FEF7E2FDDFF8949000
:1028300000223F214846FEF7DBFDDFF88CA04FF475
:10284000FE47002239465046FEF7D2FDDFF87CB045
:10285000002218215846FEF7CBFD7C2001250226D8
:10286000CDE90005CDE9024669464046FEF7C4FCC5
:102870003F20CDE90005CDE9024669464846FEF70E
:10288000BBFC4FF4F860CDE9000469464846029469
:10289000FEF7B2FC00970396CDE901546946504615
:1028A000FEF7AAFC1820CDE90005CDE902466946ED
:1028B0005846FEF7A1FC05B0BDE8F08F00100240BD
:1028C00000180140001C014000200140001401409C
:1028D000104810B50E4901604FF48271416000212B
:1028E0008160C1604FF480220161C0E90512282295
:1028F000C0E90721416281620A21C162FFF780F9C4
:10290000002803D0BDE81040FEF75CBA10BD0000FF
:1029100000300140A40000200F4810B50D490160AF
:102920004FF48271416000218160C1604FF40072F8
:102930000161C0E90512C1610162416281620A213F
:10294000C162FFF75DF9002803D0BDE81040FEF733
:1029500039BA10BD00380040FC00002010B58CB022
:1029600024216846FDF798FC002416480994144970
:102970000A94C0E9001444F61F61C0E902410461F1
:10298000446184610320CDE900040120CDE9020403
:102990000494CDE90540079469460A480894FFF776
:1029A00085FA08B1FEF70EFA099409A905480A94B8
:1029B000FFF7F2F9002801D0FEF704FA0CB010BDC1
:1029C000002C01405401002010B58CB02421684631
:1029D000FDF762FC0024154809944FF080410A94E9
:1029E000C0E9001444F61F61C0E90241046184613A
:1029F0000320CDE900040120CDE902040494CDE9CF
:102A000005400794694609480894FFF74FFA08B152
:102A1000FEF7D8F9099409A904480A94FFF7BCF90C
:102A2000002801D0FEF7CEF90CB010BD9C010020AB
:102A300010B58CB024216846FDF72EFC0024164802
:102A4000099414490A94C0E9001444F61F61C0E9CE
:102A50000241046184610320CDE900040120CDE935
:102A600002040494CDE90540079469460A48089495
:102A7000FFF71CFA08B1FEF7A5F9099409A9064861
:102A80000A94FFF789F9002801D0FEF79BF90CB0F2
:102A900010BD000000040040E401002010B58AB021
:102AA000002407941C2168460894FDF7F5FB16489E
:102AB0001449C0E900144FF6FF71C0E902410461F6
:102AC0008461FFF754FC08B1FEF77CF9079407A96D
:102AD0000D480894FFF760F908B1FEF773F960201C
:102AE000CDE9000402940022694607480494FFF7E8
:102AF000D8FB08B1FEF766F90348FFF78BFB0AB075
:102B000010BD0000000800402C02002010B58AB063
:102B1000002407941C2168460894FDF7BDFB224859
:102B2000204901604721C0E9011442F20F71C0E958
:102B300003148461FFF71BFC08B1FEF743F9079407
:102B400007A919480894FFF727F908B1FEF73AF9E1
:102B50006020CDE9000402940022694612480494E2
:102B6000FFF79FFB08B1FEF72DF9042269460E48D6
:102B7000FFF797FB08B1FEF725F9082269460A48D6
:102B8000FFF78FFB08B1FEF71DF90C2269460648D6
:102B9000FFF787FB08B1FEF715F90348FFF73AFB8B
:102BA0000AB010BD000C0040740200201CB50024C7
:102BB0000E4800940C49019401604721C0E90114BA
:102BC00042F20F718461C160FFF724F908B1FEF78A
:102BD000F9F80094694605480194FFF7DDF80028EC
:102BE00001D0FEF7EFF81CBD00100040BC02002031
:102BF00010B58CB024216846FDF74EFB0024164822
:102C0000099414490A94C0E9001444F61F61C0E90C
:102C100002410461446184610320CDE90004012084
:102C2000CDE902040494CDE90540079469460A48B9
:102C30000894FFF73BF908B1FEF7C4F8099409A915
:102C400005480A94FFF7A8F8002801D0FEF7BAF863
:102C50000CB010BD00340140040300200C4810B536
:102C60000A4901604FF4E1314160002181600C228A
:102C7000C160C0E904128161C161FFF7DCFB00287B
:102C800003D0BDE81040FEF79DB810BD004C0040D9
:102C90004C0300200C4810B50A4901604FF4E131A3
:102CA0004160002181600C22C160C0E90412816191
:102CB000C161FFF7C0FB002803D0BDE81040FEF75C
:102CC00081B810BD00500040940300200C4810B59E
:102CD0000A4901604FF4E1314160002181600C221A
:102CE000C160C0E904128161C161FFF7A4FB002843
:102CF00003D0BDE81040FEF765B810BD00380140B4
:102D0000DC0300200C4810B50A4901604FF4E131A2
:102D10004160002181600C22C160C0E90412816120
:102D2000C161FFF788FB002803D0BDE81040FEF723
:102D300049B810BD00440040240400200C4810B5E0
:102D40000A4901604FF4E1314160002181600C22A9
:102D5000C160C0E904128161C161FFF76CFB00280A
:102D600003D0BDE81040FEF72DB810BD004800406C
:102D70006C0400200B4810B509490160082141602E
:102D80000221816000218161C1610162FEF7D4FBF3
:102D9000002803D0BDE81040FEF714B810BD0000B5
:102DA000005C0040B4040020FEE7000070B5184845
:102DB000164C8078E26843B204F16800616900F063
:102DC00040F9D4F88800134D134CB0F5000F0ADB1E
:102DD00000F08EFD29684863002210212046FEF78E
:102DE00007FB01220BE080F0004000F081FD296824
:102DF0004863012210212046FEF7FAFA00222046FD
:102E0000BDE870402021FEF7F3BA0000F40700206F
:102E10001000002074020020001001402DE9F04154
:102E20001948184C807854F89C2F43B21548A16873
:102E3000F83000F006F9E06F154C144DA7154FF46B
:102E40000076B0F5000F0ADB00F052FD29688863B8
:102E5000012231462046FEF7CBFA00220BE080F03B
:102E6000004000F045FD2968886300223146204675
:102E7000FEF7BEFA012239462046BDE8F041FEF7D2
:102E8000B7BA0000F40700201000002074020020F0
:102E9000001001402DE9F0411A48194C8078D4F80F
:102EA0002C2143B204F5C470D4F8341104F596749F
:102EB00000F0C7F8E06F154C134DE7144FF480662F
:102EC000B0F5000F0ADB00F013FD2968C86300228B
:102ED00031462046FEF78CFA01220BE080F00040DC
:102EE00000F006FD2968C863012231462046FEF73E
:102EF0007FFA002239462046BDE8F041FEF778BA55
:102F0000F40700201000002074020020002001407F
:102F10002DE9F0411A48194C8078D4F8BC2143B20D
:102F200004F50670D4F8C41104F5DE7400F089F8D5
:102F30004FF40056E06F134D134C7700B0F5000FBF
:102F40000ADB00F0D5FC29680864012231462046DE
:102F5000FEF74EFA00220BE080F0004000F0C8FCC3
:102F600029680864002231462046FEF741FA012212
:102F700039462046BDE8F041FEF73ABAF407002092
:102F80001000002074020020002001402DE9FF47BE
:102F900025480268506AADF8000024480068416A7C
:102FA000ADF8021022490B68596AADF804102149A6
:102FB00009684C6AADF80640D26AADF80820C06ACC
:102FC000ADF80A00D86AADF80C00C86ADFF868806E
:102FD000DFF868A0ADF80E000024E94602AE00BF9D
:102FE00036F9140039F8141000EBD07204EBC40366
:102FF000A1EB620108EB03150AB2B5F908104143D1
:1030000001EBD17002EB600738466F6000F090FC76
:10301000514600F08FFB641C64B22F602861042CC1
:10302000DEDBBDE8FF870000540100209C0100208A
:10303000E401002004030020F4070020E5F29F3E95
:10304000FEE770B50E460446EBB3E5681146304620
:10305000256100F0B7FDE0600646216800F0B4FC91
:1030600020622946304600F0ADFDA16800F0ACFCBE
:10307000E0613046616800F0A7FC616900F0E6FAA3
:1030800001466061A06980F0004000F069FD03D84E
:10309000A06980F0004107E0D4E9050100F060FD7F
:1030A00001D8A16900E061696161206A00F0CEFA8F
:1030B000E16900F0CBFA01462062606A80F00040CE
:1030C00000F04EFD00E00EE003D8606A80F00040A2
:1030D00007E0D4E9080100F043FD01D8606A00E090
:1030E000206A206270BD0020FBE770477047000037
:1030F00070B505460F4A29690020914202DC0E4A4C
:10310000914201D9002070BD5FF0130405EB8402E9
:103110005169916100F09AFA641E14F0FF04F5D130
:103120002969A96100F092FA044900F003FBE86004
:10313000E8E7000000008C4300008CC30000A041C1
:10314000FEF762B930B595B028216846FDF7A4F8BE
:1031500014210AA8FDF7A0F818210FA8FDF79CF884
:1031600001210804CDE900100024029402250491F5
:10317000CDE907504FF4E01009906846FEF7B0FB28
:1031800008B172B6FEE70F20CDE90A054FF4806062
:10319000CDE90C4002210AA80E94FEF7C5FA08B149
:1031A00072B6FEE712200F904FF400401190149475
:1031B0000FA8FEF743FA002801D072B6FEE715B05B
:1031C00030BD70470148FEF772BF0000BC0200200E
:1031D000F0B502681C4B1D4D1D4E1E4F1E4C4FF08E
:1031E000804C984209D0A04207D0604505D0A84243
:1031F00003D0B04201D0B84204D122F0700E4A6828
:1032000042EA0E02984209D0A04207D0604505D09C
:10321000A84203D0B04201D0B84203D122F4407595
:10322000CA682A434D6922F080022A4302608A68F4
:10323000C2620A688262984201D0A04201D1096943
:10324000016301214161F0BD002C014000040040F8
:1032500000080040000C004000340140F0B5036A53
:10326000026A22F00102026242688469124E24F06E
:1032700073050C682C4323F002058B682B430D4D1E
:10328000A84201D0B04205D123F00807CB683B43E8
:1032900023F00403A84201D0B04205D14D6922F4C5
:1032A000407215438A692A434260846149684163D8
:1032B0000362F0BD002C014000340140F0B5026A09
:1032C000036A23F010030362436884690D6824F4E1
:1032D000E64444EA05248D6822F0200242EA051201
:1032E0000F4D104EA84201D0B04206D1CF6822F057
:1032F000800242EA071222F04002A84201D0B04206
:1033000007D14D6923F4406343EA85038D6943EA9D
:10331000850343608461496881630262F0BD0000F7
:10332000002C014000340140F0B5026A036A23F426
:10333000807303624368C46922F4007224F0730549
:103340000C68124E2C438D6842EA05220E4DA842AD
:1033500001D0B04206D1CF6822F4006242EA0722CF
:1033600022F48062A84201D0B04207D14D6923F413
:10337000405343EA05138D6943EA05134360C46172
:103380004968C1630262F0BD002C01400034014075
:1033900030B5046A026A22F4805202624268C3694C
:1033A0000D6823F4E64343EA05238D6824F40054B2
:1033B00044EA0534084DA84202D0084DA84204D181
:1033C0004D6922F4804242EA85124260C361496835
:1033D0000164046230BD0000002C01400034014053
:1033E00070B5044600680169E26821F44051114358
:1033F00001612169A0680843616908432168CA68BE
:1034000041F20C639A430243CA6020684169A26991
:1034100021F44071114341611E492068884202D164
:10342000FEF728FA01E0FEF715FA00EBC00101EB08
:103430000012606864218000B2FBF0F3B3FBF1F38B
:103440006FF018067343B2FBF0F5B2FBF0F605EB34
:103450008305322303EB0515B5FBF1F5B6FBF1F659
:1034600005F0F00505EB0615B2FBF0F6B2FBF0F047
:10347000B0FBF1F06FF01802504306EB800003EB55
:103480000010B0FBF1F0216800F00F0028448860C4
:1034900070BD0000003801402DE9F0419846174604
:1034A0000E460446069D27E0681C25D02DB1FDF789
:1034B000A5FFA0EB0800A8421ED920680C3050E8F8
:1034C000001F21F4D07140E80012002AF5D12068D5
:1034D000143050E8001F21F0010140E80012002ADA
:1034E000F5D1202084F8410084F84200002084F8BF
:1034F00040000320BDE8F0812068006836EA000043
:1035000004D00020B842CFD00020F3E70120F9E733
:103510000020704700207047012120F8401F002143
:103520000180818001820846704730F8401F21F4F5
:103530003F4101800020704700207047FEE70000F7
:103540002DE9F0411848D0E90576C469A7EB0608D3
:1035500008EB040000F0ECF9144D3E446861301BA8
:1035600000F0E6F9C5F8A400301900F0E1F9C5F85B
:103570003401A8EB040000F0DBF90024C5F8C40115
:1035800004EBC40005EB0010FFF7B2FD641C64B24D
:10359000042CF5DBFFF70AFCFFF740FCFFF77AFC91
:1035A000BDE8F041FFF7B4BC10000020F407002094
:1035B0000907090E002804DB00F1E02080F8001460
:1035C000704700F00F0000F1E02080F8141D7047F4
:1035D00013B54FF4FA73012269460248FFF74AF81F
:1035E00000981CBDDC030020FDF716FFFFF7AAFDC5
:1035F000FFF7D4F8FFF7B2F9FFF7E6F9FFF718FA8B
:10360000FFF784FAFFF7D2FAFFF7F2FAFFF780F834
:10361000FFF7A6F8FFF75CF9FFF77EF9FFF71EFB4F
:10362000FFF738FBFFF752FBFFF76CFBFFF786FB5A
:10363000FFF7A0FBFFF732FA034C012204212046DA
:10364000FDF7D6FEF9E700000018014090EA010FEF
:1036500048BF81F0004100F1BC82421A3CBF801A91
:1036600089184FEAD0524FF07F4C1CEA410FA2EB71
:10367000D15318BF9CEA026F00F03B804FF0004C22
:103680004CEA00204CEA012121FA03FC10EB0C0C5F
:103690001ED202F1FF325FEA1C2040EBC25038BF5D
:1036A00070471CF07F0F4FEA400C18BFBCF17F4FF2
:1036B00038BF7047C3F12003994008BF20F00100D4
:1036C000BCF17F4F38BF7047A0F1C04000F043BA53
:1036D0004FEA3C00000A40EBC25028BF1CF0FF0F2D
:1036E0004FEA400CE6D018BFBCF17F4F38BF70479F
:1036F000EAE79CEA026F05D010EA5C0F08BF00F011
:103700000040704710B500F0E0F900BF64FBBE3E1A
:10371000014800F0CCBA00BF0000C07F401058BF85
:10372000C0F14040491058BFC1F140418142EFF320
:10373000008070474FF47F0C1CEAD0121EBF1CEAB9
:10374000D11392EA0C0F93EA0C0F00F0858090EAF7
:10375000010F48BF42F4807240F4000C41F40000B5
:103760002CF07F4120F07F4000B58142A2EB0302A4
:103770000FF2081CACEB504EC0F100009EF800E0C8
:103780004FEA4E0E00FB0EFC38BF49004FEA2C1CDE
:1037900002F5FA020CFB0EF34FEACE1E4FEA112C93
:1037A0004FEAC1210EEB635E42EB22420EFB0CFCA2
:1037B0004FEA1C5300FB03114FEA112C4FEA013171
:1037C0000EFB0CFC4FEADC4C00FB0C11C14228BF85
:1037D00009184CEB03335DF804EB10EB410143EBAC
:1037E000C250B2F57C0F38BF704729D512F0F00FE8
:1037F0001CBF00F1C04000F0004070470081828390
:103800008485868788898B8C8D8E8F9192939596EF
:1038100097999A9C9D9FA0A2A3A5A7A8AAACAEB079
:10382000B2B3B5B7B9BCBEC0C2C5C7C9CCCED1D47E
:10383000D7D9DCDFE2E6E9ECF0F3F7FAFE000000AE
:103840004FEA400C0CF1807CBCF17E4F28BF7047E2
:10385000B0F1C04000F07FB990EA010F0CEAD1133B
:1038600048BF42F48072624538BF634507D213F403
:103870007F0F16D080EA010000F00040704710B5BD
:1038800000F023F9097EFC3E00F005B880EA010053
:1038900000F00040704780EA010000F0004000F0B6
:1038A0005AB912F47F0F04BF0248704780EA010042
:1038B00000F051B90000C07F41000B0ED3F19E0211
:1038C00008D950F400034FEA032323FA02F048BF5B
:1038D0004042704710B500F0F8F800BF49922480CC
:1038E000002070476FF0004282EA2000704700001D
:1038F000C10DD1F19E0206DB4FEA002343F00043E5
:1039000023FA02F07047004207D54FEA4001B1F1B7
:10391000FE4F02D24FF00000704710B500F0D5F80E
:1039200049922480002070476FEA20007047000011
:1039300010F0004148BF4042B0FA80F310FA03F2A1
:10394000C3F19D030BD051EAC35101EB1220530682
:1039500038BF704700F1010008BF20F00100704738
:1039600050EA010C00F113801CF5000F58BFBCF5A4
:10397000000F01D48842704707D710F5000F58BFD9
:1039800011F5000F15D488427047894270471CF525
:10399000000F04D5BCF5000FF7D5814270474FF0FA
:1039A000807C1CEB400F38BF1CEB410F01D28142E1
:1039B000704710B500F089F8922449004FF000508C
:1039C0004FF08051FFF7AABE4FF47F0C1CEAD012D3
:1039D0001EBF1CEAD11392EA0C0F93EA0C0F00F001
:1039E000478090EA010F48BF42F480724FF0004CCC
:1039F0004CEA00204CEA012102EB0302A0FB011378
:103A0000A2F50002002918BF43F001035B0028BFA4
:103A10004FEA330342EB22425FEA132C4CEBC250D5
:103A20002EBFBCEB436FB2F57C0F70474FEA036CBF
:103A3000BCF1004F08BF20F00100B2F57C0F38BF89
:103A400070470BD582F0FF0212F5803FC8BF704768
:103A500000F1C040D8BF00F00040704700F5000CF6
:103A60005FEA4C0C48BF7047B0F1C04000F073B83B
:103A700090EA010F0CEAD11348BF42F4807262450C
:103A800038BF634504D280EA010000F0004070476F
:103A900010B500F01AF800BF8900013E00F007B829
:103AA00000F009B85FEA410C5FEA1C6C08D080EABC
:103AB000010000F050B85FEA400C5FEA1C6CF6D1E0
:103AC0004FF00040A0F5800070470EF1020E2EF07E
:103AD000030E5EF8044B244204D44FEA4102B2F1D3
:103AE0007F4F11D84FEA4003B3F17F4F0CD80ED16E
:103AF0004FEAD07CB2F17F4F0CEB4C0C0CF1020C76
:103B000008BF4CEBD17C04E04FF0080C01E04FEA19
:103B1000D17C0CEB4C0324FA03F404F00704B4F159
:103B2000040C06D20EEB840CBDE810404CF0010CE6
:103B30006047DFE80CF0070802024FF00040A0F5F4
:103B4000800010BD0846420018BFD2F1807288BFC5
:103B500000F0004010BDFF2141EAD050C005704781
:103B600051EA000C00F113801CF5000F58BFBCF5A2
:103B7000000F01D48142704707D711F5000F58BFDD
:103B800010F5000F15D481427047894270471CF52B
:103B9000000F04D5BCF5000FF7D5884270474FF0F1
:103BA000807C1CEB410F38BF1CEB400F01D28842D8
:103BB000704780EA010081EA000180EA0100FFF716
:103BC000F8BE000090EA010F48BF81F000413FF5C8
:103BD00044AD421A04D882F00042A0EB0200114426
:103BE0004FEAD0524FF07F4C1CEA410FA2EBD15369
:103BF00018BF9CEA026F4AD04FF0004C4CEA0020FC
:103C00004CEA012121FA03FCB0EB0C0C0FD412F0AA
:103C1000FE0F36D05FEA4C001DD5001240EBC250BB
:103C200038BF70471CF03F0F18BF70470BE0A2F180
:103C300001025FEA1C2040EBC25038BF70471CF005
:103C40007F0F18BF7047C3F12003994014BF401E77
:103C500020F00100704780084FEA122308BF704728
:103C6000B0FA80FCA2EB0C02CCF1280C60FA0CF04C
:103C700093EA122F04BF00EBC25070474FEAC370A3
:103C80007047130A5FEADC1008BF7047F6E79CEA4A
:103C9000026F04D010EA5C0F08BF0020704710B517
:103CA000FFF713FF40DFF63E81F0004070470CF055
:103CB0000F03092B08BF082000F051800A2B0BD0FE
:103CC000082B18BF704708BF1CF0400F0AD04FF0F8
:103CD00000004FF0000170471CF0400F18BF4FF07C
:103CE000004070471CF0100F08D020F0704300F027
:103CF0007F4242EAD3014FEA4370704700F06040D0
:103D000021F07F4242EA000201F07F4040EA7270F7
:103D100070474FF0FF0212EAD0521CBF92F0FF032F
:103D20008B42C2BFD14200EBC1507047002A0AD07B
:103D3000002B0BD0002900F00040A4BF40F0FE4053
:103D400040F40000704700F00040704743024FF01D
:103D50000B0C18BF4CF0806C7FF4DAAC70471CF48D
:103D6000801F11D01CF4E02F03D06FEACC31490042
:103D700070474FF04050EFF3008222F0704242EA69
:103D8000000282F3008870474FF000007047010284
:103D900002030405060708090A0B0C0D0E0F10108C
:103DA00000000000000000000102030406070809EB
:103DB00000000000010203043A7474003A747400B5
:103DC0003A747400E43D0008000000204C0000003C
:103DD0006C010008303E00084C00002094110000E7
:103DE0008801000801000000100000000000000031
:103DF0000024F400010001000000000000000000A9
:103E000000000000000000000000000000000000B2
:103E100000000000000000000000000000000000A2
:103E20000000000000000000000000000000000092
:0400000508000131BD
:00000001FF
